S01F000043414E5F74696D6573796E6368726F6E697A6174696F6E2E73726563B3
S31500000000D807FE1F6916000051150000651600008E
S3150000001065160000651600006516000065160000EE
S31500000020000000000000000000000000651600004F
S315000000306516000000000000651600006516000049
S31500000040C10F000095100000B111000095100000CE
S31500000050B1110000090B000085130000000000002C
S31500000060000000000000000000000000000000008A
S31500000070000000000000000000000000000000007A
S31500000080000000000000000000000000000000006A
S31500000090000000000000000000000000000000005A
S31500000400FFFFFFFFFFFDFFFFFCFFFFFFFFFFFFFFFB
S31500000410FCFFFFFFFFFFFFFFFCFFFF00FFFFFF00EA
S31500000420FCFF0F20FFFF0F20FCFF7F40FFFF7F40F8
S31500000430FCFF0D40FFFF0D40FFFFFFFFFFFFFFFF2B
S31500000440FFFFFFFFFFFFFFFFFFFFFFFFFFFFFFFFB6
S31500000450FFFFFFFFFFFFFFFFFFFFFFFFFFFFFFFFA6
S31500000460FFFFFFFFFFFFFFFFFFFFFFFFFFFFFFFF96
S31500000470FFFFFFFFFFFFFFFFFFFFFFFFFFFFFFFF86
S31500000480FFFFFFFFFFFFFFFFFFFFFFFFFFFFFFFF76
S31500000490FFFFFFFFFFFFFFFFFFFFFFFFFFFFFFFF66
S315000004A0FFFFFFFFFFFFFFFFFFFFFFFFFFFFFFFF56
S315000004B0FFFFFFFFFFFFFFFFFFFFFFFFFFFFFFFF46
S315000004C0FFFFFFFFFFFFFFFFFFFFFFFFFFFFFFFF36
S315000004D0FFFFFFFFFFFFFFFFFFFFFFFFFFFFFFFF26
S315000004E0FFFFFFFFFFFFFFFFFFFFFFFFFFFFFFFF16
S315000004F0FFFFFFFFFFFFFFFFFFFFFFFFFFFFFFFF06
S3150000050010B5054C237833B9044B13B10448AFF347
S3150000051000800123237010BD5801FE1F000000005B
S315000005209819000008B5034B1BB103490348AFF304
S31500000530008008BD000000005C01FE1F9819000045
S3150000054008B5184B1849194800221A8000F0F2FB2A
S315000005501749184800F078FA164800F0B5FA164A16
S31500000560164BB2F84200164940F48070A2F84200D9
S31500000570B2F840C013484CF4807CA2F840C0B3F8EF
S31500000580822042F00802A3F88220B3F8802042F0CD
S315000005900802A3F8802000F069FE0A4800F058FE21
S315000005A0FEE700BF8401FE1FDC170000A801FE1F46
S315000005B014180000D001FE1F000104400000044092
S315000005C028180000E001FE1F022800D07047024BE9
S315000005D00248596800F0D2B9D0170000A001FE1FEA
S315000005E0124B024693E80300114B83E803009188FF
S315000005F0B1F5806F19D1506A916A03C30D4B0E484D
S31500000600B3F82E220D496FF30F22A3F82E22B3F86A
S315000006102E224FF0010C6CF30702A3F82E22B3F83A
S315000006202E220280B3F854380B8070477C01FE1FDF
S315000006307401FE1F001005409E01FE1F9C01FE1F57
S3150000064010B50E4A92E8030082B00D4A6B4683E865
S31500000650030002F10C0383E803004FF0000C094885
S31500000660A2F804C001244FF0080E6146146082F817
S3150000067006E002B0BDE8104000F02ABBC817000033
S315000006808801FE1FA801FE1F0E480F4A90F800C001
S31500000690B2F84010BCFA8CF36CF30821A2F84010B3
S315000006A05B090A4A0A490370B1F88030107860F392
S315000006B0C303A1F880301378B3FA83F35B09137090
S315000006C0704700BF0000FE1F000104400100FE1F2E
S315000006D00000044008B5FFF733FF002008BD00BF47
S315000006E000230360184670470B0A1B01044853FA9F
S315000006F081F150F82130C3F3400300201370704796
S3150000070000080440090A490101F1804101F58021F0
S3150000071000204B6813807047090A490101F18041A6
S3150000072023EA020001F580211A4042EA00428A606B
S3150000073000207047C8B2012383404AB91A040B0A45
S315000007405B0103F1804303F5802300209A60704724
S315000007509AB2F4E7090A490101F1804101F58021C5
S3150000076010B40C6802EA0300204362EA0302024066
S315000007705DF8044B0A600020704700BF090A490172
S3150000078001F1804101F5802100204B68C3F30F433E
S315000007901380704710B40B0A5B0103F1804303F525
S315000007A08023C8B25C68012181408BB201EA144102
S315000007B0C91AB1FA81F1490900205DF8044B11709C
S315000007C0704700BF090A490101F1804123EA02008E
S315000007D001F580211A4042EA0042CA6000207047B3
S315000007E0014B00201A707047000D04400B0A5B0194
S315000007F003F18043012A03F580230AD0D868C9B2E1
S315000008004FF480328A400243120C1204DA60002050
S315000008107047C8B2D96882400A4392B2DA600020B3
S31500000820704700BF38B50488002C4DD043680021BE
S31500000830043303EBC40040F202450C4640F2034C7D
S3150000084040F2044E0FE0624530D153F8042C02F01A
S31500000850B852B2F1807F14BF41F0020144F00204A5
S315000008600833834211D01A88AA42ECD153F8042CDB
S3150000087002F0B852B2F1807F03F1080314BF41F0D1
S31500000880010144F001048342EDD1C943CDB20120F8
S3150000089000F0BEFE0D4B93F8BB2414432C4083F8A6
S315000008A0BB440120BDE8384000F082BE7245D7D176
S315000008B053F8042C02F0B852B2F1807F0CBF44F01A
S315000008C0040441F00401CBE7FF25E0E700E0014026
S315000008D0F8B50446FFF7A6FFEFF31082012383F372
S315000008E01088234E33681BB92249CB704023CB7046
S315000008F033680133336082F3108825882DB362682C
S315000009001D4C013DADB202F1080101EBC50500E049
S3150000091008311068928810F4803F4FEA12235FFA7C
S3150000092082FC0CEB031E09D054F82E7020F48032A2
S315000009306FF3104744F82E7044F82E201B016344D1
S315000009408D4244F823000A46E2D1EFF310820123D8
S3150000095083F31088336813B13368013B336033681F
S315000009601BB904498020CB70C87082F31088F8BD8B
S315000009704402FE1F000D04400008044008B503466B
S31500000980034A1A600846FFF7A3FF002008BD00BF10
S3150000099054524F5008B50846FFF79AFF002008BD8D
S315000009A070B584B002AB012668460C461546ADF814
S315000009B00C100292ADF800600193FFF733FFEFF3DE
S315000009C0108286F310881D490B681BB91C48C3703A
S315000009D04023C3700B6801330B6082F31088EA036F
S315000009E04FEA1423E4B219D41B01164A234442F8F1
S315000009F02350EFF31082012383F310880B6813B1A1
S31500000A000B68013B0B600B681BB90D498020CB704E
S31500000A10C87082F31088002004B070BD04EB031088
S31500000A20084A52F820606FF3104642F8206025F419
S31500000A30803642F820601B01D7E700BF4402FE1F44
S31500000A40000D044000080440F0B591F902C080F89A
S31500000A5004C04FEA8C03D1E9026403F1804303F535
S31500000A60C0430022D3F80053C3F80023C0E9026450
S31500000A70124C91F800E080F805E004F80E200F799A
S31500000A80CA784E7942EA071242EAC612D2B2BCF1DD
S31500000A90000F04F80E20C3F800530BDB4B7808490F
S31500000AA00CF160421B0102F56142DBB282F80033B1
S31500000AB041F82C00034B03600020F0BD00600040AD
S31500000AC04802FE1F5543490010B490F904200D4B0F
S31500000AD002F1C000012153F820406FF3104443F89F
S31500000AE0204053099B0003F1604303F5614302F084
S31500000AF01F0201FA02F2C3F8802100205DF8044BC0
S31500000B001A6070470060004010B582B0EFF30384AE
S31500000B10103C164B164964B253F8242050790B5CEE
S31500000B2003F00303032B0FD0C03451F824306FF3C6
S31500000B30104341F82430936823B1D268CDE90020F0
S31500000B406846984702B010BD936823B1D268CDE9D4
S31500000B50002068469847064BC03453F824206FF3AC
S31500000B60104243F8242002B010BD00BF4802FE1F09
S31500000B7000600040F0B5076A8DB006466FB3BE460A
S31500000B808C46BEE80F0001AC0FC4BEE80F000FC4D0
S31500000B909EE8070084E80700BCE80F003D460FC545
S31500000BA0BCE80F000FC59CE807008EE80700F36954
S31500000BB038469847336A73B10DF1040E9C46BEE879
S31500000BC00F00ACE80F00BEE80F00ACE80F009EE88F
S31500000BD007008CE807000DB0F0BD0F46E7E700BF41
S31500000BE0437B934210B4446852D0B4F840386FF354
S31500000BF08A23A4F84038B4F840384FF0020C6CF35E
S31500000C000923A4F84038B4F8423803F4E063B3F596
S31500000C10007FF8D1022384F858284273037399425F
S31500000C2015D00529B4F8403814D06FF38A23A4F8F8
S31500000C304038B4F8403861F309230A02A4F8403872
S31500000C40B4F8423803F4E0639342F9D101735DF8D6
S31500000C50044B70476FF38A23A4F84038B4F8403841
S31500000C60022262F30923A4F84038B4F8423803F4A8
S31500000C70E063B3F5007FF8D1B4F8403843F48063FD
S31500000C80A4F84038B4F842385B05FBD50173DEE7BB
S31500000C90037BC4E79DF800C048B102280ED00023AC
S31500000CA022F060421A4342EA8C720A607047074B90
S31500000CB003EA824242EA8C720A607047002BF6D041
S31500000CC0012B14BF00234FF00043E9E70000FC1F8F
S31500000CD0F0B54468651883B095F82038DB0925D14E
S31500000CE01746026801F12003126904EB03111E0185
S31500000CF07B79107B00933B793A68FFF7CBFFB31DF6
S31500000D00BA7923448C8862F303048C8007F10C00C3
S31500000D1099182AB110F8012B03F8012B8B42F9D14F
S31500000D208023002085F8203803B0F0BD4EF66320FE
S31500000D3003B0F0BD2DE9F04F0C680D6904F5802471
S31500000D405034240385B0884607464460EFF3108C80
S31500000D50012181F31088934AD8F80030D2F8006157
S31500000D60C3F1020301FA03F326EA0303C2F80031D2
S31500000D70D2F800318CF31088D8F80830C361D8F85F
S31500000D800C30C0F800800026C0E908632B78037693
S31500000D903246FFF725FF2B7D2A7BD8F80410DB00AF
S31500000DA043EA420343F4E073A4F840388B684A6888
S31500000DB0D1F80CC0013B013A1B0243EA02730A68F0
S31500000DC00CF1FF3143EA0133511E027E1343764A8A
S31500000DD002EA01421343C4F8443832460221FFF7BF
S31500000DE0FFFE04F50073802284F850283146184629
S31500000DF04FF4007200F0ACFC2B69014609E09E42FC
S31500000E0012D3A0190136202E80F8202801F11001F6
S31500000E1018D0A86800EBC60C4FEAC60E9CF8062050
S31500000E20002AECD00022ECE79CF804309CF805C0C0
S31500000E3050F80E20287BCDF800C0FFF72BFF2B695A
S31500000E404022DEE79B0800F0A9806A680397A2F1BA
S31500000E50040C00220CEB830396466FF060494FF0BA
S31500000E600F0B5CF8041F494502F580760ED295F803
S31500000E700CA09000BAF1000F02D14C4F07EA814155
S31500000E8044F826100BFA00F14EEA010E9C4502F1D9
S31500000E900102E6D1039F6FEA0E030022C4F828344C
S31500000EA011463846FFF79CFEB4F8403843F020035D
S31500000EB0A4F84038B4F84038C3F340109B06F9D480
S31500000EC098F9153098F81410DFF8E8C0DFF8E8E074
S31500000ED0374E0CEB03020901C9B282F8001303F185
S31500000EE0C0054EF823705A0956F82590920060F313
S31500000EF0104902F1604246F8259002F5614201254B
S31500000F0003F01F0305FA03F3C2F88031136098F962
S31500000F101630DFF8A8900CEB030203F1C00A82F842
S31500000F2000134EF823705A0956F82AB0920002F1BF
S31500000F30604202F5614260F3104B03F01F0346F86E
S31500000F402AB005FA03F3C2F88031136098F9172026
S31500000F50944453098CF800134EF8227002F1C00134
S31500000F609B0002F01F0205FA02F203F1604356F8F5
S31500000F70215003F5614360F3104546F82150C3F84C
S31500000F8080211A603E2384F84C384FF0FF33C4F8B2
S31500000F902C34C7F8089005B0BDE8F08F4FF0FF334A
S31500000FA07BE700BF006F04400000FF030000FC1F4A
S31500000FB00060004000E100E04802FE1F4E4143523F
S31500000FC030B58DB0EFF30383103B5BB22E4AC033CE
S31500000FD052F823106FF3104142F82310EFF3038306
S31500000FE0103B5BB2294A52F8235000212C2201A85B
S31500000FF000F0AEFB6C6894F84D380020DBB284F844
S315000010004D08ADF80830B4F84218C1F30012C9060D
S3150000101038D543F02003ADF80830022394F853285E
S3150000102084F8533894F8523803F01F03D2B2E1180B
S3150000103084F8532891F8202860F3820281F820284A
S315000010402A681268019201A96A6A049328460692E0
S31500001050FFF790FDB4F84238DB0611D52B681A6904
S31500001060127D6AB193F91530002B09DB5A0908483D
S3150000107003F01F030121403201FA03F340F8223046
S315000010800DB030BD1346DBE7006000404802FE1F8E
S3150000109000E100E02DE9F0418CB0EFF30383103B53
S315000010A05BB2404AC03352F823106FF3104142F846
S315000010B02310EFF30384103C3B4B66B2002253F837
S315000010C02600D0E900E595F8533885F8532895F8B9
S315000010D0527807F01F07DBB207F1200285F8533874
S315000010E0130104F0FF0455F803C0CCF380718DF8AA
S315000010F02110E958DEF810301B7B43EAD17303F068
S3150000110001038DF82030002B48D1CCF38A4305EB40
S31500001110021207939188C1F3030301F00F01082916
S315000011208DF8223037D908218DF822100AAA00231B
S3150000113005EB071808EB030C01339CF806C202F80E
S3150000114001CB8B42F6D3DEF8003004972F4401938F
S31500001150442387F820380023099307AB05934FF4FF
S315000011608063ADF8083001A9436A0693FFF702FDD4
S31500001170B5F84238DB070BD5002E09DB76090B4A9A
S3150000118004F01F040123403603FA04F442F8264013
S315000011900CB0BDE8F0810029C8D1D4E72CF060433B
S315000011A0B5E700BF006000404802FE1F00E100E016
S315000011B070B58CB0EFF30383103B5BB2214AC033AA
S315000011C052F823106FF3104142F82310EFF3038314
S315000011D0103B1D4A5BB2012652F823506C6894F806
S315000011E0532884F8536894F85238D2B203F01F0398
S315000011F084F853280493E2184FF40063ADF80830DE
S315000012002B681B6801936B6A0693002382F82038CB
S3150000121001A982F8203828460593FFF7ABFCB4F8FD
S3150000122042389B070CD52B6893F91730002B07DB48
S315000012305A09064903F01F0340329E4041F82260D6
S315000012400CB070BD006000404802FE1F00E100E0E7
S315000012508268117A01F00101137AC3F340039942BF
S31500001260FAD1F12313720020704700BFF0B40B7C53
S3150000127003F1401303F500631B02C0E90113EFF30A
S315000012801085012383F310880C7C394AC4F10304CA
S31500001290A340D2F8084124EA0303C2F80831D2F881
S315000012A0083185F31088826800231372137AC3F31A
S315000012B0400C9B07FAD4CC6982F80AC0E3782678FA
S315000012C00D7A247903F00703002E42D1002D47D171
S315000012D014734C684768002696735372631E9572A2
S315000012E09BB2C4603D7C1380224B43F8254091F9A4
S315000012F01230B34222DB4A7C03F1604404F56144B8
S315000013001201D2B284F800231B4A1C4C42F8230077
S3150000131003F1C0055A0954F82570920002F16042A3
S3150000132066F3104744F8257002F5614203F01F0387
S31500001330012404FA03F3C2F880311360D1E90541B0
S3150000134000230F4A0461C0E905310260F0BC18466B
S315000013507047502E06BF43F0500365463343B7E748
S3150000136085F0020543EA0513DBB23546B0E700BF58
S31500001370006F0440FC01FE1F4802FE1F0060004093
S3150000138054474100F0B585B0EFF30383103B5BB2E1
S3150000139003F1C0011F4A204C52F821006FF31040A0
S315000013A042F8210054F82350D5E901020178137A56
S315000013B00129DBB20CD1F42103F0F0031172E968C4
S315000013C01372047C154840F82410013989B2118043
S315000013D02F69B7B16C6901AECCB194E8070086E815
S315000013E007009B0644BF00232371AB692360204698
S315000013F0B8476B691BB196E8070083E80700AA683F
S31500001400137ADBB203F00F03137205B0F0BD344656
S31500001410E7E700BF006000404802FE1FFC01FE1F18
S31500001420064B074993F826001A6A51F820300549F9
S31500001430C2F30262D3400B60704700BF00E0014078
S315000014403C01FE1FD003FE1F30B4374B374C3849E2
S31500001450384800224AF20355A3F8FE53A4F80021A7
S31500001460354C4C60354D364C08604FF40040C1E9B0
S31500001470020493F82640C1E9040551F824001C6AC9
S31500001480304DC4F30264E0400924286083F8132435
S3150000149083F8A24093F8800418B183F8812483F876
S315000014A08024214A0620002382F8A50082F83230E3
S315000014B092F83C301807FBD5002342F201701085E4
S315000014C082F82A30184B93F83C209206FBD5174A2F
S315000014D0022082F81C01052083F826001A481862AB
S315000014E093F826001C6A51F82000C4F3026C20FA17
S315000014F00CF02860012140244FF4254083F8301079
S3150000150083F8521083F8531083F82440A3F8FE039F
S31500001510A2F80411B2F804319BB2002BFAD10123D0
S3150000152030BCA2F80031704700E0014000C0014025
S315000015303C01FE1F002D310100127A00001C4E0EE8
S3150000154000366E01D003FE1F21120121704700BF35
S315000015500B4B70B5B3F840510A4E0024ADB225FAD4
S3150000156004F3DB07E0B203D556F8243003B19847FD
S315000015700134102CF3D1024BA3F8305170BD00BFDB
S31500001580006000400402FE1F10B4074A074C002307
S3150000159003F1C001013332F8020F44F82100602B39
S315000015A0F6D15DF8044B70479618000000600040C5
S315000015B0EFF31081012383F31088124B33F81020C8
S315000015C092B22AB133F81020013A92B223F81020D1
S315000015D033F810309BB293B90B4A10B4B2F8FE330D
S315000015E00A4C9BB234F8100043F4254323EA000367
S315000015F0A2F8FE3381F310885DF8044B704781F33F
S3150000160010887047C803FE1F00E0014090190000D3
S3150000161030B4EFF31081012383F310880E4A32F8B9
S3150000162010309BB26BB90D4C0D4DB4F8FE3335F846
S3150000163010C09BB243EA0C0343F425439BB2A4F8C3
S31500001640FE3332F8103001339BB222F8103081F3AA
S31500001650108830BC704700BFC803FE1F00E0014081
S315000016609019000000BE704708B500F003F8FFF7B8
S3150000167031F8FEE7224B234A4FF4700170B5002083
S31500001680C3F888109A60FEF79FFFFFF7DDFE012082
S31500001690FEF79AFF1C4B1D491D4D1E4E1E481F4A44
S315000016A000244FF4254C9C80A3F800C09E60DD60AA
S315000016B04FF48055A1F8205101219980121A214634
S315000016C000F046F81648174A1749184D121A00F046
S315000016D031F8174B5B1BA34206DD9E1055F8043B01
S315000016E001349847A642F9DCFFF79AFE0220FEF77E
S315000016F06BFFFFF749FFBDE870400020FFF726BFEC
S3150000170000ED00E000000000000D00400060004019
S31500001710D807FE1FD803FE1F5801FE1FD403FE1F65
S315000017200000FE1F3C01FE1F9C1900003401FE1F35
S315000017303801FE1F0A44914200F1FF3300D1704781
S3150000174010B511F8014B03F8014F9142F9D110BDC4
S3150000175002440346934200D1704703F8011BF9E7A0
S315000017604275696C7420776974682052656E65737A
S31500001770617320416476616E63656420466C6578AA
S3150000178069626C6520536F6674776172652050617B
S31500001790636B6167652076657273696F6E20332EA1
S315000017A0352E3000332E352E3000000000000503A4
S315000017B0F8B500BFF8BC08BC9E467047F8B500BF38
S315000017C0F8BC08BC9E46704743414E5F414F4B00F4
S315000017D0A001FE1F5018000058190000010000006B
S315000017E00400FE1FE105000000000000F4170000E1
S315000017F00C000102010000001401FE1F1400FE1F70
S3150000180000000000200000000000000000000000B2
S31500001810000000000B0C050003000000410600005C
S315000018200000000000000000000000000080000032
S315000018300000000000400000000C060089060000C1
S31500001840000000004818000040000001000000FFF2
S3150000185008000000581800000040000006000000C4
S31500001860000001000801000000000100090100005D
S31500001870000001000A010000000001000003000052
S31500001880000001100B050000000001100C0500000F
S3150000189005000000080A00008F00920093009000E7
S315000018A091000C0040000000000000000000000055
S315000018B00000000000000000000000000000000022
S315000018C00000000000000000000000000000000012
S315000018D00000000000000000000000000000000002
S315000018E000000000000000000000000000000000F2
S315000018F000000000000000000000000000000000E2
S3150000190000000000000000000000000000000000D1
S3150000191000000000000000000000000000000000C1
S3150000192000000000000000000000000000000000B1
S3150000193000000000000000000000000000000000A1
S315000019400000000000000000000000000000000091
S3150000195000000000000000007D090000E106000014
S3150000196095090000A109000095070000ED07000099
S31500001970E1070000E90600003507000055070000F2
S315000019807D070000C50700000507000019070000D5
S311000019900100020008001000000000002A
S3150000199C01010000030000000B0000000400000021
S315000019AC040000000000000000010100010000001E
S315000019BC0000000002000000000000000300000010
S315000019CC00000000040000000000000005000000FC
S315000019DC00000000060000000000000007000000E8
S315000019EC00000000080000000000000009000000D4
S315000019FC000000000A000000000000000B000000C0
S31500001A0C000000000C000000000000000D000000AB
S31500001A1C000000000E000000000000000F00000097
S31500001A2C0000000010000000000000001100000083
S31500001A3C000000001200000000000000130000006F
S31500001A4C000000001400000000000000150000005B
S31500001A5C0000000016000000000000001700000047
S31500001A6C0000000018000000000000001900000033
S31500001A7C000000001A000000000000001B0000001F
S31500001A8C000000001C000000000000001D0000000B
S31500001A9C000000001E000000000000001F000000F7
S31500001AAC00000000FFFFFF1FFFFFFF1FFFFFFF1FD0
S31500001ABCFFFFFF1FFFFFFF1FFFFFFF1FFFFFFF1FA4
S31100001ACCFFFFFF1F2505000001050000BC
S3150100A150FFFFFFFFFFFFFFFFFFFFFFFFFFFFFFFF08
S705000016697B
