S01000006769745F746573742E73726563B1
S315000000009804FE1F190B0000010A0000150B0000E2
S31500000010150B0000150B0000150B0000150B00005A
S31500000020000000000000000000000000150B0000AA
S31500000030150B000000000000150B0000150B00005A
S31500000040FFFFFFFFFFFFFFFFFFFFFFFFFFFFFFFFBA
S31500000050FFFFFFFFFFFFFFFFFFFFFFFFFFFFFFFFAA
S31500000060FFFFFFFFFFFFFFFFFFFFFFFFFFFFFFFF9A
S31500000070FFFFFFFFFFFFFFFFFFFFFFFFFFFFFFFF8A
S31500000400FFFFFFFFFFFDFFFFFCFFFFFFFFFFFFFFFB
S31500000410FCFFFFFFFFFFFFFFFCFFFF00FFFFFF00EA
S31500000420FCFF0F20FFFF0F20FCFF7F40FFFF7F40F8
S31500000430FCFF0D40FFFF0D40FFFFFFFFFFFFFFFF2B
S31500000440FFFFFFFFFFFFFFFFFFFFFFFFFFFFFFFFB6
S31500000450FFFFFFFFFFFFFFFFFFFFFFFFFFFFFFFFA6
S31500000460FFFFFFFFFFFFFFFFFFFFFFFFFFFFFFFF96
S31500000470FFFFFFFFFFFFFFFFFFFFFFFFFFFFFFFF86
S31500000480FFFFFFFFFFFFFFFFFFFFFFFFFFFFFFFF76
S31500000490FFFFFFFFFFFFFFFFFFFFFFFFFFFFFFFF66
S315000004A0FFFFFFFFFFFFFFFFFFFFFFFFFFFFFFFF56
S315000004B0FFFFFFFFFFFFFFFFFFFFFFFFFFFFFFFF46
S315000004C0FFFFFFFFFFFFFFFFFFFFFFFFFFFFFFFF36
S315000004D0FFFFFFFFFFFFFFFFFFFFFFFFFFFFFFFF26
S315000004E0FFFFFFFFFFFFFFFFFFFFFFFFFFFFFFFF16
S315000004F0FFFFFFFFFFFFFFFFFFFFFFFFFFFFFFFF06
S3150000050010B5054C237833B9044B13B10448AFF347
S3150000051000800123237010BD2000FE1F0000000094
S31500000520AC0D000008B5034B1BB103490348AFF3FC
S31500000530008008BD000000002400FE1FAC0D000076
S31500000540704700BF022800D07047024B0248596826
S3150000055000F058B9780C00003C00FE1F08B5FFF704
S31500000560EFFF002008BD00BF002303601846704758
S315000005700B0A1B01044853FA81F150F82130C3F3EA
S31500000580400300201370704700080440090A49011F
S3150000059001F1804101F5802100204B6813807047EE
S315000005A0090A490101F1804123EA020001F580218F
S315000005B01A4042EA00428A6000207047C8B201230E
S315000005C083404AB91A040B0A5B0103F1804303F521
S315000005D0802300209A6070479AB2F4E7090A49011D
S315000005E001F1804101F5802110B40C6802EA030094
S315000005F0204362EA030202405DF8044B0A600020D1
S31500000600704700BF090A490101F1804101F58021C7
S3150000061000204B68C3F30F431380704710B40B0AD6
S315000006205B0103F1804303F58023C8B25C680121B6
S3150000063081408BB201EA1441C91AB1FA81F1490924
S3150000064000205DF8044B1170704700BF090A49018C
S3150000065001F1804123EA020001F580211A4042EAB5
S315000006600042CA6000207047014B00201A70704794
S31500000670000D04400B0A5B0103F18043012A03F5D8
S3150000068080230AD0D868C9B24FF480328A40024328
S31500000690120C1204DA6000207047C8B2D968824092
S315000006A00A4392B2DA600020704700BF38B504886A
S315000006B0002C4DD043680021043303EBC40040F204
S315000006C002450C4640F2034C40F2044E0FE06245F0
S315000006D030D153F8042C02F0B852B2F1807F14BF27
S315000006E041F0020144F002040833834211D01A8813
S315000006F0AA42ECD153F8042C02F0B852B2F1807F32
S3150000070003F1080314BF41F0010144F001048342E0
S31500000710EDD1C943CDB2012000F0D2F90D4B93F8CB
S31500000720BB2414432C4083F8BB440120BDE8384069
S3150000073000F096B97245D7D153F8042C02F0B8529E
S31500000740B2F1807F0CBF44F0040441F00401CBE712
S31500000750FF25E0E700E00140F8B50446FFF7A6FFF5
S31500000760EFF31082012383F31088234E33681BB9FD
S315000007702249CB704023CB7033680133336082F358
S31500000780108825882DB362681D4C013DADB202F17B
S31500000790080101EBC50500E008311068928810F4E5
S315000007A0803F4FEA12235FFA82FC0CEB031E09D04E
S315000007B054F82E7020F480326FF3104744F82E70F0
S315000007C044F82E201B0163448D4244F823000A4658
S315000007D0E2D1EFF31082012383F31088336813B15B
S315000007E03368013B336033681BB904498020CB7002
S315000007F0C87082F31088F8BD8400FE1F000D044007
S315000008000008044008B50346034A1A600846FFF785
S31500000810A3FF002008BD00BF54524F5008B508463C
S31500000820FFF79AFF002008BD70B584B002AB012621
S3150000083068460C461546ADF80C100292ADF80060FD
S315000008400193FFF733FFEFF3108286F310881D49FB
S315000008500B681BB91C48C3704023C3700B68013377
S315000008600B6082F31088EA034FEA1423E4B219D42A
S315000008701B01164A234442F82350EFF3108201234A
S3150000088083F310880B6813B10B68013B0B600B6890
S315000008901BB90D498020CB70C87082F310880020E8
S315000008A004B070BD04EB0310084A52F820606FF3E1
S315000008B0104642F8206025F4803642F820601B017D
S315000008C0D7E700BF8400FE1F000D04400008044067
S315000008D0064B074993F826001A6A51F82030054955
S315000008E0C2F30262D3400B60704700BF00E00140D4
S315000008F00800FE1F9000FE1F30B4374B374C3849B6
S31500000900384800224AF20355A3F8FE53A4F8002102
S31500000910354C4C60354D364C08604FF40040C1E90B
S31500000920020493F82640C1E9040551F824001C6A24
S31500000930304DC4F30264E0400924286083F8132490
S3150000094083F8A24093F8800418B183F8812483F8D1
S315000009508024214A0620002382F8A50082F832303E
S3150000096092F83C301807FBD5002342F2017010853F
S3150000097082F82A30184B93F83C209206FBD5174A8A
S31500000980022082F81C01052083F826001A48186206
S3150000099093F826001C6A51F82000C4F3026C20FA72
S315000009A00CF02860012140244FF4254083F83010D4
S315000009B083F8521083F8531083F82440A3F8FE03FB
S315000009C0A2F80411B2F804319BB2002BFAD101232C
S315000009D030BCA2F80031704700E0014000C0014081
S315000009E00800FE1F002D310100127A00001C4E0E79
S315000009F000366E019000FE1F21120121704700BFD4
S31500000A000B4B70B5B3F840510A4E0024ADB225FA2F
S31500000A1004F3DB07E0B203D556F8243003B1984758
S31500000A200134102CF3D1024BA3F8305170BD00BF36
S31500000A30006000404400FE1F10B4074A074C002324
S31500000A4003F1C001013332F8020F44F82100602B94
S31500000A50F6D15DF8044B7047E20C000000600040E0
S31500000A60EFF31081012383F31088124B33F8102023
S31500000A7092B22AB133F81020013A92B223F810202C
S31500000A8033F810309BB293B90B4A10B4B2F8FE3368
S31500000A900A4C9BB234F8100043F4254323EA0003C2
S31500000AA0A2F8FE3381F310885DF8044B704781F39A
S31500000AB0108870478800FE1F00E00140A40D00006A
S31500000AC030B4EFF31081012383F310880E4A32F815
S31500000AD010309BB26BB90D4C0D4DB4F8FE3335F8A2
S31500000AE010C09BB243EA0C0343F425439BB2A4F81F
S31500000AF0FE3332F8103001339BB222F8103081F306
S31500000B00108830BC704700BF8800FE1F00E001401F
S31500000B10A40D000000BE704708B500F003F8FFF70B
S31500000B201DFDFEE7224B234A4FF4700170B50020ED
S31500000B30C3F888109A60FFF705FDFFF7DDFE012078
S31500000B40FFF700FD1C4B1D491D4D1E4E1E481F4A3A
S31500000B5000244FF4254C9C80A3F800C09E60DD6005
S31500000B604FF48055A1F8205101219980121A21468F
S31500000B7000F046F81648174A1749184D121A00F0A1
S31500000B8031F8174B5B1BA34206DD9E1055F8043B5C
S31500000B9001349847A642F9DCFFF79AFE0220FFF7D8
S31500000BA0D1FCFFF749FFBDE870400020FFF726BFE4
S31500000BB000ED00E000000000000D00400060004075
S31500000BC09804FE1F9800FE1F2000FE1F9400FE1FC3
S31500000BD00000FE1F0800FE1FB00D00000000FE1FF3
S31500000BE00400FE1F0A44914200F1FF3300D1704712
S31500000BF010B511F8014B03F8014F9142F9D110BD20
S31500000C0002440346934200D1704703F8011BF9E7FB
S31500000C104275696C7420776974682052656E6573D5
S31500000C20617320416476616E63656420466C657805
S31500000C3069626C6520536F667477617265205061D6
S31500000C40636B6167652076657273696F6E20332EFC
S31500000C50352E3000332E352E3000000000000503FF
S31500000C60F8B500BFF8BC08BC9E467047F8B500BF93
S31500000C70F8BC08BC9E4670473C00FE1F840C000072
S31500000C80AC0C0000040000008C0C00000000010009
S31500000C900801000000000100090100000000010039
S31500000CA00A01000000000100000300000508000022
S31500000CB0690500001D080000290800001D06000047
S31500000CC0750600006906000071050000BD050000FC
S31500000CD0DD050000050600004D0600008D0500003C
S31500000CE0A105000000000000000000000000000058
S31500000CF000000000000000000000000000000000EE
S31500000D0000000000000000000000000000000000DD
S31500000D1000000000000000000000000000000000CD
S31500000D2000000000000000000000000000000000BD
S31500000D3000000000000000000000000000000000AD
S31500000D40000000000000000000000000000000009D
S31500000D50000000000000000000000000000000008D
S31500000D60000000000000000000000000000000007D
S31500000D70000000000000000000000000000000006D
S31500000D80000000000000000000000000000000005D
S31500000D90000000000000000000000000000000004D
S31500000DA00000000001000200080010000000000022
S30D00000DB0250500000105000005
S3150100A150FFFFFFFFFFFFFFFFFFFFFFFFFFFFFFFF08
S70500000B19D6
