S02200005241364D335F494545453830325F315143495F576974685441532E7372656358
S315000000009879FF1FDD22000089210000D922000017
S31500000010D9220000D9220000D9220000D9220000EE
S31500000020000000000000000000000000D9220000CF
S31500000030D922000000000000D9220000D9220000C9
S31500000040AD1D0000B5110000551F0000B5110000E0
S31500000050B5110000B511000000000000000000000E
S31500000060000000000000000000000000000000008A
S31500000070000000000000000000000000000000007A
S31500000080000000000000000000000000000000006A
S31500000090000000000000000000000000000000005A
S31500000400FFFFFFFFFFFDFFFFFCFFFFFFFFFFFFFFFB
S31500000410FCFFFFFFFFFFFFFFFCFFFF00FFFFFF00EA
S31500000420FCFF0F20FFFF0F20FCFF7F40FFFF7F40F8
S31500000430FCFF0D40FFFF0D40FFFFFFFFFFFFFFFF2B
S31500000440FFFFFFFFFFFFFFFFFFFFFFFFFFFFFFFFB6
S31500000450FFFFFFFFFFFFFFFFFFFFFFFFFFFFFFFFA6
S31500000460FFFFFFFFFFFFFFFFFFFFFFFFFFFFFFFF96
S31500000470FFFFFFFFFFFFFFFFFFFFFFFFFFFFFFFF86
S31500000480FFFFFFFFFFFFFFFFFFFFFFFFFFFFFFFF76
S31500000490FFFFFFFFFFFFFFFFFFFFFFFFFFFFFFFF66
S315000004A0FFFFFFFFFFFFFFFFFFFFFFFFFFFFFFFF56
S315000004B0FFFFFFFFFFFFFFFFFFFFFFFFFFFFFFFF46
S315000004C0FFFFFFFFFFFFFFFFFFFFFFFFFFFFFFFF36
S315000004D0FFFFFFFFFFFFFFFFFFFFFFFFFFFFFFFF26
S315000004E0FFFFFFFFFFFFFFFFFFFFFFFFFFFFFFFF16
S315000004F0FFFFFFFFFFFFFFFFFFFFFFFFFFFFFFFF06
S3150000050010B5054C237833B9044B13B10448AFF347
S3150000051000800123237010BDA000FE1F0000000014
S31500000520DC29000008B5034B1BB103490348AFF3B0
S31500000530008008BD00000000A400FE1FDC290000AA
S315000005404B1C0ED010B40F4C00EB400004EB8003A4
S3150000055049B280001971002222505DF8044B9A605E
S315000005607047084B00221A711A741A7783F82820EC
S3150000057083F8342083F8402083F84C2083F85820F1
S31500000580704700BFBC00FE1F70B5C489A4B280F8D6
S31500000590204005460E4601200C2101F005FF1549B5
S315000005A0056004EB440401EB8403A4009A68AAB135
S315000005B09A687AB10A5901320A511A7952B99A6877
S315000005C0A6B1012E06D193681BB11A469B68002B73
S315000005D0FBD19060BDE8704001F0F4BE0A590132CB
S315000005E00A51BDE87040986001F0ECBE506098601A
S315000005F0F0E700BFBC00FE1F10B483B0ADF80600E4
S31500000600BDF8063027489BB203EB43039B00C35853
S3150000061043B1BDF806309BB203EB43039B00C258BF
S31500000620013AC250BDF806301F4C9BB203EB4303A0
S3150000063000EB83039A68226079B1022908D1936896
S315000006401BB31A469B68002BFBD1516822608B6056
S31500000650106803B05DF8044B7047BDF80630946827
S315000006609BB203EB4303CCB100EB83039C60BDF864
S3150000067006309BB203EB430300EB830083681068EC
S31500000680596003B05DF8044B7047BDF8061089B297
S3150000069001EB410100EB81008360D9E700EB8300A9
S315000006A08160D5E7BC00FE1F1C01FE1FF8B5114F87
S315000006B0114E124D1249134C384600F01BFD1249DB
S315000006C0304600F017FD1149284600F013FD104989
S315000006D0204600F00FFD384600F04CFD304600F095
S315000006E049FD284600F046FD2046BDE8F84000F0EA
S315000006F041BD00BF5037FE1F6037FE1F7037FE1F1B
S31500000700182700008037FE1F2C2700004027000016
S315000007105427000010B5064CFFF7C8FF20460549D0
S3150000072001F08CFB2046BDE8104001F079BB00BF0C
S315000007309037FE1F6827000010B509490948094C83
S3150000074001F03AF8204601F031FA02460028F9D1C4
S31500000750BDE81040044840F6082100F041BB00BF48
S31500000760B4260000EC2AFE1FE42AFE1F30B501F174
S31500000770FF3C83B0013A4D1DC1F1010E0EEB0C0199
S315000007801CF8014F4454014412F8014F8C71AC45DA
S31500000790F4D100218122027341731C88134A640339
S315000007A01568A4B22C805A88120302F480526A801B
S315000007B09B88C3F30B031C432243ADF80620AB8092
S315000007C0BDF80630C3F307238373BDF80630052250
S315000007D0DC24DBB2C3730274447440F2DC52123080
S315000007E003B0BDE8304001F003BE00BF2001FE1F8C
S315000007F010B54B1E4C1DC1F1010E0EEB030213F892
S3150000080001CF00F802C0024493F806C082F806C081
S315000008109C42F2D18B895BBA8382838A9BB2B3F501
S31500000820014F08D00E24828A214492B2BDE81040BE
S31500000830163001F0CFBD838A9BB283818B7B5B0927
S31500000840C3818B7BC3F3001303828B7BCA7B1B02A2
S3150000085003F47063134343820B8A5BBA12248382C8
S31500000860E1E700BF0D4A0E4B12681A601A681A2A91
S3150000087010D91A681A2A08D81A68272A0CD91B68A8
S31500000880422B8CBF0220012070471A68272AF3D812
S31500000890002070470320704702207047E024FE1FA7
S315000008A0080DFE1F82B00190019B032B31D8DFE8B3
S315000008B003F0021E1405082002B07047164B1A6B8F
S315000008C0FAB95A6AFAB99A690ABBDA68EAB91B68C8
S315000008D0002B0CBF09200020EEE70F4B9A6C72B973
S315000008E0DB6B002B0CBF0920052002B070470A4BBA
S315000008F05B6D002B0CBF0920072002B07047062055
S31500000900DAE70420D8E70320D6E70120D4E702205F
S31500000910D2E70920D0E700BFBC00FE1F38B5494B1F
S31500000920494A1B68494CC3F128031360D2ED007A8B
S31500000930474BF8EE677AF2EE046A67EEA67AB2EEF5
S31500000940097A67EE877AFDEEE77AC4ED007A9A6C4B
S3150000095082B9DB6B63B13F4B1B7805202BB13E4B55
S315000009601B7813B12368203B23602368402B09DCE6
S31500000970002038BD374B1B780620002BEFD12368AB
S31500000980402BF5DD0021FFF737FE344D014640F2DE
S31500000990F252284601F01EFDAB8A22689BB29B1AD2
S315000009A03F2B25DDAB8A22689BB2934225DCAB8ABE
S315000009B02B489BB223602268837BB5F80EC005F1F5
S315000009C0160103F01F031FFA8CF543EA4513DBB249
S315000009D08373C2F307230374D3B24374013A12300C
S315000009E001F0F8FC23681F4A9BB21380012038BD32
S315000009F000212846FFF7C8FDBAE72368194A1848B8
S31500000A009BB213802268837BE98903F01F0389B2B6
S31500000A1043EA4113DBB28373C2F307230374D3B2F1
S31500000A20437405F11601013A123001F0D3FCAB8A8A
S31500000A3022689B1A9BB228460021AB82FFF7A4FDD1
S31500000A40012038BD080DFE1F140DFE1F0C0DFE1FE4
S31500000A50BC00FE1F100DFE1FDE24FE1F2401FE1F1C
S31500000A601807FE1FD62AFE1F0E4A10B40E4CA37B93
S31500000A70D18903F01F0389B243EA4113DBB2A373A2
S31500000A80938AC3F307232374938ADBB2637402F158
S31500000A901601928A92B204F11200013A5DF8044BF3
S31500000AA001F098BCFC18FE1FF01EFE1F2DE9F04F4A
S31500000AB03D4B3E4D3E4CDFF81091DFF804A1DFF8C8
S31500000AC00CB13C4F3C4EDFF8088193E8030087B039
S31500000AD003F108020090ADF8041092E80300103309
S31500000AE00290ADF80C1093E803000490ADF81410D2
S31500000AF0FFF722FE314B30481A6B6FF355521A63DB
S31500000B00694604AB02AAFFF731FE2D4804AB02AAE0
S31500000B106946FFF72BFE04AB02AA2A486946FFF78F
S31500000B2025FE4FF0FF310020FFF70AFDFFF7F2FD2B
S31500000B302878FFF7B7FE208023889BB2092BF7D0D1
S31500000B4023889BB2082B4FF0000116D199F800308C
S31500000B50002BEDD0FFF7E2FE23888AF81230012839
S31500000B60E6D120238AF80F30BBF80020144992B250
S31500000B701232404600F0CEFEDAE7208880B2FFF758
S31500000B803BFD40F2F2520146384601F023FCFFF7E6
S31500000B906BFF2388BA8AB37492B23146123240464A
S31500000BA000F0B8FEC4E700BF90260000E424FE1F54
S31500000BB00200FE1FFC18FE1FF01EFE1F004006402E
S31500000BC01807FE1F180DFE1F0000FE1FD62AFE1F67
S31500000BD0EC2AFE1F0A4B1B7810B51BB1094A136895
S31500000BE001331360084C2068FFF73CFE074B187072
S31500000BF023685D2B96BF236800230133236010BD55
S31500000C00E02AFE1FDC2AFE1FE024FE1FE424FE1F4E
S31500000C1008B543680B3B032B46D8DFE803F03525C0
S31500000C201502224B1A7882F001021A701A78002AED
S31500000C3036D11F4A012111701A781E48BDE80840B6
S31500000C404FF4306100F0CCB81B4B1A48012240F635
S31500000C5009211A7000F0C4F8BDE8084015480022C2
S31500000C6040F60A2100F0BCB8134B1248002240F6A9
S31500000C7009211A7000F0B4F8BDE808400D480122B9
S31500000C8040F60A2100F0ACB80C490D4840F2EE528D
S31500000C9000F040FEBDE808400121602001F046BAA0
S31500000CA0034A00211170C7E708BD00BF0400FE1FFC
S31500000CB0DE24FE1FE42AFE1F0000FE1FF01EFE1F9C
S31500000CC0EC2AFE1F0379032B00D0704710B51F4C8A
S31500000CD01F4A2048214600F0FFFFA37B5B09072B34
S31500000CE008D8DFE803F02B07070707042F111A4B74
S31500000CF043221A6015491948FFF77AFDBDE81040EE
S31500000D0016480121FFF740BC134A154B28211160F4
S31500000D101B78002BEED11349227C637C0A744B743A
S31500000D20087C4B7C0D4A43EA00239382928A094849
S31500000D3092B2BDE81040123200F0ECBD064B002224
S31500000D401A60D7E7044B1B221A60D3E7E824FE1F7C
S31500000D50D82AFE1FEC2AFE1FE024FE1F0813FE1FE2
S31500000D600000FE1F180DFE1F022800D07047024B20
S31500000D700248596800F058B9A8260000E42AFE1F68
S31500000D8008B5FFF793FE002008BD00BF00230360EF
S31500000D90184670470B0A1B01044853FA81F150F8B4
S31500000DA02130C3F34003002013707047000804404D
S31500000DB0090A490101F1804101F5802100204B68B3
S31500000DC013807047090A490101F1804123EA0200B4
S31500000DD001F580211A4042EA00428A6000207047ED
S31500000DE0C8B2012383404AB91A040B0A5B0103F116
S31500000DF0804303F5802300209A6070479AB2F4E797
S31500000E00090A490101F1804101F5802110B40C68FD
S31500000E1002EA0300204362EA030202405DF8044B43
S31500000E200A600020704700BF090A490101F18041AC
S31500000E3001F5802100204B68C3F30F4313807047F0
S31500000E4010B40B0A5B0103F1804303F58023C8B29B
S31500000E505C68012181408BB201EA1441C91AB1FADA
S31500000E6081F1490900205DF8044B1170704700BFFD
S31500000E70090A490101F1804123EA020001F58021B6
S31500000E801A4042EA0042CA6000207047014B002027
S31500000E901A707047000D04400B0A5B0103F1804392
S31500000EA0012A03F580230AD0D868C9B24FF48032EC
S31500000EB08A400243120C1204DA6000207047C8B25E
S31500000EC0D96882400A4392B2DA600020704700BFB8
S31500000ED038B50488002C4DD043680021043303EB59
S31500000EE0C40040F202450C4640F2034C40F2044E68
S31500000EF00FE0624530D153F8042C02F0B852B2F13B
S31500000F00807F14BF41F0020144F00204083383429B
S31500000F1011D01A88AA42ECD153F8042C02F0B85228
S31500000F20B2F1807F03F1080314BF41F0010144F0E0
S31500000F3001048342EDD1C943CDB2012001F084F909
S31500000F400D4B93F8BB2414432C4083F8BB4401207B
S31500000F50BDE8384001F048B97245D7D153F8042CA2
S31500000F6002F0B852B2F1807F0CBF44F0040441F0A5
S31500000F700401CBE7FF25E0E700E00140F8B50446B1
S31500000F80FFF7A6FFEFF31082012383F31088234EA9
S31500000F9033681BB92249CB704023CB7033680133C9
S31500000FA0336082F3108825882DB362681D4C013D9D
S31500000FB0ADB202F1080101EBC50500E00831106889
S31500000FC0928810F4803F4FEA12235FFA82FC0CEB02
S31500000FD0031E09D054F82E7020F480326FF31047A8
S31500000FE044F82E7044F82E201B0163448D4244F8C9
S31500000FF023000A46E2D1EFF31082012383F310881F
S31500001000336813B13368013B336033681BB9044955
S315000010108020CB70C87082F31088F8BDF437FE1FAD
S31500001020000D04400008044008B50346034A1A6050
S315000010300846FFF7A3FF002008BD00BF54524F50DB
S3150000104008B50846FFF79AFF002008BD70B584B0C2
S3150000105002AB012668460C461546ADF80C10029206
S31500001060ADF800600193FFF733FFEFF3108286F3CC
S3150000107010881D490B681BB91C48C3704023C370F8
S315000010800B6801330B6082F31088EA034FEA1423DE
S31500001090E4B219D41B01164A234442F82350EFF355
S315000010A01082012383F310880B6813B10B68013B90
S315000010B00B600B681BB90D498020CB70C87082F39A
S315000010C01088002004B070BD04EB0310084A52F8E3
S315000010D020606FF3104642F8206025F4803642F80F
S315000010E020601B01D7E700BFF437FE1F000D044048
S315000010F000080440F0B591F902C080F804C04FEA38
S315000011008C03D1E9026403F1804303F5C043002256
S31500001110D3F80053C3F80023C0E90264124C91F8D7
S3150000112000E080F805E004F80E200F79CA784E79C1
S3150000113042EA071242EAC612D2B2BCF1000F04F824
S315000011400E20C3F800530BDB4B7808490CF16042C4
S315000011501B0102F56142DBB282F8003341F82C0034
S31500001160034B03600020F0BD00600040F837FE1F0F
S315000011705543490010B490F904200D4B02F1C0000C
S31500001180012153F820406FF3104443F820405309DF
S315000011909B0003F1604303F5614302F01F0201FA6D
S315000011A002F2C3F8802100205DF8044B1A607047F4
S315000011B00060004010B582B0EFF30384103C164B7C
S315000011C0164964B253F8242050790B5C03F00303EC
S315000011D0032B0FD0C03451F824306FF3104341F87D
S315000011E02430936823B1D268CDE900206846984739
S315000011F002B010BD936823B1D268CDE900206846DD
S315000012009847064BC03453F824206FF3104243F836
S31500001210242002B010BD00BFF837FE1F006000405A
S315000012200023C0E90233436003601846704700BFDD
S315000012308368002B18DD0222013B0A60FCD183681B
S31500001240002B11DD0322013B0A60FCD18368002BD1
S315000012500ADD0322013B0A60FCD18368002B03DD13
S315000012600222013B0A60FCD1704700BF8368002B55
S3150000127018DD0622013B0A60FCD18368002B11DDD4
S315000012800722013B0A60FCD18368002B0ADD072296
S31500001290013B0A60FCD18368002B03DD0622013B7B
S315000012A00A60FCD1704700BF8368002B17DD00225F
S315000012B0013B0A60FCD18368002B10DD0122013B53
S315000012C00A60FCD18368002B09DD0122013B0A601C
S315000012D0FCD18268002A02DD013A0B60FCD170471E
S315000012E070B505460E462024013CD5E90101A4B29D
S315000012F0FFF7BCFF002CF7D168684378B40044EAD6
S31500001300C3140E2644F4C04406E0FFF791FF013EE5
S315000013104FEA440409D06868A9682304F5D5FFF7A5
S31500001320A5FF013E4FEA4404F5D1D5E90101FFF7D7
S31500001330BBFFD5E901014FF0100C3446012283684A
S31500001340002B20DD013B0C60FCD18368002B1ADDED
S31500001350013B0A60FCD10D688368C5F3C005002B0C
S3150000136045EA460608DD013B0A60FCD18368002B8E
S3150000137002DD013B0C60FCD1BCF1010CDFD1FFF7B3
S3150000138093FF304670BD0B68BCF1010CC3F3C0037C
S3150000139043EA4606D3D1F2E7F8B504460E460121E4
S315000013A01F461546FFF79CFF01212046FFF798FFD1
S315000013B0430735D5E368590504D52B6843F0020386
S315000013C02B60E3681A0522D4830626D5204605211C
S315000013D0FFF786FF450544BF02233B60040503D59E
S315000013E03B6843F001033B60810644BF0123336041
S315000013F0420644BF02233360030644BF032333601F
S3150000140010F4807002D0042333600020F8BD2B68EE
S3150000141043F001032B608306D8D441F28930F8BD2E
S3150000142041F28830F8BD00BF10B501210446FFF730
S3150000143057FF01212046FFF753FF41F2883310F092
S31500001440040F0CBF1846002010BD00BFF8B50546B6
S315000014500F4616462024013CD5E90101A4B2FFF748
S3150000146005FF002CF7D16868BC00477844EAC7142A
S3150000147044F4A0440E2706E0FFF7DAFE013F4FEAE8
S31500001480440409D06868A9682204F5D5FFF7EEFE82
S31500001490013F4FEA4404F5D1D5E90101FFF7E6FE25
S315000014A0D5E90101FFF7C4FE102405E0FFF7C0FEF1
S315000014B0013C4FEA460609D03304D5E90101F5D5CA
S315000014C0FFF7D4FE013C4FEA4606F5D1D5E9010106
S315000014D0BDE8F840FFF7E8BE10B54168097B40F665
S315000014E0E15340F2E112002918BF1A460446C260D1
S315000014F00421FFF7ABFF4FF4905220460021FFF77F
S31500001500A5FF04212046FFF7EBFE002010BD00BF1B
S31500001510704700BFF8B50A78164B41609202134433
S315000015200025C0E902354B7BAB42134B0CBF1022A2
S315000015302A460F461A7029464FF400420646FFF720
S3150000154085FF01E0AB4212D900213046FFF7C8FE05
S3150000155010F400447B6805F10105F3D1AB4206D9CE
S315000015603046FFF7D5FF054B33602046F8BD1424FF
S315000015702046F8BD20410640000D0440594850520F
S315000015802DE9F04142680546506B6F698468006832
S31500001590D4F80C802C6984B00023CDE90133039381
S315000015A00E4603AB02AA01A9C04738B9019B013B0D
S315000015B0032B03D8DFE803F02F3A4F0740F6A1705C
S315000015C004B0BDE8F081236843F00203236023687A
S315000015D043F004032360002E32D16A681379012B8D
S315000015E044D023686FF31043236023686FF351439D
S315000015F023602368D27862F300032360236843F0F4
S31500001600400323602368012243F0200323603A61EC
S3150000161004B0BDE8F08123686FF3410323602368BB
S315000016206FF3820323605EB96A68DAE7236843F0E2
S315000016300203236023686FF382032360002ECCD05D
S31500001640236843F400732360236843F04003236058
S3150000165004B0BDE8F08123686FF34103236023687B
S3150000166043F004032360002EDED0E9E700214FF6A5
S31500001670FF736365616639672368194D43F4002378
S315000016802360029B9E00039B06F00C0603F00303F7
S315000016901E438C460C2303E015F8043C15F803CCD6
S315000016A03340634505F104050ED001310829F3D115
S315000016B0002321686FF310412160012B236895D127
S315000016C043F40033236094E7064B03EB81018D78E6
S315000016D0CB78012DEDD1216841F480312160ECE712
S315000016E05829000054290000F8B54268066992F9A5
S315000016F028304769002B044610DB5A091D48203262
S31500001700012103F01F0301FA03F340F82230BFF36F
S315000017104F8FBFF36F8F626892F92830526B16496C
S31500001720002541F82350936810685B689847B369B1
S3150000173065F38203B3613B6B65F396533B63356098
S31500001740A561EFF31080012383F3108861680B4ACB
S315000017500978C1F10F018B40D2F800110B43C2F892
S315000017600031D2F8003180F31088C4E900552846CC
S31500001770F8BD00BF00E100E0F837FE1F006F04402F
S315000017804368196AB9B170B55A7805468AB91E7F99
S315000017905A7F164466B1B600002401E06B68196AE8
S315000017A008595A6A0021043400F022FEA642F5D1F7
S315000017B070BD5E7FEEE770472DE9F0410A78416023
S315000017C0970202F1401202F5C062A7F1BF27160286
S315000017D0A7F57907C0E904760B46002181615A7F97
S315000017E004461201586900F003FE63681A7F98697F
S315000017F00021120100F0FCFD2046FFF7C1FFEFF3C8
S3150000180010804FF0010888F3108863683A4A1B7805
S31500001810D2F80011C3F10F0308FA03F321EA030318
S31500001820C2F80031D2F8003180F31088626933497A
S315000018301368334843EA080313600B68B0FBF3F000
S315000018404146404400F072FC626863699068996F93
S3150000185060F3050199675079996F60F311419967B3
S31500001860536B9A68D3E90001126890470546002831
S3150000187037D163685B6B9A68186893689847214B01
S3150000188037223A61B362336B43F480033363626891
S3150000189092F92830D26A03F1604101F561411201E3
S315000018A0D2B281F80023184A184942F8234003F1BE
S315000018B0C0005A0951F82060920002F1604202F518
S315000018C0614265F3104603F01F0341F8206008FAF1
S315000018D003F3C2F8803113600D4B23602846BDE840
S315000018E0F08141F2883240F6A573904208BF1D464A
S315000018F02846BDE8F08100BF006F04408439FE1F12
S3150000190000E1F5059F0FFF47F837FE1F0060004016
S3150000191045485445F8B5C37E012B30D103691B6891
S315000019209B05044628D4406843780E4615465BB9A5
S31500001930E3681F68002F27DB406A824224D8986834
S3150000194000F048FD63685B786169012BE368AAB221
S31500001950DA801A6808BF9E6022F040521A601A6840
S31500001960D86842F030421A608B68E060012B09D0DB
S3150000197001238B600020F8BD40F6A270F8BD40F64A
S31500001980A170F8BD0020F8BD40F6A370F8BD00BFF9
S31500001990C37E012B1FD103691B689B0518D483687E
S315000019A01A68002A1CDB10B4114A1C68D968224048
S315000019B01A601A6842F000421A60436981601A6927
S315000019C0012A0BD001221A6100205DF8044B7047F2
S315000019D040F6A270704740F6A17070470020F4E709
S315000019E043691A69012A1CBF01221A610020704747
S315000019F060FCFFC72DE9F04F83B0074640690192AE
S31500001A000368D7F8108043F001030360654B66480E
S31500001A101B68B0FBF3F00D460130012100F086FB98
S31500001A207E687C69B268A36F62F30503A367727967
S31500001A30A36F62F31143A367AB882A685BBA12BA35
S31500001A409BB2C8F8C020C8F8C830717F002900F0E2
S31500001A509C80D6F81490356AB6F824804B46284602
S31500001A6009EB011E4FF0000C4FF0004A8B4607E0D1
S31500001A70016891607345C2F800A000F104000DD022
S31500001A801A46A3F80680A3F804C01033D360002DCD
S31500001A90EED17345956000F10400F1D10BF1FF33EF
S31500001AA0180109EB031359F8002042F0804249F867
S31500001AB00020C3F80C90C7F80890594696F81CB059
S31500001AC0BBF1000F6BD096F80180D6F818A04246FD
S31500001AD08900A04653460AEB0B1E0120002514463A
S31500001AE0D8809C469D8043F8105B0022CCF80C30D1
S31500001AF014B9326A02B15258CCF80820734501F184
S31500001B000401EDD10BF1FF3344460AEB03131A68C7
S31500001B10C3F80CA042F080421A60C7F80CA0019AE4
S31500001B203B69012A28D0226B42F480022263226B91
S31500001B3042F480222263226B42F40012226340F2B6
S31500001B40EE51F268996014211965DA66236843F04C
S31500001B5040032360C4F82090C4F818A0B37803B1FA
S31500001B608023A363002140F20F720123A164226542
S31500001B70A36503B0BDE8F08F9A6942F002029A614C
S31500001B80226B42F480022263D9E796F81CB0D7F89C
S31500001B900890BBF1000F96D1D7F80CA0BFE7D6F896
S31500001BA018A0B4E78439FE1F00E1F505F0B5837E81
S31500001BB0012B87B0044620D1466800228276336B1B
S31500001BC033B1317801918DF8082001A898476668ED
S31500001BD0237E8DF803302046FFF786FD054610B1BB
S31500001BE0284607B0F0BD31462046FFF7E5FD05461D
S31500001BF00028F5D19DF80330237663685B6B9A68FD
S31500001C0018681369984741F288339842237E54D066
S31500001C10002B30D1012323760026636866765A7F2F
S31500001C2058693146120100F0E3FB63681A7F986930
S31500001C303146120100F0DCFB2046FFF7A1FD01272B
S31500001C406368E776196932462046FFF7D3FE3146C8
S31500001C502046FFF795FC0546002838D163681A6BC5
S31500001C60002ABDD019789B6B01918DF808700593F9
S31500001C7001A89047B4E70025637E022BCCD0012B48
S31500001C80AED1226900236376116863F38611116071
S31500001C90116863F3451111606268E376136B002BDC
S31500001CA09ED01078926B0190022101A88DF8081041
S31500001CB005929847284607B0F0BD012B02D040F6A2
S31500001CC0A175D9E70023237640F6A175D9E702234B
S31500001CD0E676637684E700BF2DE9F04190F81BC0F5
S31500001CE0BCF1010F37D10546006903689E052DD466
S31500001CF08E46AB682C4917461C68002C21DB6E68A3
S31500001D00B47814B91A6814063CD41C6814F000643C
S31500001D1026D00468A20519D41A68002A08DB1A68B6
S31500001D200A401A601A6842F000421A60DB68AB602B
S31500001D306A691469012CDFD0C2F810C01C68002C37
S31500001D40DDDA4FF47A642046BDE8F08140F6A274ED
S31500001D502046BDE8F08140F6A1742046BDE8F0813A
S31500001D60B3F80480727912FA88F8B8F1000FE8D057
S31500001D70727899687AB1CEF80010C7F800802046CC
S31500001D80BDE8F0812846FFF703FE40F6A47400285C
S31500001D9018BF0446DCE77046424600F01BFB2846A7
S31500001DA0FFF7F6FD0446E8E760FCFFC710B586B00E
S31500001DB0EFF30383103B184A5BB252F82330D3E9A2
S31500001DC0044120698A6A12F4800F07D010F0020FCE
S31500001DD01CBF4FF0010C83F81AC020615B688A6251
S31500001DE0196B51B11C7801949B6B05930324CDE9C3
S31500001DF003028DF8084001A88847EFF30383103BE0
S31500001E005BB2064AC03352F823106FF3104142F812
S31500001E10231006B010BD00BFF837FE1F006000405B
S31500001E208268117A01F00101137AC3F340039942E3
S31500001E30FAD1F12313720020704700BFF0B40B7C77
S31500001E4003F1401303F500631B02C0E90113EFF32E
S31500001E501085012383F310880C7C394AC4F10304EE
S31500001E60A340D2F8084124EA0303C2F80831D2F8A5
S31500001E70083185F31088826800231372137AC3F33E
S31500001E80400C9B07FAD4CC6982F80AC0E37826781E
S31500001E900D7A247903F00703002E42D1002D47D195
S31500001EA014734C684768002696735372631E9572C6
S31500001EB09BB2C4603D7C1380224B43F8254091F9C8
S31500001EC01230B34222DB4A7C03F1604404F56144DC
S31500001ED01201D2B284F800231B4A1C4C42F823009C
S31500001EE003F1C0055A0954F82570920002F16042C8
S31500001EF066F3104744F8257002F5614203F01F03AC
S31500001F00012404FA03F3C2F880311360D1E90541D4
S31500001F1000230F4A0461C0E905310260F0BC18468F
S31500001F207047502E06BF43F0500365463343B7E76C
S31500001F3085F0020543EA0513DBB23546B0E700BF7C
S31500001F40006F0440AC37FE1FF837FE1F00600040EC
S31500001F5054474100F0B585B0EFF30383103B5BB205
S31500001F6003F1C0011F4A204C52F821006FF31040C4
S31500001F7042F8210054F82350D5E901020178137A7A
S31500001F800129DBB20CD1F42103F0F0031172E968E8
S31500001F901372047C154840F82410013989B2118067
S31500001FA02F69B7B16C6901AECCB194E8070086E839
S31500001FB007009B0644BF00232371AB6923602046BC
S31500001FC0B8476B691BB196E8070083E80700AA6863
S31500001FD0137ADBB203F00F03137205B0F0BD34467B
S31500001FE0E7E700BF00600040F837FE1FAC37FE1F72
S31500001FF0064B074993F826001A6A51F8203005491E
S31500002000C2F30262D3400B60704700BF00E001409C
S315000020108400FE1F8439FE1F30B4374B374C3849D5
S31500002020384800224AF20355A3F8FE53A4F80021CB
S31500002030354C4C60354D364C08604FF40040C1E9D4
S31500002040020493F82640C1E9040551F824001C6AED
S31500002050304DC4F30264E0400924286083F8132459
S3150000206083F8A24093F8800418B183F8812483F89A
S315000020708024214A0620002382F8A50082F8323007
S3150000208092F83C301807FBD5002342F20170108508
S3150000209082F82A30184B93F83C209206FBD5174A53
S315000020A0022082F81C01052083F826001A481862CF
S315000020B093F826001C6A51F82000C4F3026C20FA3B
S315000020C00CF02860012140244FF4254083F830109D
S315000020D083F8521083F8531083F82440A3F8FE03C4
S315000020E0A2F80411B2F804319BB2002BFAD10123F5
S315000020F030BCA2F80031704700E0014000C001404A
S315000021008400FE1F002D310100127A00001C4E0EC5
S3150000211000366E018439FE1F21120121704700BF6F
S31500002120A0F101000028FBD1704700BF30B5144D67
S31500002130144A00FB01F14FF47A732868B2FBF0F2FF
S31500002140A1FB03C44FF0FF304FF0000E60457EEB5D
S31500002150040407D3BCFBF2F0800878B1BDE8304038
S31500002160FFF7DEBF9200B1FBF2F1A1FB0313884239
S315000021707EEB0303F2D308460028EFD130BD00BF43
S315000021808439FE1F00CA9A3B0B4B70B5B3F8405119
S315000021900A4E0024ADB225FA04F3DB07E0B203D5FC
S315000021A056F8243003B198470134102CF3D1024B72
S315000021B0A3F8305170BD00BF00600040B437FE1F69
S315000021C010B4074A074C002303F1C001013332F86B
S315000021D0020F44F82100602BF6D15DF8044B7047DE
S315000021E04628000000600040EFF31081012383F3CE
S315000021F01088124B33F8102092B22AB133F810200F
S31500002200013A92B223F8102033F810309BB293B9FA
S315000022100B4A10B4B2F8FE330A4C9BB234F81000E5
S3150000222043F4254323EA0003A2F8FE3381F3108822
S315000022305DF8044B704781F3108870477839FE1FAC
S3150000224000E001407429000030B4EFF3108101234F
S3150000225083F310880E4A32F810309BB26BB90D4CDE
S315000022600D4DB4F8FE3335F810C09BB243EA0C03AB
S3150000227043F425439BB2A4F8FE3332F81030013301
S315000022809BB222F8103081F3108830BC704700BF33
S315000022907839FE1F00E00140742900000B4A08B59A
S315000022A00346106840B10333094923F0030303448E
S315000022B08B4204D8136008BD06481060F3E700F0AF
S315000022C07BF80C2303604FF0FF3008BD8039FE1FFA
S315000022D09839FF1F9839FE1F00BE704708B500F0F9
S315000022E003F8FEF74DFDFEE7224B234A4FF470013B
S315000022F070B50020C3F888109A60FEF735FDFFF729
S315000023008BFE0120FEF730FD1C4B1D491D4D1E4E58
S315000023101E481F4A00244FF4254C9C80A3F800C099
S315000023209E60DD604FF48055A1F82051012199800F
S31500002330121A214600F05CF81648174A1749184D3C
S31500002340121A00F047F8174B5B1BA34206DD9E10DE
S3150000235055F8043B01349847A642F9DCFFF748FEDE
S315000023600220FEF701FDFFF72BFFBDE870400020BD
S31500002370FFF7D4BE00ED00E000000000000D0040B5
S31500002380006000409879FF1F9839FF1FA000FE1FCC
S315000023909839FE1F0000FE1F8400FE1FE029000082
S315000023A07C00FE1F8000FE1F024B0A46014618688D
S315000023B000F026B81800FE1F014B1868704700BFD2
S315000023C01800FE1F024B0146186800F02FB800BF28
S315000023D01800FE1F0A44914200F1FF3300D17047F6
S315000023E010B511F8014B03F8014F9142F9D110BD18
S315000023F002440346934200D1704703F8011BF9E7F4
S3150000240037B5A1FB02244CB91146019200F07AF8C7
S31500002410019A054630B9284603B030BD0C22026049
S315000024200025F8E72146FFF7E3FFF4E737B5002973
S3150000243044D051F8043C0190002BA1F10404B8BF2C
S31500002440E41800F0E3F81E4A0198136833B9636094
S31500002450146003B0BDE8304000F0DEB8A34208D9EE
S31500002460256861198B4201BF19685B6849192160AB
S31500002470EDE71A465B680BB1A342FAD91168551805
S31500002480A5420BD1246821445418A3421160E0D11F
S315000024901C685B68536021441160DAE702D90C239B
S315000024A00360D6E7256861198B4204BF19685B682B
S315000024B0636004BF491921605460CAE703B030BDA8
S315000024C08839FE1F70B50E4E0C463168054611B9A7
S315000024D000F08CF830602146284600F087F8431C4F
S315000024E00AD0C41C24F00304A04207D0211A2846AF
S315000024F000F07CF8013001D14FF0FF34204670BD6A
S315000025008C39FE1F2DE9F041CD1C25F00305083559
S315000025100C2D38BF0C25002D074601DBA94205D935
S315000025200C233B6000263046BDE8F0812E4E00F0BD
S315000025306DF833681C4634BB29463846FFF7C2FFA0
S31500002540431C04464DD134682646002E40D12368EC
S315000025503146384604EB030800F048F880453AD186
S31500002560216803356D1A25F0030508350C2D38BF93
S315000025700C2529463846FFF7A5FF01302BD02368E6
S315000025802B4423600EE02268521B1ED40B2A16D958
S315000025906119A342256018BF5960636808BF31609E
S315000025A062514B60384604F10B0600F035F826F010
S315000025B00706231DF21AB6D09B1BA350B3E7626829
S315000025C0A3420CBF32605A60ECE723466468B2E768
S315000025D034467668B9E70C233B60384600F01CF8B1
S315000025E0A1E72560DEE700BF8839FE1F38B5064D36
S315000025F00023044608462B60FFF750FE431C02D119
S315000026002B6803B1236038BD9039FE1F014800F0E6
S3150000261009B800BF9439FE1F014800F004B800BF96
S315000026209439FE1F704770474275696C742077694C
S3150000263074682052656E6573617320416476616EBD
S3150000264063656420466C657869626C6520536F66C5
S315000026507477617265205061636B6167652076658A
S315000026607273696F6E20332E352E3000332E352E61
S315000026703000000000000503F8B500BFF8BC08BC38
S315000026809E467047F8B500BFF8BC08BC9E4670472A
S3150000269000010000542600000011223344550000BA
S315000026A0070001003000FFFFE42AFE1F902700000C
S315000026B008290000000001000000000000000000E2
S315000026C0000000000800FE1F2037FE1F3037FE1FE7
S315000026D0010100001000FE1F0006000000000000BF
S315000026E00B000000C50C0000F426000000000000EE
S315000026F0000000004037FE1F0027000040290000B0
S3150000270000000000000002000800000000010000B8
S3150000271000000000000000000B0C01000300000098
S31500002720110C000000000000000000000C0C03006B
S3150000273003000000110C0000000000000000000073
S315000027400D0C040003000000110C00000000000046
S31500002750000000000E0C050003000000110C000034
S315000027600000000000000000000000005802000009
S31500002770000000002C010000000A0200D50B00003A
S31500002780000000008827000000000001000000FF94
S315000027901600000098270000004000000600000018
S315000027A00040000008000000004000000900000092
S315000027B0004000000A0000000000010008010000BF
S315000027C00000010009010000000001000A010000EC
S315000027D00000010000030000000C011701040000C6
S315000027E0000C011702040000000C0117050400008C
S315000027F0000C011706040000000C0117000700007A
S31500002800000C011701070000000C01170207000069
S31500002810000C011703070000000C01170407000055
S31500002820000C01170507000005000000080A00005B
S3150000283005000000090A0000040000000A0A000062
S3150000284005000000000B000063010C0040000D00B5
S315000028500E000F0000000000000000000000000055
S315000028600000000000000000000000000000000062
S315000028700000000000000000000000000000000052
S315000028800000000000000000000000000000000042
S315000028900000000000000000000000000000000032
S315000028A00000000000000000000000000000000022
S315000028B00000000000000000000000000000000012
S315000028C00000000000000000000000000000000002
S315000028D000000000000000000000000000000000F2
S315000028E000000000000000000000000000000000E2
S315000028F000000000000000000000000000000000D2
S315000029000000000000000000291000008D0D0000EE
S31500002910411000004D100000410E0000990E00000D
S315000029208D0E0000950D0000E10D0000010E000067
S31500002930290E0000710E0000B10D0000C50D00004B
S315000029401515000021120000D9140000991300008B
S31500002950291400000C0000000E0400000F06000001
S315000029600F0701000E0800000A0A01010F0C000003
S315000029700F0D000101000200080010000000000019
S315000029800000000000000000000000000000000041
S315000029900000000000000000000000000000000031
S315000029A00000000000000000000000000000000021
S315000029B00000000000000000000000000000000011
S315000029C00000000000000000000000000000000001
S315000029D000000000000000000000000000000000F1
S315000029E001000900010000000011223344550000D7
S315000029F0202BFE1F2031FE1F1C00FE1F00000000C2
S31500002A009C290000BC2900007C2900000000000071
S31500002A1000000000000000000000000000000000B0
S31500002A2000000000000000000000000000000000A0
S31500002A300000000000000000000000000000000090
S31500002A400000000000000000000000000000000080
S31500002A500000000000000000000000002505000046
S30900002A600105000066
S3150100A150FFFFFFFFFFFFFFFFFFFFFFFFFFFFFFFF08
S705000022DDFB
