S01A000053756D6D657243616D705F43414E5F4578312E7372656392
S315000000009007FE1F5D200000451F000059200000DC
S3150000001059200000592000005920000059200000F6
S315000000200000000000000000000000005920000051
S31500000030592000000000000059200000592000004F
S3150000004055100000CD0F0000E11000001D1100004A
S31500000050B51500001D1B0000F11B00000D1D000062
S31500000060F11B00000D1D0000000000000000000054
S31500000070000000000000000000000000000000007A
S31500000080000000000000000000000000000000006A
S31500000090000000000000000000000000000000005A
S315000000A0000000000000000000000000000000004A
S31500000400FFFFFFFFFFFDFFFFFCFFFFFFFFFFFFFFFB
S31500000410FCFFFFFFFFFFFFFFFCFFFF00FFFFFF00EA
S31500000420FCFF0F20FFFF0F20FCFF7F40FFFF7F40F8
S31500000430FCFF0D40FFFF0D40FFFFFFFFFFFFFFFF2B
S31500000440FFFFFFFFFFFFFFFFFFFFFFFFFFFFFFFFB6
S31500000450FFFFFFFFFFFFFFFFFFFFFFFFFFFFFFFFA6
S31500000460FFFFFFFFFFFFFFFFFFFFFFFFFFFFFFFF96
S31500000470FFFFFFFFFFFFFFFFFFFFFFFFFFFFFFFF86
S31500000480FFFFFFFFFFFFFFFFFFFFFFFFFFFFFFFF76
S31500000490FFFFFFFFFFFFFFFFFFFFFFFFFFFFFFFF66
S315000004A0FFFFFFFFFFFFFFFFFFFFFFFFFFFFFFFF56
S315000004B0FFFFFFFFFFFFFFFFFFFFFFFFFFFFFFFF46
S315000004C0FFFFFFFFFFFFFFFFFFFFFFFFFFFFFFFF36
S315000004D0FFFFFFFFFFFFFFFFFFFFFFFFFFFFFFFF26
S315000004E0FFFFFFFFFFFFFFFFFFFFFFFFFFFFFFFF16
S315000004F0FFFFFFFFFFFFFFFFFFFFFFFFFFFFFFFF06
S3150000050010B5054C237833B9044B13B10448AFF347
S3150000051000800123237010BD7000FE1F0000000044
S31500000520382A000008B5034B1BB103490348AFF353
S31500000530008008BD000000007400FE1F382A00007D
S3150000054070B51B4D82B0044628460E4601F068F889
S315000005504FF47A71642001F0C7FC16490A69D2E9A2
S31500000560012328469C601C619C61166001F090F98D
S31500000570114A92E803006B46104A83E80300012102
S3150000058011600821917193E80300002402F10C0622
S3150000059086E8030094802146284601F047F9642244
S315000005A02146074802F0D4F8064B1C7002B070BD15
S315000005B05401FE1FDC270000C8270000A800FE1F0C
S315000005C0E000FE1F4501FE1F38B53C4890F806E0E6
S315000005D0BEF14D0F61D04FF0060C0CF101036446DD
S315000005E05FFA83FC611F10F80C304D2BC9B2F4D1B1
S315000005F0002500295DD0012916D00122134603EB00
S31500000600830301325B008A42DBB2F8D10139C9B2F9
S31500000610ACEB0102AEF1300ED2B20EFB0353012950
S3150000062010F802E0DDB2E8D1231DAEF13001294415
S31500000630DAB2C9B21346C45C3E2C34D0002302F1B0
S31500000640010E03EB0E0C5FFA8CFC013310F80C5014
S315000006503E2DDBB2F5D11A4D29600021AB71A98080
S315000006606BB1134405F10C01DBB202E0845C02F1CC
S31500000670010E5FFA8EF29A4201F8014BF6D1104A4A
S315000006801048002101F0D2F864220C48002102F043
S315000006905FF80D4B00221A7038BD0922134600215F
S315000006A0C45C3E2CCAD1064B002219609A809A710E
S315000006B0E5E7231DDAB21346BDE700BFE000FE1FE3
S315000006C09000FE1F5401FE1F4501FE1F03784C2BB0
S315000006D03AD0532B37D110B4C378002B56D02D4CBB
S315000006E094F800C0C31C0CF1010CACEB030C0CEB32
S315000006F00301C9B2217013F8012F002AF7D1F1B115
S31500000700254C012900F1020C207813D00122134652
S3150000071003EB830301325B008A42DBB2F8D11CF89B
S31500000720012F0139303A02FB0300C9B2C0B20129D8
S315000007302070EBD19CF80130303B184420705DF8F6
S31500000740044B00F061B87047144B8278B3F8401040
S31500000750D24362F30821A3F84010C278B3F84010E0
S31500000760D24362F34921A3F840100279B3F840104E
S31500000770D24362F38A21A3F840104279B3F860109D
S31500000780D24362F30001A3F860107047014B197859
S31500000790B5E700BF8C00FE1FA400FE1F0001044049
S315000007A010B5174B174CD3F808216FF34512C3F851
S315000007B00821E26A6FF31242E262E26A431E0021F6
S315000007C06FF3DA52E2626366A164636B092262F335
S315000007D004036363636B43F48073636301F010FF88
S315000007E005A3D3E9002301F09FFC01F083FFE06439
S315000007F010BD00BFAFF30080B81E85EB51B89E3F19
S31500000800006F04400080074038B5174B187807EE94
S31500000810900AF8EE677A17EE900A01F013FF0EA31E
S31500000820D3E9002301F080FC0DA3D3E9002301F0F6
S31500000830ABFD0E4A0E4B04460D461068C3E9004553
S3150000084001F0DEFE2B46224601F06EFC01F052FF5F
S31500000850084BD86438BD00BFFCA9F1D24D62403FB9
S31500000860B81E85EB51B89E3FA400FE1F0000FE1F78
S31500000870C000FE1F0080074030B4234D2B783C2B70
S3150000088005D0224BD888998830BCFFF759BE2B7902
S315000008901E4C03B123706B7A7BB1EA79297A303A20
S315000008A002EB820202EB8202303B303903EB820319
S315000008B001EB810103EB41036380EB7DA1885BB112
S315000008C013480A2210F8013F303B93400B43013A8C
S315000008D099B2531CF6D1A18095F82530E088002BFB
S315000008E0D2D00C4B4FF00A0C13F8012F303A02FA13
S315000008F00CF20CF1FF3C1043BCF1FF3F80B2F3D188
S31500000900E08030BCFFF71CBEE000FE1FC800FE1FE3
S31500000910EC00FE1FFA00FE1F022800D07047024BB3
S315000009200248596800F080BDD02700004C01FE1F28
S31500000930184BB3F8422042F48072A3F84220B3F871
S31500000940422042F40072A3F84220B3F8422042F457
S315000009508062A3F84220B3F8622042F00102A3F8B5
S315000009606220B3F8402042F48072A3F84020B3F826
S31500000970402042F40072A3F84020B3F8402042F42D
S315000009808062A3F84020B3F8602042F00102A3F889
S31500000990602070470001044038B50E4A03790E4CBA
S315000009A0042B137804BF8168E15494F826100133B0
S315000009B03E29054613700AD0A378412B00D038BDD6
S315000009C0AB683E2BFBD1BDE83840FFF7FDBDFFF716
S315000009D053FFF1E74501FE1FE000FE1F08B5642244
S315000009E00021104801F0B4FE0F4A104B002111708F
S315000009F0B3F8402042F48072A3F84020B3F84020B8
S31500000A0042F40072A3F84020B3F8402042F480621A
S31500000A10A3F84020B3F8602042F00102A3F860205A
S31500000A2008BD00BFE000FE1F4501FE1F0001044097
S31500000A308388B3F5806F00D0704710B51449037EE4
S31500000A400B700A78134BD2B20446A3FB0202D208FB
S31500000A50114810F802C00A78D2B2A3FB02E3DB0801
S31500000A6003EB8303A2EB4303DBB20B700B78C25C90
S31500000A700A4B5A7083F800C0094B04F12400DA705F
S31500000A8083F802C0FFF722FE064BE2681A6010BD2B
S31500000A904401FE1FCDCCCCCC0400FE1FDC00FE1FA3
S31500000AA01000FE1F4801FE1F1549164A164B4989BC
S31500000AB011801A6E196E92B242F4F07262F30F014F
S31500000AC01966D3F8C020D3F8C00047F6F00192B2F9
S31500000AD00A4362F30F00C3F8C0001A6E186E120CB8
S31500000AE022F4F07262F31F401866D3F8C000D3F800
S31500000AF0C02041EA104161F31F42C3F8C02070478D
S31500000B000400FE1F1000FE1F0000044038B50C460E
S31500000B10054601210A2001F0E7F9164B1A6E196EF7
S31500000B20120C22F4F07262F31F411966D3F8C0105A
S31500000B3047F6F00242EA1142D3F8C01062F31F41B1
S31500000B40C3F8C0101022681C196E02FA00F000F4F7
S31500000B50F07060F31F411966E2012401D3F8C0105A
S31500000B6002F4F04204F0F004144364F31F41C3F8A6
S31500000B70C01038BD0000044038B5451E002420468C
S31500000B80013415F8011FE4B2FFF7C0FF042CF6D1BB
S31500000B9001210A2001F0A8F90D4B1A6E186E120CED
S31500000BA022F4F07262F31F401866D3F8C020D3F81F
S31500000BB0C00047F6F00141EA124262F31F40C3F853
S31500000BC0C000B3F8602042F40072A3F8602038BD7C
S31500000BD00000044008B512491248134C134D00F0AA
S31500000BE05BF81349134800F085FC124800F0C2FC7C
S31500000BF01149124800F04CFE114B1868FFF7D0FD62
S31500000C00104AD36A43F00103D362FFF791FEFFF760
S31500000C104BFF2378002BFCD02846FFF7ADFFF8E703
S31500000C20282800008C01FE1F4401FE1F1000FE1F35
S31500000C30142800007C01FE1FDC2700005401FE1F63
S31500000C400000FE1F0080074008B5FFF7C3FF002025
S31500000C5008BD00BFF0B5846A85B005460F469446C8
S31500000C606E46B4B194E80F0086E80F00EB691B7876
S31500000C7084F804C02360EB6A2046C4E902736B6AF9
S31500000C809847AC6A1CB196E80F0084E80F0005B0DF
S31500000C90F0BD3446EAE700BF2DE9F04703460A787F
S31500000CA00020187002F100724C695C6202F5605215
S31500000CB08C695201C3E907129A78C3E90A0401252F
S31500000CC065F301029A704A7822B99A78022060F395
S31500000CD001029A7091F90B50B74A8E7A6809203052
S31500000CE005F01F07012404FA07F742F82070BFF346
S31500000CF04F8FBFF36F8FB148B14F05F1C00C36016E
S31500000D0050F82CE06FF3104E40F82CE002EB050C87
S31500000D10F6B28CF8006347F8253091F905500E7944
S31500000D204FEA551C0CF1200C05F01F0E04FA0EFEBE
S31500000D3042F82CE0BFF34F8FBFF36F8F05F1C00C65
S31500000D4002EB050850F82CE03601F6B26FF3104EB0
S31500000D5040F82CE088F8006347F8253091F90750F1
S31500000D608E794FEA551C0CF1200C05F01F0E04FA83
S31500000D700EFE42F82CE0BFF34F8FBFF36F8F05F1E5
S31500000D80C00C02EB050850F82CE03601F6B26FF302
S31500000D90104E40F82CE088F8006347F8253091F9AA
S31500000DA009600D7A4FEA561C0CF1200C06F01F0E56
S31500000DB004FA0EFE42F82CE0BFF34F8FBFF36F8F9D
S31500000DC006F1C00C324450F82CE02D01EDB26FF361
S31500000DD0104E40F82CE082F8005347F82630EFF327
S31500000DE0108584F31088774A0E78D2F800014FF008
S31500000DF00044F44020EA0400C2F80001D2F80021C1
S31500000E0085F310881A6ACD690020907010715072AF
S31500000E109072D07250830C7840F2FF30E040C007E9
S31500000E2044BF4020D0740620107708784E788F781B
S31500000E3040F2FF34C440C878E10744BF4FF478411C
S31500000E409182C100032E41EA071100F0B080002E06
S31500000E5014BFF220E220C9B211709071297B4900BB
S31500000E6001F0020151736978A878C901400100F0C8
S31500000E702000C9B20143002010722E78B01E01284E
S31500000E8040F28C80C9B2D171696888785070107848
S31500000E904C7864F301001070C87890740978D079A2
S31500000EA001F05C0100F0A3000143D1710020C3E909
S31500000EB00300C3E90500D3F81C80404C98F905707F
S31500000EC007F1C00C790954F82C90890001F16041B2
S31500000ED04FF0010E01F5614160F3104907F01F075D
S31500000EE044F82C900EFA07F7C1F880710F6098F954
S31500000EF00BC0354F0CF1C0094FEA5C1154F829A01C
S31500000F00890001F1604101F5614160F3104A0CF07E
S31500000F101F0C44F829A00EFA0CFCC1F880C1C1F8D8
S31500000F2000C098F9071001F1C0094FEA511C54F8A6
S31500000F3029A04FEA8C0C0CF1604C0CF5614C60F367
S31500000F40104A01F01F0144F829A00EFA01F1CCF86D
S31500000F508011CCF8001098F909C00CF1C0084FEACE
S31500000F605C110CF01F0C0EFA0CFE54F828C0890018
S31500000F7060F3104C01F1604144F828C001F561416D
S31500000F8006F0030646F07006C1F880E1C1F800E0FD
S31500000F9096706A891A815F60BDE8F087022E08BFE5
S31500000FA041F01001FF20C9B25070D1717EE741F0C7
S31500000FB04001F2204FE700BF00E100E00060004082
S31500000FC00002FE1F006F04405549435330B4EFF34F
S31500000FD00383103B5BB203F1C0011C4A1C4C52F860
S31500000FE021006FF3104042F8210054F82300C36932
S31500000FF01B691BB103691BB130BC7047036963B938
S31500001000046AA37803F07F03002143F00403A3706E
S31500001010802230BCC160FFF71DBE827802F003015A
S315000010200229C1680BD0046A91F800C084F803C095
S3150000103002F003029B1A0A44C0E90323DBE70C888B
S31500001040056A44F47E44EC81F2E700BF006000408C
S315000010500002FE1F10B582B0EFF30383103B5BB2B4
S3150000106003F1C0011C4A1D4C52F821006FF31040D9
S3150000107042F8210054F82340A27802F00303022B21
S31500001080236A0CBF198A5979A3690CBFC1F30801F9
S31500001090C9B2019133B90422204602B0BDE810401E
S315000010A0FFF7D8BD02F0030201A9606901F042FB17
S315000010B0D4E90521A37803F003031A44C91AC4E945
S315000010C0052109B102B010BD0122204602B0BDE8DB
S315000010D01040FFF7BFBD00BF006000400002FE1FCA
S315000010E038B5EFF30384103C0A4B64B2022253F87E
S315000010F02400056AAB7803F07B03AB700021FFF791
S31500001100A9FDC034044B53F824206FF3104243F872
S31500001110242038BD0002FE1F0060004010B5EFF32A
S315000011200384103C174B64B253F82400837803F011
S315000011300303022B036A0CBF198A597993F804C07A
S315000011400CBFC1F30801C9B21CF0100F0CF0380235
S3150000115006D093F81CC01CF0010F08BF42F04002F5
S3150000116093F804C00CF0C70C83F804C0FFF772FDB7
S31500001170C034054B53F824206FF3104243F8242063
S3150000118010BD00BF0002FE1F006000400023036088
S31500001190184670470B0A1B01044853FA81F150F8B0
S315000011A02130C3F340030020137070470008044049
S315000011B0090A490101F1804101F5802100204B68AF
S315000011C013807047090A490101F1804123EA0200B0
S315000011D001F580211A4042EA00428A6000207047E9
S315000011E0C8B2012383404AB91A040B0A5B0103F112
S315000011F0804303F5802300209A6070479AB2F4E793
S31500001200090A490101F1804101F5802110B40C68F9
S3150000121002EA0300204362EA030202405DF8044B3F
S315000012200A600020704700BF090A490101F18041A8
S3150000123001F5802100204B68C3F30F4313807047EC
S3150000124010B40B0A5B0103F1804303F58023C8B297
S315000012505C68012181408BB201EA1441C91AB1FAD6
S3150000126081F1490900205DF8044B1170704700BFF9
S31500001270090A490101F1804123EA020001F58021B2
S315000012801A4042EA0042CA6000207047014B002023
S315000012901A707047000D04400B0A5B0103F180438E
S315000012A0012A03F580230AD0D868C9B24FF48032E8
S315000012B08A400243120C1204DA6000207047C8B25A
S315000012C0D96882400A4392B2DA600020704700BFB4
S315000012D038B50488002C4DD043680021043303EB55
S315000012E0C40040F202450C4640F2034C40F2044E64
S315000012F00FE0624530D153F8042C02F0B852B2F137
S31500001300807F14BF41F0020144F002040833834297
S3150000131011D01A88AA42ECD153F8042C02F0B85224
S31500001320B2F1807F03F1080314BF41F0010144F0DC
S3150000133001048342EDD1C943CDB2012000F062FE23
S315000013400D4B93F8BB2414432C4083F8BB44012077
S31500001350BDE8384000F026BE7245D7D153F8042CBC
S3150000136002F0B852B2F1807F0CBF44F0040441F0A1
S315000013700401CBE7FF25E0E700E00140F8B50446AD
S31500001380FFF7A6FFEFF31082012383F31088234EA5
S3150000139033681BB92249CB704023CB7033680133C5
S315000013A0336082F3108825882DB362681D4C013D99
S315000013B0ADB202F1080101EBC50500E00831106885
S315000013C0928810F4803F4FEA12235FFA82FC0CEBFE
S315000013D0031E09D054F82E7020F480326FF31047A4
S315000013E044F82E7044F82E201B0163448D4244F8C5
S315000013F023000A46E2D1EFF31082012383F310881B
S31500001400336813B13368013B336033681BB9044951
S315000014108020CB70C87082F31088F8BDFC01FE1FD7
S31500001420000D04400008044008B50346034A1A604C
S315000014300846FFF7A3FF002008BD00BF54524F50D7
S3150000144008B50846FFF79AFF002008BD70B584B0BE
S3150000145002AB012668460C461546ADF80C10029202
S31500001460ADF800600193FFF733FFEFF3108286F3C8
S3150000147010881D490B681BB91C48C3704023C370F4
S315000014800B6801330B6082F31088EA034FEA1423DA
S31500001490E4B219D41B01164A234442F82350EFF351
S315000014A01082012383F310880B6813B10B68013B8C
S315000014B00B600B681BB90D498020CB70C87082F396
S315000014C01088002004B070BD04EB0310084A52F8DF
S315000014D020606FF3104642F8206025F4803642F80B
S315000014E020601B01D7E700BFFC01FE1F000D044072
S315000014F000080440F0B591F902C080F804C04FEA34
S315000015008C03D1E9026403F1804303F5C043002252
S31500001510D3F80053C3F80023C0E90264124C91F8D3
S3150000152000E080F805E004F80E200F79CA784E79BD
S3150000153042EA071242EAC612D2B2BCF1000F04F820
S315000015400E20C3F800530BDB4B7808490CF16042C0
S315000015501B0102F56142DBB282F8003341F82C0030
S31500001560034B03600020F0BD006000400002FE1F38
S315000015705543490010B490F904200D4B02F1C00008
S31500001580012153F820406FF3104443F820405309DB
S315000015909B0003F1604303F5614302F01F0201FA69
S315000015A002F2C3F8802100205DF8044B1A607047F0
S315000015B00060004010B582B0EFF30384103C164B78
S315000015C0164964B253F8242050790B5C03F00303E8
S315000015D0032B0FD0C03451F824306FF3104341F879
S315000015E02430936823B1D268CDE900206846984735
S315000015F002B010BD936823B1D268CDE900206846D9
S315000016009847064BC03453F824206FF3104243F832
S31500001610242002B010BD00BF0002FE1F0060004083
S3150000162010B40368284C0021816093F915304FEA05
S31500001630531C03F01F020CF1200C012303FA02F2E3
S3150000164044F82C20BFF34F8FBFF36F8F026892F9D7
S3150000165016204FEA521C0CF1200C02F01F0203FA6E
S3150000166002F244F82C20BFF34F8FBFF36F8F02684E
S3150000167092F917204FEA521C0CF1200C02F01F02BF
S3150000168003FA02F244F82C20BFF34F8FBFF36F8F9B
S31500001690426882F84C18C2F82C14EFF3108483F3D6
S315000016A010880068094A0068C0F102008340D2F839
S315000016B000010343C2F80031D2F8003184F31088E8
S315000016C008465DF8044B704700E100E0006F0440F7
S315000016D0F0B5076A8DB006466FB3BE468C46BEE8C7
S315000016E00F0001AC0FC4BEE80F000FC49EE8070050
S315000016F084E80700BCE80F003D460FC5BCE80F00B4
S315000017000FC59CE807008EE80700F369384698473E
S31500001710336A73B10DF1040E9C46BEE80F00ACE8C7
S315000017200F00BEE80F00ACE80F009EE807008CE84B
S3150000173007000DB0F0BD0F46E7E700BF437B9342BD
S3150000174010B4446852D0B4F840386FF38A23A4F832
S315000017504038B4F840384FF0020C6CF30923A4F873
S315000017604038B4F8423803F4E063B3F5007FF8D1AB
S31500001770022384F8582842730373994215D0052929
S31500001780B4F8403814D06FF38A23A4F84038B4F87C
S31500001790403861F309230A02A4F84038B4F8423805
S315000017A003F4E0639342F9D101735DF8044B70478B
S315000017B06FF38A23A4F84038B4F84038022262F363
S315000017C00923A4F84038B4F8423803F4E063B3F5CB
S315000017D0007FF8D1B4F8403843F48063A4F8403869
S315000017E0B4F842385B05FBD50173DEE7037BC4E73B
S315000017F09DF800C048B102280ED0002322F06042B6
S315000018001A4342EA8C720A607047074B03EA824227
S3150000181042EA8C720A607047002BF6D0012B14BF87
S3150000182000234FF00043E9E70000FC1FF0B54468D1
S31500001830651883B095F82038DB0925D1174602686C
S3150000184001F12003126904EB03111E017B79107B61
S3150000185000933B793A68FFF7CBFFB31DBA7923446F
S315000018608C8862F303048C8007F10C0099182AB166
S3150000187010F8012B03F8012B8B42F9D180230020AD
S3150000188085F8203803B0F0BD4EF6632003B0F0BDF6
S315000018902DE9F04F0C680D6904F5802450342403BB
S315000018A085B0884607464460EFF3108C012181F32A
S315000018B01088934AD8F80030D2F80061C3F10203C9
S315000018C001FA03F326EA0303C2F80031D2F8003125
S315000018D08CF31088D8F80830C361D8F80C30C0F8FB
S315000018E000800026C0E908632B7803763246FFF7AE
S315000018F025FF2B7D2A7BD8F80410DB0043EA420340
S3150000190043F4E073A4F840388B684A68D1F80CC0F9
S31500001910013B013A1B0243EA02730A680CF1FF31EC
S3150000192043EA0133511E027E1343764A02EA01421C
S315000019301343C4F8443832460221FFF7FFFE04F58C
S315000019400073802284F85028314618464FF40072FE
S3150000195000F0FEFE2B69014609E09E4212D3A01953
S315000019600136202E80F8202801F1100118D0A86831
S3150000197000EBC60C4FEAC60E9CF80620002AECD0F7
S315000019800022ECE79CF804309CF805C050F80E20C5
S31500001990287BCDF800C0FFF72BFF2B694022DEE73E
S315000019A09B0800F0A9806A680397A2F1040C002244
S315000019B00CEB830396466FF060494FF00F0B5CF813
S315000019C0041F494502F580760ED295F80CA09000CA
S315000019D0BAF1000F02D14C4F07EA814144F82610B4
S315000019E00BFA00F14EEA010E9C4502F10102E6D126
S315000019F0039F6FEA0E030022C4F8283411463846C6
S31500001A00FFF79CFEB4F8403843F02003A4F84038B2
S31500001A10B4F84038C3F340109B06F9D498F9153052
S31500001A2098F81410DFF8E8C0DFF8E8E0374E0CEB62
S31500001A3003020901C9B282F8001303F1C0054EF88A
S31500001A4023705A0956F82590920060F3104902F166
S31500001A50604246F8259002F56142012503F01F0316
S31500001A6005FA03F3C2F88031136098F91630DFF8EF
S31500001A70A8900CEB030203F1C00A82F800134EF89B
S31500001A8023705A0956F82AB0920002F1604202F514
S31500001A90614260F3104B03F01F0346F82AB005FAC3
S31500001AA003F3C2F88031136098F917209444530960
S31500001AB08CF800134EF8227002F1C0019B0002F070
S31500001AC01F0205FA02F203F1604356F8215003F5AE
S31500001AD0614360F3104546F82150C3F880211A602F
S31500001AE03E2384F84C384FF0FF33C4F82C34C7F843
S31500001AF0089005B0BDE8F08F4FF0FF337BE700BFDD
S31500001B00006F04400000FF030000FC1F006000405F
S31500001B1000E100E00002FE1F4E41435230B58DB099
S31500001B20EFF30383103B5BB22E4AC03352F8231007
S31500001B306FF3104142F82310EFF30383103B5BB2BF
S31500001B40294A52F8235000212C2201A800F000FE59
S31500001B506C6894F84D380020DBB284F84D08ADF877
S31500001B600830B4F84218C1F30012C90638D543F05C
S31500001B702003ADF80830022394F8532884F853382C
S31500001B8094F8523803F01F03D2B2E11884F85328B0
S31500001B9091F8202860F3820281F820282A681268CA
S31500001BA0019201A96A6A049328460692FFF790FDFE
S31500001BB0B4F84238DB0611D52B681A69127D6AB172
S31500001BC093F91530002B09DB5A09084803F01F0367
S31500001BD00121403201FA03F340F822300DB030BD46
S31500001BE01346DBE7006000400002FE1F00E100E054
S31500001BF02DE9F0418CB0EFF30383103B5BB2404A12
S31500001C00C03352F823106FF3104142F82310EFF35C
S31500001C100384103C3B4B66B2002253F82600D0E901
S31500001C2000E595F8533885F8532895F8527807F06B
S31500001C301F07DBB207F1200285F85338130104F0C1
S31500001C40FF0455F803C0CCF380718DF82110E958D4
S31500001C50DEF810301B7B43EAD17303F001038DF8E5
S31500001C602030002B48D1CCF38A4305EB02120793B0
S31500001C709188C1F3030301F00F0108298DF8223082
S31500001C8037D908218DF822100AAA002305EB071878
S31500001C9008EB030C01339CF806C202F801CB8B4219
S31500001CA0F6D3DEF8003004972F440193442387F8D7
S31500001CB020380023099307AB05934FF48063ADF8F2
S31500001CC0083001A9436A0693FFF702FDB5F84238CA
S31500001CD0DB070BD5002E09DB76090B4A04F01F043F
S31500001CE00123403603FA04F442F826400CB0BDE85E
S31500001CF0F0810029C8D1D4E72CF06043B5E700BFD6
S31500001D00006000400002FE1F00E100E070B58CB0EC
S31500001D10EFF30383103B5BB2214AC03352F8231022
S31500001D206FF3104142F82310EFF30383103B1D4A73
S31500001D305BB2012652F823506C6894F8532884F855
S31500001D40536894F85238D2B203F01F0384F853282C
S31500001D500493E2184FF40063ADF808302B681B6853
S31500001D6001936B6A0693002382F8203801A982F852
S31500001D70203828460593FFF7ABFCB4F842389B079A
S31500001D800CD52B6893F91730002B07DB5A09064947
S31500001D9003F01F0340329E4041F822600CB070BD34
S31500001DA0006000400002FE1F00E100E0064B07490C
S31500001DB093F826001A6A51F820300549C2F30262E8
S31500001DC0D3400B60704700BF00E001405400FE1F87
S31500001DD08803FE1F30B4374B374C38493848002249
S31500001DE04AF20355A3F8FE53A4F80021354C4C6083
S31500001DF0354D364C08604FF40040C1E9020493F8B3
S31500001E002640C1E9040551F824001C6A304DC4F38C
S31500001E100264E0400924286083F8132483F8A24072
S31500001E2093F8800418B183F8812483F88024214A2A
S31500001E300620002382F8A50082F8323092F83C3062
S31500001E401807FBD5002342F20170108582F82A306C
S31500001E50184B93F83C209206FBD5174A022082F8CD
S31500001E601C01052083F826001A48186293F82600FC
S31500001E701C6A51F82000C4F3026C20FA0CF02860AA
S31500001E80012140244FF4254083F8301083F8521086
S31500001E9083F8531083F82440A3F8FE03A2F8041134
S31500001EA0B2F804319BB2002BFAD1012330BCA2F860
S31500001EB00031704700E0014000C001405400FE1FA1
S31500001EC0002D310100127A00001C4E0E00366E0104
S31500001ED08803FE1F21120121704700BFA0F10100F7
S31500001EE00028FBD1704700BF30B5144D144A00FBE3
S31500001EF001F14FF47A732868B2FBF0F2A1FB03C438
S31500001F004FF0FF304FF0000E60457EEB040407D320
S31500001F10BCFBF2F0800878B1BDE83040FFF7DEBFC9
S31500001F209200B1FBF2F1A1FB031388427EEB03039F
S31500001F30F2D308460028EFD130BD00BF8803FE1F4C
S31500001F4000CA9A3B0B4B70B5B3F840510A4E0024B9
S31500001F50ADB225FA04F3DB07E0B203D556F8243018
S31500001F6003B198470134102CF3D1024BA3F830513A
S31500001F7070BD00BF00600040BC01FE1F10B4074AE0
S31500001F80074C002303F1C001013332F8020F44F875
S31500001F902100602BF6D15DF8044B7047362900000E
S31500001FA000600040EFF31081012383F31088124B89
S31500001FB033F8102092B22AB133F81020013A92B2C7
S31500001FC023F8102033F810309BB293B90B4A10B4A3
S31500001FD0B2F8FE330A4C9BB234F8100043F42543A2
S31500001FE023EA0003A2F8FE3381F310885DF8044B60
S31500001FF0704781F3108870478003FE1F00E00140A0
S31500002000302A000030B4EFF31081012383F31088E7
S315000020100E4A32F810309BB26BB90D4C0D4DB4F828
S31500002020FE3335F810C09BB243EA0C0343F4254354
S315000020309BB2A4F8FE3332F8103001339BB222F87B
S31500002040103081F3108830BC704700BF8003FE1F3C
S3150000205000E00140302A000000BE704708B500F0DD
S3150000206003F8FEF7F1FDFEE7224B234A4FF4700119
S3150000207070B50020C3F888109A60FEF74DFCFFF794
S31500002080A9FE0120FEF748FC1C4B1D491D4D1E4EA6
S315000020901E481F4A00244FF4254C9C80A3F800C01C
S315000020A09E60DD604FF48055A1F820510121998092
S315000020B0121A214600F04CFB1648174A1749184DCC
S315000020C0121A00F037FB174B5B1BA34206DD9E106E
S315000020D055F8043B01349847A642F9DCFFF766FE43
S315000020E00220FEF719FCFFF749FFBDE8704000200B
S315000020F0FFF7F2BE00ED00E000000000000D00401A
S31500002100006000409007FE1F9003FE1F7000FE1F38
S315000021108C03FE1F0000FE1F5400FE1F3C2A000019
S315000021204C00FE1F5000FE1F70B54FF0FF0C4CF424
S31500002130E06C1CEA11541DBF1CEA135594EA0C0FFF
S3150000214095EA0C0F00F0DEF82C4481EA030621EA3A
S315000021504C5123EA4C5350EA013518BF52EA033575
S3150000216041F4801143F4801338D0A0FB02CE4FF027
S315000021700005E1FB02E506F00042E0FB03E54FF057
S315000021800006E1FB03569CF0000F18BF4EF0010E4F
S31500002190A4F1FF04B6F5007F64F5407404D25FEA4B
S315000021A04E0E6D4146EB060642EAC62141EA5551FE
S315000021B04FEAC52040EA5E504FEACE2EB4F1FD0C40
S315000021C088BFBCF5E06F1ED8BEF1004F08BF5FEABE
S315000021D0500E50F1000041EB045170BD06F0004670
S315000021E046EA010140EA020081EA0301B4EB5C041D
S315000021F0C2BFD4EB0C0541EA045170BD41F4801115
S315000022004FF0000E013C00F3AB8014F1360FDEBF39
S31500002210002001F0004170BDC4F10004203C35DA15
S315000022200C341BDC04F11404C4F1200500FA05F398
S3150000223020FA04F001FA05F240EA020001F0004239
S3150000224021F0004110EBD37021FA04F642EB0601AF
S315000022505EEA430E08BF20EAD37070BDC4F10C04D9
S31500002260C4F1200500FA04F320FA05F001FA04F29D
S3150000227040EA020001F0004110EBD37041F1000189
S315000022805EEA430E08BF20EAD37070BDC4F1200594
S3150000229000FA05F24EEA020E20FA04F301FA05F2FC
S315000022A043EA020321FA04F001F0004121FA04F2A4
S315000022B020EA020000EBD3705EEA430E08BF20EA74
S315000022C0D37070BD94F0000F0FD101F000464000AE
S315000022D041EB010111F4801F08BF013CF7D041EA30
S315000022E0060195F0000F18BF704703F00046520034
S315000022F043EB030313F4801F08BF013DF7D043EA05
S315000023000603704794EA0C0F0CEA135518BF95EABA
S315000023100C0F0CD050EA410618BF52EA4306D1D141
S3150000232081EA030101F000414FF0000070BD50EA60
S31500002330410606BF1046194652EA430619D094EAEA
S315000023400C0F02D150EA013613D195EA0C0F05D1D4
S3150000235052EA03361CBF104619460AD181EA030128
S3150000236001F0004141F0FE4141F470014FF00000E0
S3150000237070BD41F0FE4141F4780170BD81F000412D
S3150000238002E000BF83F0004330B54FEA41044FEA54
S31500002390430594EA050F08BF90EA020F1FBF54EAEF
S315000023A0000C55EA020C7FEA645C7FEA655C00F08B
S315000023B0E2804FEA5454D4EB5555B8BF6D420CDD5C
S315000023C02C4480EA020281EA030382EA000083EADF
S315000023D0010180EA020281EA0303362D88BF30BD7F
S315000023E011F0004F4FEA01314FF4801C4CEA1131D5
S315000023F002D0404261EB410113F0004F4FEA033334
S315000024004CEA133302D0524263EB430394EA050FBE
S3150000241000F0A780A4F10104D5F1200E0DDB02FA2D
S315000024200EFC22FA05F2801841F1000103FA0EF2C1
S31500002430801843FA05F359410EE0A5F120050EF187
S31500002440200E012A03FA0EFC28BF4CF0020C43FAB8
S3150000245005F3C01851EBE37101F0004507D54FF0C5
S31500002460000EDCF1000C7EEB00006EEB0101B1F515
S31500002470801F1BD3B1F5001F0CD349085FEA30005B
S315000024804FEA3C0C04F101044FEA445212F5800F66
S3150000249080F09A80BCF1004F08BF5FEA500C50F103
S315000024A0000041EB045141EA050130BD5FEA4C0CE6
S315000024B0404141EB0101013C28BFB1F5801FE9D243
S315000024C091F0000F04BF01460020B1FA81F308BF66
S315000024D02033A3F10B03B3F120020CDA0C3208DD32
S315000024E002F1140CC2F10C0201FA0CF021FA02F10D
S315000024F00CE002F11402D8BFC2F1200C01FA02F17D
S3150000250020FA0CFCDCBF41EA0C019040E41AA2BFA1
S3150000251001EB0451294330BD6FEA04041F3C1CDA69
S315000025200C340EDC04F11404C4F1200220FA04F089
S3150000253001FA02F340EA030021FA04F345EA030133
S3150000254030BDC4F10C04C4F1200220FA02F001FAF5
S3150000255004F340EA0300294630BD21FA04F0294677
S3150000256030BD94F0000F83F4801306BF81F4801110
S315000025700134013D4EE77FEA645C18BF7FEA655C83
S3150000258029D094EA050F08BF90EA020F05D054EA55
S31500002590000C04BF1946104630BD91EA030F1EBF5A
S315000025A00021002030BD5FEA545C05D1400049415E
S315000025B028BF41F0004130BD14F580043CBF01F551
S315000025C0801130BD01F0004545F0FE4141F4700137
S315000025D04FF0000030BD7FEA645C1ABF1946104612
S315000025E07FEA655C1CBF0B46024650EA013406BF13
S315000025F052EA033591EA030F41F4002130BD00BFD2
S3150000260090F0000F04BF0021704730B54FF480648E
S3150000261004F132044FF000054FF0000150E700BF0F
S3150000262090F0000F04BF0021704730B54FF480646E
S3150000263004F1320410F0004548BF40424FF000015B
S315000026403EE700BF42004FEAE2014FEA31014FEA9E
S3150000265002701FBF12F07F4393F07F4F81F06051ED
S31500002660704732F07F4208BF704793F07F4F04BF38
S3150000267041F40021704730B54FF4607401F0004515
S3150000268021F000411CE700BF50EA010208BF704775
S3150000269030B54FF000050AE050EA010208BF704766
S315000026A030B511F0004502D5404261EB41014FF4CF
S315000026B0806404F132045FEA915C3FF4D8AE4FF0D7
S315000026C003025FEADC0C18BF03325FEADC0C18BFBA
S315000026D0033202EBDC02C2F1200300FA03FC20FA0B
S315000026E002F001FA03FE40EA0E0021FA02F1144458
S315000026F0BDE600BF4A0011D212F5001211D20DD567
S315000027006FF47873B3EB62520ED44FEAC12343F0F1
S31500002710004343EA505323FA02F070474FF000009B
S31500002720704750EA013002D14FF0FF3070474FF04A
S31500002730000070470A44914200F1FF3300D1704710
S3150000274010B511F8014B03F8014F9142F9D110BDB4
S3150000275002440346934200D1704703F8011BF9E790
S315000027604275696C7420776974682052656E65736A
S31500002770617320416476616E63656420466C65789A
S3150000278069626C6520536F6674776172652050616B
S31500002790636B6167652076657273696F6E20332E91
S315000027A0352E3000332E352E300000000000050394
S315000027B0F8B500BFF8BC08BC9E467047F8B500BF28
S315000027C0F8BC08BC9E46704743414E5F414F4B00E4
S315000027D04C01FE1F58280000F829000001000000E7
S315000027E01400FE1F310A000000000000F42700005C
S315000027F00C050607010000004400FE1F2400FE1F12
S3150000280000000000040000000000000000000000BE
S31500002810000000000B0C040003000000DD090000AE
S315000028200000000000000000000200000C000C0187
S315000028300C020C03000000000000000099090000D3
S315000028400000000048280000000100004800FE1FAC
S315000028500F00FFFF000000001B00000060280000C2
S315000028600040000006000000000001000801000012
S315000028700000010009010000000001000A0100003B
S315000028800000010000030000040000000503000032
S315000028900400000006030000040000000703000017
S315000028A00400000008030000040000000903000003
S315000028B0000001040A040000000001040B040000EB
S315000028C0000001030F040000000001100B050000CA
S315000028D0000001100C0500000500000004060000C1
S315000028E005000000050600000500000006060000C1
S315000028F00500000007060000050000000B060000AA
S31500002900050000000C060000050000000D06000092
S31500002910050000000E06000005000000080A000081
S3150000292005000000090A0000050000000A0A000070
S3150000293005000000000B00007401750176017701A7
S315000029400C008F00920093009000910000000000A0
S315000029500000000000000000000000000000000071
S315000029600000000000000000000000000000000061
S315000029700000000000000000000000000000000051
S315000029800000000000000000000000000000000041
S315000029900000000000000000000000000000000031
S315000029A00000000000000000000000000000000021
S315000029B00000000000000000000000000000000011
S315000029C00000000000000000000000000000000001
S315000029D000000000000000000000000000000000F1
S315000029E000000000000000000000000000000000E1
S315000029F00000000000000000291400008D110000F6
S31500002A00411400004D14000041120000991200000C
S31500002A108D12000095110000E11100000112000066
S31500002A202912000071120000B1110000C51100004A
S31100002A3001000200080010000000000079
S31500002A3C009F2400C0F9A4B0999282D88090F9A185
S31500002A4CFFFFFFFF030000000B0000000400000066
S31500002A5C040000000000000000010100010000005D
S31500002A6C000000000200000000000000030000004F
S31500002A7C00000000FFFFFF1F40004000250500007E
S30900002A8C010500003A
S3150100A150FFFFFFFFFFFFFFFFFFFFFFFFFFFFFFFF08
S7050000205D7D
