S00B00005054502E7372656325
S315000000008806FE1FF10D0000D90C0000ED0D000062
S31500000010ED0D0000ED0D0000ED0D0000ED0D0000F2
S31500000020000000000000000000000000ED0D0000D0
S31500000030ED0D000000000000ED0D0000ED0D0000CC
S31500000040B1050000810700006D050000350B0000BA
S31500000050000000000000000000000000000000009A
S31500000060000000000000000000000000000000008A
S31500000070000000000000000000000000000000007A
S31500000080000000000000000000000000000000006A
S31500000400FFFFFFFFFFFDFFFFFCFFFFFFFFFFFFFFFB
S31500000410FCFFFFFFFFFFFFFFFCFFFF00FFFFFF00EA
S31500000420FCFF0F20FFFF0F20FCFF7F40FFFF7F40F8
S31500000430FCFF0D40FFFF0D40FFFFFFFFFFFFFFFF2B
S31500000440FFFFFFFFFFFFFFFFFFFFFFFFFFFFFFFFB6
S31500000450FFFFFFFFFFFFFFFFFFFFFFFFFFFFFFFFA6
S31500000460FFFFFFFFFFFFFFFFFFFFFFFFFFFFFFFF96
S31500000470FFFFFFFFFFFFFFFFFFFFFFFFFFFFFFFF86
S31500000480FFFFFFFFFFFFFFFFFFFFFFFFFFFFFFFF76
S31500000490FFFFFFFFFFFFFFFFFFFFFFFFFFFFFFFF66
S315000004A0FFFFFFFFFFFFFFFFFFFFFFFFFFFFFFFF56
S315000004B0FFFFFFFFFFFFFFFFFFFFFFFFFFFFFFFF46
S315000004C0FFFFFFFFFFFFFFFFFFFFFFFFFFFFFFFF36
S315000004D0FFFFFFFFFFFFFFFFFFFFFFFFFFFFFFFF26
S315000004E0FFFFFFFFFFFFFFFFFFFFFFFFFFFFFFFF16
S315000004F0FFFFFFFFFFFFFFFFFFFFFFFFFFFFFFFF06
S3150000050010B5054C237833B9044B13B10448AFF347
S3150000051000800123237010BD8800FE1F000000002C
S31500000520A811000008B5034B1BB103490348AFF3FC
S31500000530008008BD000000008C00FE1FA81100000E
S31500000540002000F0BBBC00BF022800D07047024B61
S315000005500248596800F088BA14100000A400FE1F73
S3150000056008B5FFF7EDFF002008BD00BF10B582B04B
S31500000570EFF30384103C64B20B4B53F82430D3E9F9
S315000005800123916A9162D3E908320091019268468B
S315000005909847C034054B53F824206FF3104243F8B4
S315000005A0242002B010BD00BFF000FE1F0060004016
S315000005B02DE9F04F89B0EFF303856D4B103D1A68B6
S315000005C001926DB26B4AD3F8409052F825A06A4A60
S315000005D0D2F800800022CDE90222CDE90422CDE93D
S315000005E00622B9F1000F12D04F460126B7FA87F45A
S315000005F0DAF81420C4F11F04A4F18001526F8DF8BB
S31500000600081002A806FA04F49047A743EED1B8F101
S31500000610000F10D047460126DAF81420B7FA87F4FF
S31500000620C4F11F048DF80840526F02A806FA04F4BC
S315000006309047A743F0D1019B5FEA134B12D01427D2
S315000006400126DAF814208DF80870BBFA8BF4C4F191
S315000006501F040694526F02A806FA04F490473BEA78
S31500000660040BEED119F0100F25D0414A0121C2F832
S315000006704011D2F840110029FBD172B6D2F810020F
S31500000680D2F81432D2F81872D2F8D012D2F8D46254
S31500000690D2F8D84220F0004021F00041C2F82801EB
S315000006A0C2F82C31C2F83071C2F83411C2F8386180
S315000006B0C2F83C4162B618F0010F04D02C4AD2F8B9
S315000006C0801000293FD018F0020F28D0DAF8143035
S315000006D01A69294BD3F8C40040F3072006280346BD
S315000006E0A8BF06235BB26FF006019942B8BF194650
S315000006F04FF474730028A2FB033232DB1F4800FA62
S3150000070001F15B1842F10002002A19481A494FF01C
S31500000710FF3208BF1A4602238265C1F88030144BA7
S31500000720019A1A60144AC3F84090C035A3F5BE2357
S31500000730C2F8008053F825206FF3104243F82520B5
S3150000074009B0BDE8F08FDAF814100120C2F8800075
S3150000075091F83C10814249F00A0908BFC2F82411F9
S31500000760B1E706484942C9B220FA01F1C9E700BF1C
S3150000077000500640F000FE1F00580640B2E60E008C
S3150000078010B586B0EFF30383103B5BB203F1C001F3
S315000007900C4A0D4C52F8210054F823306FF31040E8
S315000007A042F821005A69152100230093CDE901334F
S315000007B0CDE90333526F05938DF8001068469047D4
S315000007C006B010BD00600040F000FE1F002303606D
S315000007D0184670470B0A1B01044853FA81F150F87A
S315000007E02130C3F340030020137070470008044013
S315000007F0090A490101F1804101F5802100204B6879
S3150000080013807047090A490101F1804123EA020079
S3150000081001F580211A4042EA00428A6000207047B2
S31500000820C8B2012383404AB91A040B0A5B0103F1DB
S31500000830804303F5802300209A6070479AB2F4E75C
S31500000840090A490101F1804101F5802110B40C68C3
S3150000085002EA0300204362EA030202405DF8044B09
S315000008600A600020704700BF090A490101F1804172
S3150000087001F5802100204B68C3F30F4313807047B6
S3150000088010B40B0A5B0103F1804303F58023C8B261
S315000008905C68012181408BB201EA1441C91AB1FAA0
S315000008A081F1490900205DF8044B1170704700BFC3
S315000008B0090A490101F1804123EA020001F580217C
S315000008C01A4042EA0042CA6000207047014B0020ED
S315000008D01A707047000D04400B0A5B0103F1804358
S315000008E0012A03F580230AD0D868C9B24FF48032B2
S315000008F08A400243120C1204DA6000207047C8B224
S31500000900D96882400A4392B2DA600020704700BF7D
S3150000091038B50488002C4DD043680021043303EB1E
S31500000920C40040F202450C4640F2034C40F2044E2D
S315000009300FE0624530D153F8042C02F0B852B2F100
S31500000940807F14BF41F0020144F002040833834261
S3150000095011D01A88AA42ECD153F8042C02F0B852EE
S31500000960B2F1807F03F1080314BF41F0010144F0A6
S3150000097001048342EDD1C943CDB2012000F00CFA47
S315000009800D4B93F8BB2414432C4083F8BB44012041
S31500000990BDE8384000F0D0B97245D7D153F8042CE1
S315000009A002F0B852B2F1807F0CBF44F0040441F06B
S315000009B00401CBE7FF25E0E700E00140F8B5044677
S315000009C0FFF7A6FFEFF31082012383F31088234E6F
S315000009D033681BB92249CB704023CB70336801338F
S315000009E0336082F3108825882DB362681D4C013D63
S315000009F0ADB202F1080101EBC50500E0083110684F
S31500000A00928810F4803F4FEA12235FFA82FC0CEBC7
S31500000A10031E09D054F82E7020F480326FF310476D
S31500000A2044F82E7044F82E201B0163448D4244F88E
S31500000A3023000A46E2D1EFF31082012383F31088E4
S31500000A40336813B13368013B336033681BB904491B
S31500000A508020CB70C87082F31088F8BDEC00FE1FB2
S31500000A60000D04400008044008B50346034A1A6016
S31500000A700846FFF7A3FF002008BD00BF54524F50A1
S31500000A8008B50846FFF79AFF002008BD70B584B088
S31500000A9002AB012668460C461546ADF80C100292CC
S31500000AA0ADF800600193FFF733FFEFF3108286F392
S31500000AB010881D490B681BB91C48C3704023C370BE
S31500000AC00B6801330B6082F31088EA034FEA1423A4
S31500000AD0E4B219D41B01164A234442F82350EFF31B
S31500000AE01082012383F310880B6813B10B68013B56
S31500000AF00B600B681BB90D498020CB70C87082F360
S31500000B001088002004B070BD04EB0310084A52F8A8
S31500000B1020606FF3104642F8206025F4803642F8D4
S31500000B2020601B01D7E700BFEC00FE1F000D04404C
S31500000B300008044010B586B0EFF30383103B184A53
S31500000B405BB252F82330D3E9044120698A6A12F471
S31500000B50800F07D010F0020F1CBF4FF0010C83F876
S31500000B601AC020615B688A62196B51B11C780194C6
S31500000B709B6B05930324CDE903028DF8084001A879
S31500000B808847EFF30383103B5BB2064AC03352F843
S31500000B9023106FF3104142F8231006B010BD00BFBA
S31500000BA0F000FE1F00600040064B074993F8260040
S31500000BB01A6A51F820300549C2F30262D3400B602D
S31500000BC0704700BF00E001406C00FE1F7802FE1F68
S31500000BD030B4374B374C3849384800224AF203556F
S31500000BE0A3F8FE53A4F80021354C4C60354D364C25
S31500000BF008604FF40040C1E9020493F82640C1E9B9
S31500000C00040551F824001C6A304DC4F30264E04028
S31500000C100924286083F8132483F8A24093F88004FB
S31500000C2018B183F8812483F88024214A0620002302
S31500000C3082F8A50082F8323092F83C301807FBD5CE
S31500000C40002342F20170108582F82A30184B93F87F
S31500000C503C209206FBD5174A022082F81C0105208B
S31500000C6083F826001A48186293F826001C6A51F881
S31500000C702000C4F3026C20FA0CF028600121402405
S31500000C804FF4254083F8301083F8521083F8531040
S31500000C9083F82440A3F8FE03A2F80411B2F8043145
S31500000CA09BB2002BFAD1012330BCA2F80031704769
S31500000CB000E0014000C001406C00FE1F002D310124
S31500000CC000127A00001C4E0E00366E017802FE1FDE
S31500000CD021120121704700BF0B4B70B5B3F840518C
S31500000CE00A4E0024ADB225FA04F3DB07E0B203D5C1
S31500000CF056F8243003B198470134102CF3D1024B37
S31500000D00A3F8305170BD00BF00600040AC00FE1F6C
S31500000D1010B4074A074C002303F1C001013332F82F
S31500000D20020F44F82100602BF6D15DF8044B7047A2
S31500000D304610000000600040EFF31081012383F3AA
S31500000D401088124B33F8102092B22AB133F81020D3
S31500000D50013A92B223F8102033F810309BB293B9BF
S31500000D600B4A10B4B2F8FE330A4C9BB234F81000AA
S31500000D7043F4254323EA0003A2F8FE3381F31088E7
S31500000D805DF8044B704781F3108870477002FE1FB0
S31500000D9000E001404011000030B4EFF31081012360
S31500000DA083F310880E4A32F810309BB26BB90D4CA3
S31500000DB00D4DB4F8FE3335F810C09BB243EA0C0370
S31500000DC043F425439BB2A4F8FE3332F810300133C6
S31500000DD09BB222F8103081F3108830BC704700BFF8
S31500000DE07002FE1F00E001404011000000BE704787
S31500000DF008B500F003F8FFF7B3FBFEE7224B234AE2
S31500000E004FF4700170B50020C3F888109A60FFF7A0
S31500000E109BFBFFF7DDFE0120FFF796FB1C4B1D49F0
S31500000E201D4D1E4E1E481F4A00244FF4254C9C8023
S31500000E30A3F800C09E60DD604FF48055A1F82051F4
S31500000E4001219980121A214600F04EF81648174AD9
S31500000E501749184D121A00F039F8174B5B1BA342BD
S31500000E6006DD9E1055F8043B01349847A642F9DC8E
S31500000E70FFF79AFE0220FFF767FBFFF749FFBDE881
S31500000E8070400020FFF726BF00ED00E000000000E4
S31500000E90000D0040006000408806FE1F8802FE1F0D
S31500000EA08800FE1F8402FE1F0000FE1F6C00FE1F4E
S31500000EB0AC1100006400FE1F6800FE1F024B0146D5
S31500000EC0186800F019B800BF0000FE1F0A449142DE
S31500000ED000F1FF3300D1704710B511F8014B03F84C
S31500000EE0014F9142F9D110BD02440346934200D10D
S31500000EF0704703F8011BF9E737B5002944D051F8CC
S31500000F00043C0190002BA1F10404B8BFE41800F0E2
S31500000F103FF81E4A0198136833B96360146003B042
S31500000F20BDE8304000F03AB8A34208D925686119F7
S31500000F308B4201BF19685B6849192160EDE71A46C3
S31500000F405B680BB1A342FAD911685518A5420BD1BB
S31500000F50246821445418A3421160E0D11C685B68E0
S31500000F60536021441160DAE702D90C230360D6E707
S31500000F70256861198B4204BF19685B68636004BF0A
S31500000F80491921605460CAE703B030BD7C02FE1FD8
S31500000F90014800F009B800BF8002FE1F014800F0BA
S31500000FA004B800BF8002FE1F704770474275696C27
S31500000FB07420776974682052656E65736173204189
S31500000FC06476616E63656420466C657869626C65FB
S31500000FD020536F667477617265205061636B616739
S31500000FE0652076657273696F6E20332E352E30005C
S31500000FF0332E352E3000000000000503F8B500BF83
S31500001000F8BC08BC9E467047F8B500BFF8BC08BCE3
S315000010109E467047A400FE1F201000000811000025
S315000010200400000028100000000001000801000074
S315000010300000010009010000000001000A01000093
S31500001040000001000003000061016001620163010C
S31500001050000000000000000000000000000000008A
S31500001060000000000000000000000000000000007A
S31500001070000000000000000000000000000000006A
S31500001080000000000000000000000000000000005A
S31500001090000000000000000000000000000000004A
S315000010A0000000000000000000000000000000003A
S315000010B0000000000000000000000000000000002A
S315000010C0000000000000000000000000000000001A
S315000010D0000000000000000000000000000000000A
S315000010E000000000000000000000000000000000FA
S315000010F000000000000000000000000000000000EA
S315000011000000000000000000690A0000CD07000092
S31500001110810A00008D0A000081080000D90800003D
S31500001120CD080000D5070000210800004108000096
S3150000113069080000B1080000F1070000050800007A
S31500001140010002000800100000000000000000007E
S315000011500000000000000000000000000000000089
S315000011600000000000000000000000000000000079
S315000011700000000000000000000000000000000069
S315000011800000000000000000000000000000000059
S315000011900000000000000000000000000000000049
S311000011A00000000000000000000000003D
S315000011AC0400FE1F000000006811000088110000FA
S315000011BC48110000000000000000000000000000C4
S315000011CC000000000000000000000000000000000D
S315000011DC00000000000000000000000000000000FD
S315000011EC00000000000000000000000000000000ED
S315000011FC00000000000000000000000000000000DD
S3110000120C000000002505000001050000A0
S3150100A150FFFFFFFFFFFFFFFFFFFFFFFFFFFFFFFF08
S70500000DF1FC
