S01E00005241364D335F45746865726E65745F50726F6A6563742E73726563E9
S31500000000601EFE1FE5190000CD180000E119000072
S31500000010E1190000E1190000E1190000E1190000F2
S31500000020000000000000000000000000E1190000D0
S31500000030E119000000000000E1190000E1190000CC
S31500000040C1160000C90A0000C90A0000000000002D
S31500000050000000000000000000000000000000009A
S31500000060000000000000000000000000000000008A
S31500000070000000000000000000000000000000007A
S31500000080000000000000000000000000000000006A
S31500000400FFFFFFFFFFFDFFFFFCFFFFFFFFFFFFFFFB
S31500000410FCFFFFFFFFFFFFFFFCFFFF00FFFFFF00EA
S31500000420FCFF0F20FFFF0F20FCFF7F40FFFF7F40F8
S31500000430FCFF0D40FFFF0D40FFFFFFFFFFFFFFFF2B
S31500000440FFFFFFFFFFFFFFFFFFFFFFFFFFFFFFFFB6
S31500000450FFFFFFFFFFFFFFFFFFFFFFFFFFFFFFFFA6
S31500000460FFFFFFFFFFFFFFFFFFFFFFFFFFFFFFFF96
S31500000470FFFFFFFFFFFFFFFFFFFFFFFFFFFFFFFF86
S31500000480FFFFFFFFFFFFFFFFFFFFFFFFFFFFFFFF76
S31500000490FFFFFFFFFFFFFFFFFFFFFFFFFFFFFFFF66
S315000004A0FFFFFFFFFFFFFFFFFFFFFFFFFFFFFFFF56
S315000004B0FFFFFFFFFFFFFFFFFFFFFFFFFFFFFFFF46
S315000004C0FFFFFFFFFFFFFFFFFFFFFFFFFFFFFFFF36
S315000004D0FFFFFFFFFFFFFFFFFFFFFFFFFFFFFFFF26
S315000004E0FFFFFFFFFFFFFFFFFFFFFFFFFFFFFFFF16
S315000004F0FFFFFFFFFFFFFFFFFFFFFFFFFFFFFFFF06
S3150000050010B5054C237833B9044B13B10448AFF347
S3150000051000800123237010BD4000FE1F0000000074
S31500000520C01D000008B5034B1BB103490348AFF3D8
S31500000530008008BD000000004400FE1FC01D000032
S3150000054038B50A4D0A4C0B49284600F05DFA0A49AF
S31500000550204600F059FA284600F096FA204600F0A8
S3150000056093FABDE8384000F009B800BF7018FE1FC6
S315000005708018FE1FC41B0000D81B000038B50F49A9
S315000005800F480F4D00F0A2FD0E4B1A6B6FF355523C
S315000005901A63284600F094FF04460028F9D1014664
S315000005A040F2DA52084801F091FA22460748BDE8BF
S315000005B0384040F6082100F09DB800BF601B0000DF
S315000005C0200CFE1F004006405C00FE1F180CFE1F9C
S315000005D00B4B02681A6082889A800A68C3F8062064
S315000005E088885881812100224FF0030C197330202E
S315000005F008215A7383F80EC0D87319745A74704759
S315000006003C06FE1F00B50A4B93E8030085B008338D
S315000006100090ADF8041093E803000290ADF80C10BA
S31500000620FFF78EFF02A96846FFF7D2FFFEE700BF7D
S31500000630441B000008B543680B2B00D008BD0549D4
S315000006400548592200F0F0FDBDE808400121602070
S3150000065001F00EB93C06FE1F200CFE1F0379032B8A
S3150000066000D07047024A0349034800F0BFBF00BFED
S315000006703806FE1F5C00FE1F200CFE1F022800D05D
S315000006807047024B0248596800F058B9541B0000E5
S31500000690180CFE1F08B5FFF7B5FF002008BD00BF08
S315000006A000230360184670470B0A1B01044853FADF
S315000006B081F150F82130C3F34003002013707047D6
S315000006C000080440090A490101F1804101F5802131
S315000006D000204B6813807047090A490101F18041E7
S315000006E023EA020001F580211A4042EA00428A60AC
S315000006F000207047C8B2012383404AB91A040B0A86
S315000007005B0103F1804303F5802300209A60704764
S315000007109AB2F4E7090A490101F1804101F5802105
S3150000072010B40C6802EA0300204362EA03020240A6
S315000007305DF8044B0A600020704700BF090A4901B2
S3150000074001F1804101F5802100204B68C3F30F437E
S315000007501380704710B40B0A5B0103F1804303F565
S315000007608023C8B25C68012181408BB201EA144142
S31500000770C91AB1FA81F1490900205DF8044B1170DC
S31500000780704700BF090A490101F1804123EA0200CE
S3150000079001F580211A4042EA0042CA6000207047F3
S315000007A0014B00201A707047000D04400B0A5B01D4
S315000007B003F18043012A03F580230AD0D868C9B221
S315000007C04FF480328A400243120C1204DA60002091
S315000007D07047C8B2D96882400A4392B2DA600020F4
S315000007E0704700BF38B50488002C4DD043680021FF
S315000007F0043303EBC40040F202450C4640F2034CBE
S3150000080040F2044E0FE0624530D153F8042C02F05A
S31500000810B852B2F1807F14BF41F0020144F00204E5
S315000008200833834211D01A88AA42ECD153F8042C1B
S3150000083002F0B852B2F1807F03F1080314BF41F011
S31500000840010144F001048342EDD1C943CDB2012038
S3150000085001F09CF80D4B93F8BB2414432C4083F80D
S31500000860BB440120BDE8384001F060B87245D7D1DD
S3150000087053F8042C02F0B852B2F1807F0CBF44F05A
S31500000880040441F00401CBE7FF25E0E700E0014066
S31500000890F8B50446FFF7A6FFEFF31082012383F3B2
S315000008A01088234E33681BB92249CB704023CB7086
S315000008B033680133336082F3108825882DB362686C
S315000008C01D4C013DADB202F1080101EBC50500E08A
S315000008D008311068928810F4803F4FEA12235FFABD
S315000008E082FC0CEB031E09D054F82E7020F48032E3
S315000008F06FF3104744F82E7044F82E201B01634412
S315000009008D4244F823000A46E2D1EFF31082012318
S3150000091083F31088336813B13368013B336033685F
S315000009201BB904498020CB70C87082F31088F8BDCB
S31500000930D018FE1F000D04400008044008B5034609
S31500000940034A1A600846FFF7A3FF002008BD00BF50
S3150000095054524F5008B50846FFF79AFF002008BDCD
S3150000096070B584B002AB012668460C461546ADF854
S315000009700C100292ADF800600193FFF733FFEFF31E
S31500000980108286F310881D490B681BB91C48C3707A
S315000009904023C3700B6801330B6082F31088EA03AF
S315000009A04FEA1423E4B219D41B01164A234442F831
S315000009B02350EFF31082012383F310880B6813B1E1
S315000009C00B68013B0B600B681BB90D498020CB708F
S315000009D0C87082F31088002004B070BD04EB0310C9
S315000009E0084A52F820606FF3104642F8206025F45A
S315000009F0803642F820601B01D7E700BFD018FE1FE3
S31500000A00000D044000080440F0B591F902C080F8DA
S31500000A1004C04FEA8C03D1E9026403F1804303F575
S31500000A20C0430022D3F80053C3F80023C0E9026490
S31500000A30124C91F800E080F805E004F80E200F79DA
S31500000A40CA784E7942EA071242EAC612D2B2BCF11D
S31500000A50000F04F80E20C3F800530BDB4B7808494F
S31500000A600CF160421B0102F56142DBB282F80033F1
S31500000A7041F82C00034B03600020F0BD00600040ED
S31500000A80D418FE1F5543490010B490F904200D4BAD
S31500000A9002F1C000012153F820406FF3104443F8DF
S31500000AA0204053099B0003F1604303F5614302F0C4
S31500000AB01F0201FA02F2C3F8802100205DF8044B00
S31500000AC01A6070470060004010B582B0EFF30384EF
S31500000AD0103C164B164964B253F8242050790B5C2F
S31500000AE003F00303032B0FD0C03451F824306FF307
S31500000AF0104341F82430936823B1D268CDE9002031
S31500000B006846984702B010BD936823B1D268CDE914
S31500000B10002068469847064BC03453F824206FF3EC
S31500000B20104243F8242002B010BD00BFD418FE1FA7
S31500000B30006000400023C0E90233436003601846AA
S31500000B40704700BF8368002B18DD0222013B0A6054
S31500000B50FCD18368002B11DD0322013B0A60FCD126
S31500000B608368002B0ADD0322013B0A60FCD18368FF
S31500000B70002B03DD0222013B0A60FCD1704700BF57
S31500000B808368002B18DD0622013B0A60FCD18368CE
S31500000B90002B11DD0722013B0A60FCD18368002B84
S31500000BA00ADD0722013B0A60FCD18368002B03DDC6
S31500000BB00622013B0A60FCD1704700BF8368002B08
S31500000BC017DD0022013B0A60FCD18368002B10DD93
S31500000BD00122013B0A60FCD18368002B09DD01225A
S31500000BE0013B0A60FCD18268002A02DD013A0B60F3
S31500000BF0FCD1704770B505460E462024013CD5E968
S31500000C000101A4B2FFF7BCFF002CF7D16868437856
S31500000C10B40044EAC3140E2644F4C04406E0FFF7C9
S31500000C2091FF013E4FEA440409D06868A96823048D
S31500000C30F5D5FFF7A5FF013E4FEA4404F5D1D5E906
S31500000C400101FFF7BBFFD5E901014FF0100C344657
S31500000C5001228368002B20DD013B0C60FCD18368F8
S31500000C60002B1ADD013B0A60FCD10D688368C5F3D1
S31500000C70C005002B45EA460608DD013B0A60FCD1AB
S31500000C808368002B02DD013B0C60FCD1BCF1010C3A
S31500000C90DFD1FFF793FF304670BD0B68BCF1010C46
S31500000CA0C3F3C00343EA4606D3D1F2E7F8B50446D8
S31500000CB00E4601211F461546FFF79CFF01212046DF
S31500000CC0FFF798FF430735D5E368590504D52B6828
S31500000CD043F002032B60E3681A0522D4830626D567
S31500000CE020460521FFF786FF450544BF02233B60EA
S31500000CF0040503D53B6843F001033B60810644BF0E
S31500000D0001233360420644BF02233360030644BF17
S31500000D100323336010F4807002D004233360002074
S31500000D20F8BD2B6843F001032B608306D8D441F24B
S31500000D308930F8BD41F28830F8BD00BF10B50121F9
S31500000D400446FFF757FF01212046FFF753FF41F204
S31500000D50883310F0040F0CBF1846002010BD00BFEA
S31500000D60F8B505460F4616462024013CD5E9010193
S31500000D70A4B2FFF705FF002CF7D16868BC004778DE
S31500000D8044EAC71444F4A0440E2706E0FFF7DAFE4F
S31500000D90013F4FEA440409D06868A9682204F5D5E2
S31500000DA0FFF7EEFE013F4FEA4404F5D1D5E9010114
S31500000DB0FFF7E6FED5E90101FFF7C4FE102405E0C2
S31500000DC0FFF7C0FE013C4FEA460609D03304D5E9D9
S31500000DD00101F5D5FFF7D4FE013C4FEA4606F5D1F1
S31500000DE0D5E90101BDE8F840FFF7E8BE10B5416856
S31500000DF0097B40F6E15340F2E112002918BF1A467A
S31500000E000446C2600421FFF7ABFF4FF49052204620
S31500000E100021FFF7A5FF04212046FFF7EBFE002087
S31500000E2010BD00BF704700BFF8B50A78164B416089
S31500000E30920213440025C0E902354B7BAB42134BAB
S31500000E400CBF10222A460F461A7029464FF400425C
S31500000E500646FFF785FF01E0AB4212D90021304676
S31500000E60FFF7C8FE10F400447B6805F10105F3D1D5
S31500000E70AB4206D93046FFF7D5FF054B3360204617
S31500000E80F8BD14242046F8BD20410640000D04405C
S31500000E90594850522DE9F04142680546506B6F693A
S31500000EA084680068D4F80C802C6984B00023CDE9EE
S31500000EB0013303930E4603AB02AA01A9C04738B912
S31500000EC0019B013B032B03D8DFE803F02F3A4F07C2
S31500000ED040F6A17004B0BDE8F081236843F0020338
S31500000EE02360236843F004032360002E32D16A682E
S31500000EF01379012B44D023686FF3104323602368D2
S31500000F006FF3514323602368D27862F300032360B2
S31500000F10236843F0400323602368012243F0200343
S31500000F2023603A6104B0BDE8F08123686FF34103A2
S31500000F30236023686FF3820323605EB96A68DAE789
S31500000F40236843F00203236023686FF38203236060
S31500000F50002ECCD0236843F400732360236843F04B
S31500000F604003236004B0BDE8F08123686FF34103BA
S31500000F702360236843F004032360002EDED0E9E7F4
S31500000F8000214FF6FF736365616639672368194D63
S31500000F9043F400232360029B9E00039B06F00C068D
S31500000FA003F003031E438C460C2303E015F8043CB0
S31500000FB015F803CC3340634505F104050ED0013125
S31500000FC00829F3D1002321686FF310412160012B1A
S31500000FD0236895D143F40033236094E7064B03EB73
S31500000FE081018D78CB78012DEDD1216841F48031D6
S31500000FF02160ECE79C1D0000981D0000F8B54268D2
S31500001000066992F928304769002B044610DB5A0915
S315000010101D482032012103F01F0301FA03F340F8B3
S315000010202230BFF34F8FBFF36F8F626892F928307B
S31500001030526B1649002541F82350936810685B6887
S315000010409847B36965F38203B3613B6B65F39653C7
S315000010503B633560A561EFF31080012383F31088AD
S3150000106061680B4A0978C1F10F018B40D2F8001173
S315000010700B43C2F80031D2F8003180F31088C4E97E
S3150000108000552846F8BD00BF00E100E0D418FE1F59
S31500001090006F04404368196AB9B170B55A780546BD
S315000010A08AB91E7F5A7F164466B1B600002401E055
S315000010B06B68196A08595A6A0021043400F006FD63
S315000010C0A642F5D170BD5E7FEEE770472DE9F0418F
S315000010D00A784160970202F1401202F5C062A7F158
S315000010E0BF271602A7F57907C0E904760B4600214B
S315000010F081615A7F04461201586900F0E7FC636873
S315000011001A7F98690021120100F0E0FC2046FFF7E3
S31500001110C1FFEFF310804FF0010888F31088636871
S315000011203A4A1B78D2F80011C3F10F0308FA03F309
S3150000113021EA0303C2F80031D2F8003180F31088A7
S31500001140626933491368334843EA080313600B683E
S31500001150B0FBF3F04146404400F08AFB62686369E5
S315000011609068996F60F3050199675079996F60F3FC
S3150000117011419967536B9A68D3E900011268904749
S315000011800546002837D163685B6B9A6818689368D0
S315000011909847214B37223A61B362336B43F480039D
S315000011A03363626892F92830D26A03F1604101F52F
S315000011B061411201D2B281F80023184A184942F857
S315000011C0234003F1C0005A0951F82060920002F151
S315000011D0604202F5614265F3104603F01F0341F8D1
S315000011E0206008FA03F3C2F8803113600D4B2360C8
S315000011F02846BDE8F08141F2883240F6A573904258
S3150000120008BF1D462846BDE8F08100BF006F0440B8
S315000012105C1AFE1F00E1F5059F0FFF47D418FE1F5D
S315000012200060004045485445F8B5C37E012B30D1D7
S3150000123003691B689B05044628D4406843780E461C
S3150000124015465BB9E3681F68002F27DB406A8242B8
S3150000125024D8986800F02CFC63685B786169012BE0
S31500001260E368AAB2DA801A6808BF9E6022F040528C
S315000012701A601A68D86842F030421A608B68E060DB
S31500001280012B09D001238B600020F8BD40F6A27027
S31500001290F8BD40F6A170F8BD0020F8BD40F6A37079
S315000012A0F8BD00BFC37E012B1FD103691B689B05D8
S315000012B018D483681A68002A1CDB10B4114A1C680B
S315000012C0D96822401A601A6842F000421A604369DF
S315000012D081601A69012A0BD001221A6100205DF88B
S315000012E0044B704740F6A270704740F6A1707047F5
S315000012F00020F4E743691A69012A1CBF01221A611A
S315000013000020704760FCFFC72DE9F04F83B0074609
S31500001310406901920368D7F8108043F00103036027
S31500001320654B66481B68B0FBF3F00D4601300121A2
S3150000133000F09EFA7E687C69B268A36F62F30503CB
S31500001340A3677279A36F62F31143A367AB882A6818
S315000013505BBA12BA9BB2C8F8C020C8F8C830717F11
S31500001360002900F09C80D6F81490356AB6F82480DF
S315000013704B46284609EB011E4FF0000C4FF0004A81
S315000013808B4607E0016891607345C2F800A000F142
S3150000139004000DD01A46A3F80680A3F804C0103343
S315000013A0D360002DEED17345956000F10400F1D1B4
S315000013B00BF1FF33180109EB031359F8002042F033
S315000013C0804249F80020C3F80C90C7F808905946A7
S315000013D096F81CB0BBF1000F6BD096F80180D6F8DA
S315000013E018A042468900A04653460AEB0B1E012070
S315000013F000251446D8809C469D8043F8105B002249
S31500001400CCF80C3014B9326A02B15258CCF8082024
S31500001410734501F10401EDD10BF1FF3344460AEBAC
S3150000142003131A68C3F80CA042F080421A60C7F88A
S315000014300CA0019A3B69012A28D0226B42F4800253
S315000014402263226B42F480222263226B42F4001252
S31500001450226340F2EE51F268996014211965DA664A
S31500001460236843F040032360C4F82090C4F818A012
S31500001470B37803B18023A363002140F20F720123E6
S31500001480A1642265A36503B0BDE8F08F9A6942F0B6
S3150000149002029A61226B42F480022263D9E796F82F
S315000014A01CB0D7F80890BBF1000F96D1D7F80CA066
S315000014B0BFE7D6F818A0B4E75C1AFE1F00E1F505F1
S315000014C0F0B5837E012B87B0044620D14668002202
S315000014D08276336B33B1317801918DF8082001A8FB
S315000014E098476668237E8DF803302046FFF786FD11
S315000014F0054610B1284607B0F0BD31462046FFF735
S31500001500E5FD05460028F5D19DF80330237663688E
S315000015105B6B9A6818681369984741F2883398425A
S31500001520237E54D0002B30D1012323760026636816
S3150000153066765A7F58693146120100F0C7FA636829
S315000015401A7F98693146120100F0C0FA2046FFF76B
S31500001550A1FD01276368E776196932462046FFF741
S31500001560D3FE31462046FFF795FC0546002838D1C4
S3150000157063681A6B002ABDD019789B6B01918DF8B0
S315000015800870059301A89047B4E70025637E022BF7
S31500001590CCD0012BAED1226900236376116863F3A8
S315000015A086111160116863F3451111606268E37674
S315000015B0136B002B9ED01078926B0190022101A82C
S315000015C08DF8081005929847284607B0F0BD012B04
S315000015D002D040F6A175D9E70023237640F6A1751F
S315000015E0D9E70223E676637684E700BF2DE9F0416A
S315000015F090F81BC0BCF1010F37D10546006903689E
S315000016009E052DD48E46AB682C4917461C68002CC7
S3150000161021DB6E68B47814B91A6814063CD41C68C9
S3150000162014F0006426D00468A20519D41A68002AAA
S3150000163008DB1A680A401A601A6842F000421A600B
S31500001640DB68AB606A691469012CDFD0C2F810C090
S315000016501C68002CDDDA4FF47A642046BDE8F08180
S3150000166040F6A2742046BDE8F08140F6A1742046FB
S31500001670BDE8F081B3F80480727912FA88F8B8F1FF
S31500001680000FE8D0727899687AB1CEF80010C7F8E2
S3150000169000802046BDE8F0812846FFF703FE40F6AD
S315000016A0A474002818BF0446DCE77046424600F0E2
S315000016B0FFF92846FFF7F6FD0446E8E760FCFFC79A
S315000016C010B586B0EFF30383103B184A5BB252F8AD
S315000016D02330D3E9044120698A6A12F4800F07D0C7
S315000016E010F0020F1CBF4FF0010C83F81AC02061E6
S315000016F05B688A62196B51B11C7801949B6B0593E8
S315000017000324CDE903028DF8084001A88847EFF3CA
S315000017100383103B5BB2064AC03352F823106FF3C3
S31500001720104142F8231006B010BD00BFD418FE1FAA
S3150000173000600040064B074993F826001A6A51F8E4
S3150000174020300549C2F30262D3400B60704700BFE8
S3150000175000E001401800FE1F5C1AFE1F30B4374B34
S31500001760374C3849384800224AF20355A3F8FE534D
S31500001770A4F80021354C4C60354D364C08604FF4CA
S315000017800040C1E9020493F82640C1E9040551F876
S3150000179024001C6A304DC4F30264E040092428602A
S315000017A083F8132483F8A24093F8800418B183F8D1
S315000017B0812483F88024214A0620002382F8A5008C
S315000017C082F8323092F83C301807FBD5002342F2FB
S315000017D00170108582F82A30184B93F83C20920647
S315000017E0FBD5174A022082F81C01052083F8260043
S315000017F01A48186293F826001C6A51F82000C4F3B0
S31500001800026C20FA0CF02860012140244FF4254098
S3150000181083F8301083F8521083F8531083F824406D
S31500001820A3F8FE03A2F80411B2F804319BB2002B10
S31500001830FAD1012330BCA2F80031704700E0014024
S3150000184000C001401800FE1F002D310100127A0071
S31500001850001C4E0E00366E015C1AFE1F211201217D
S31500001860704700BFA0F101000028FBD1704700BF00
S3150000187030B5144D144A00FB01F14FF47A73286811
S31500001880B2FBF0F2A1FB03C44FF0FF304FF0000EA5
S3150000189060457EEB040407D3BCFBF2F0800878B108
S315000018A0BDE83040FFF7DEBF9200B1FBF2F1A1FBCD
S315000018B0031388427EEB0303F2D308460028EFD1D8
S315000018C030BD00BF5C1AFE1F00CA9A3B0B4B70B5B9
S315000018D0B3F840510A4E0024ADB225FA04F3DB07F3
S315000018E0E0B203D556F8243003B198470134102CE2
S315000018F0F3D1024BA3F8305170BD00BF0060004029
S315000019009018FE1F10B4074A074C002303F1C001CC
S31500001910013332F8020F44F82100602BF6D15DF84E
S31500001920044B70478A1C000000600040EFF31081F2
S31500001930012383F31088124B33F8102092B22AB198
S3150000194033F81020013A92B223F8102033F8103001
S315000019509BB293B90B4A10B4B2F8FE330A4C9BB251
S3150000196034F8100043F4254323EA0003A2F8FE33BB
S3150000197081F310885DF8044B704781F31088704737
S31500001980541AFE1F00E00140B81D000030B4EFF30A
S315000019901081012383F310880E4A32F810309BB26F
S315000019A06BB90D4C0D4DB4F8FE3335F810C09BB233
S315000019B043EA0C0343F425439BB2A4F8FE3332F802
S315000019C0103001339BB222F8103081F3108830BCFE
S315000019D0704700BF541AFE1F00E00140B81D00000A
S315000019E000BE704708B500F003F8FEF753FEFEE7A9
S315000019F0224B234A4FF4700170B50020C3F88810BB
S31500001A009A60FEF73BFEFFF7A9FE0120FEF736FEC1
S31500001A101C4B1D491D4D1E4E1E481F4A00244FF4E7
S31500001A20254C9C80A3F800C09E60DD604FF4805575
S31500001A30A1F8205101219980121A214600F046F89A
S31500001A401648174A1749184D121A00F031F8174B65
S31500001A505B1BA34206DD9E1055F8043B01349847F4
S31500001A60A642F9DCFFF766FE0220FEF707FEFFF747
S31500001A7049FFBDE870400020FFF7F2BE00ED00E030
S31500001A8000000000000D004000600040601EFE1FC8
S31500001A90601AFE1F4000FE1F601AFE1F0000FE1F98
S31500001AA01800FE1FC41D00001000FE1F1400FE1FBC
S31500001AB00A44914200F1FF3300D1704710B511F886
S31500001AC0014B03F8014F9142F9D110BD0244034680
S31500001AD0934200D1704703F8011BF9E74275696C20
S31500001AE07420776974682052656E6573617320414E
S31500001AF06476616E63656420466C657869626C65C0
S31500001B0020536F667477617265205061636B6167FD
S31500001B10652076657273696F6E20332E352E300020
S31500001B20332E352E3000000000000503F8B500BF47
S31500001B30F8BC08BC9E467047F8B500BFF8BC08BCA8
S31500001B409E46704700010000542600000011223313
S31500001B504455FFFF180CFE1FEC1B00004C1D000037
S31500001B60000001000000000000000000000000006E
S31500001B700000FE1F4018FE1F5018FE1F0101000046
S31500001B800800FE1F00060000000000000C00000018
S31500001B905D060000A01B0000000000000000000021
S31500001BA06018FE1FAC1B0000841D00000000000032
S31500001BB00000020008000000000100000000000014
S31500001BC0000000000B0C01000300000035060000B9
S31500001BD000000000000000000C0C020003000000E2
S31500001BE035060000000000000000000013000000A1
S31500001BF0F41B00000040000006000000004000004A
S31500001C00080000000040000009000000004000003D
S31500001C100A000000000001000801000000000100A9
S31500001C2009010000000001000A0100000000010097
S31500001C3000030000000C011701040000000C01174E
S31500001C4002040000000C011705040000000C011737
S31500001C5006040000000C011700070000000C011725
S31500001C6001070000000C011702070000000C011715
S31500001C7003070000000C011704070000000C011701
S31500001C800507000005000000080A000063010C00BB
S31500001C900D00000000000000000000000000000031
S31500001CA0000000000000000000000000000000002E
S31500001CB0000000000000000000000000000000001E
S31500001CC0000000000000000000000000000000000E
S31500001CD000000000000000000000000000000000FE
S31500001CE000000000000000000000000000000000EE
S31500001CF000000000000000000000000000000000DE
S31500001D0000000000000000000000000000000000CD
S31500001D1000000000000000000000000000000000BD
S31500001D2000000000000000000000000000000000AD
S31500001D30000000000000000000000000000000009D
S31500001D400000000000000000000000003D09000047
S31500001D50A1060000550900006109000055070000B2
S31500001D60AD070000A1070000A9060000F506000067
S31500001D70150700003D07000085070000C5060000A6
S31500001D80D9060000290E0000350B0000ED0D0000FD
S31500001D90AD0C00003D0D00000C0000000E0400001C
S31500001DA00F0600000F0701000E0800000A0A0101D5
S31500001DB00F0C00000F0D00010100020008001000CA
S30900001DC00000000019
S31500001DC40011223344550000400CFE1F4012FE1F32
S30D00001DD42505000001050000D1
S3150100A150FFFFFFFFFFFFFFFFFFFFFFFFFFFFFFFF08
S705000019E5FC
