S01600005544536F6E43414E5F43414E6F652E737265636E
S315000000007008FE1F991F0000811E0000951F00004A
S31500000010951F0000951F0000951F0000951F00000A
S31500000020000000000000000000000000951F000016
S31500000030951F000000000000951F0000951F00009E
S31500000040A1150000591A00002D1B0000491C0000D4
S315000000502D1B0000491C0000A1150000A115000081
S31500000060A115000041100000B90F0000CD100000DE
S315000000700911000000000000000000000000000060
S31500000080000000000000000000000000000000006A
S31500000090000000000000000000000000000000005A
S315000000A0000000000000000000000000000000004A
S315000000B0000000000000000000000000000000003A
S31500000400FFFFFFFFFFFDFFFFFCFFFFFFFFFFFFFFFB
S31500000410FCFFFFFFFFFFFFFFFCFFFF00FFFFFF00EA
S31500000420FCFF0F20FFFF0F20FCFF7F40FFFF7F40F8
S31500000430FCFF0D40FFFF0D40FFFFFFFFFFFFFFFF2B
S31500000440FFFFFFFFFFFFFFFFFFFFFFFFFFFFFFFFB6
S31500000450FFFFFFFFFFFFFFFFFFFFFFFFFFFFFFFFA6
S31500000460FFFFFFFFFFFFFFFFFFFFFFFFFFFFFFFF96
S31500000470FFFFFFFFFFFFFFFFFFFFFFFFFFFFFFFF86
S31500000480FFFFFFFFFFFFFFFFFFFFFFFFFFFFFFFF76
S31500000490FFFFFFFFFFFFFFFFFFFFFFFFFFFFFFFF66
S315000004A0FFFFFFFFFFFFFFFFFFFFFFFFFFFFFFFF56
S315000004B0FFFFFFFFFFFFFFFFFFFFFFFFFFFFFFFF46
S315000004C0FFFFFFFFFFFFFFFFFFFFFFFFFFFFFFFF36
S315000004D0FFFFFFFFFFFFFFFFFFFFFFFFFFFFFFFF26
S315000004E0FFFFFFFFFFFFFFFFFFFFFFFFFFFFFFFF16
S315000004F0FFFFFFFFFFFFFFFFFFFFFFFFFFFFFFFF06
S3150000050010B5054C237833B9044B13B10448AFF347
S3150000051000800123237010BD7001FE1F0000000043
S31500000520BC2A000008B5034B1BB103490348AFF3CF
S31500000530008008BD000000007401FE1FBC2A0000F8
S3150000054010B5174B174CD3F808216FF34512C3F8B3
S315000005500821E26A6FF31242E262E26A431E002158
S315000005606FF3DA52E2626366A164636B092262F397
S3150000057004036363636B43F48073636301F0DEFF1C
S3150000058005A3D3E9002301F06DFD02F051F8E06404
S3150000059010BD00BFAFF30080B81E85EB51B89E3F7B
S315000005A0006F04400080074038B5174B187807EEF7
S315000005B0900AF8EE677A17EE900A01F0E1FF0EA3B3
S315000005C0D3E9002301F04EFD0DA3D3E9002301F08A
S315000005D079FE0E4A0E4B04460D461068C3E90045E7
S315000005E001F0ACFF2B46224601F03CFD02F020F85C
S315000005F0084BD86438BD00BFFCA9F1D24D62403F1C
S31500000600B81E85EB51B89E3FF401FE1F1400FE1F75
S31500000610F801FE1F0080074010B4002283B0CDE928
S3150000062000220E4B02A99A80024611E9030003F14B
S315000006300C0C8CE803004FF4C064082003211C60F6
S315000006409871197351784031597391789973D278AA
S31500000650DA7303B05DF8044B704700BF9401FE1FC8
S3150000066030B5164B84460820987183B000244FF4A9
S31500000670C0601860CDE9004411489C80017001F10A
S31500000680030E02A911E9030003F10C0484E8030038
S3150000069010251D7383F80DE09CF801104031997305
S315000006A09CF80210D9739CF80310197411785974C8
S315000006B0517899749278DA7403B030BD9401FE1FB4
S315000006C0D401FE1FB0F5E06F00D0704710B54B782F
S315000006D0143B82B00C461A2B18D8DFE803F04817F3
S315000006E01717170E17171717171717173017171784
S315000006F0171717171717171719004B883A485BBAB9
S3150000070099B240F601329142038048D002B010BD42
S315000007104B8835495BBA5A1E92B2012A0B80F5D82E
S315000007202046FFF779FF314B22791A70FFF73CFF1D
S315000007302F4A3048002101F017F82F482AE04B884D
S3150000074029495BBA9AB2012A0B803CD0022ADDD134
S3150000075020462A4A1121FFF783FF294B244A2548C0
S31500000760012400211C7000F0FFFF264812E0084615
S31500000770FFF752FF244A254B1288ADF80420BDF836
S315000007800410198000241A4A1A489C70214600F069
S31500000790EBFF1F4802B0BDE8104000F043B9204609
S315000007A0FFF73AFF124A1949137B48780C78897883
S315000007B05074033391740F4814741373002100F0BE
S315000007C0D3FF1448E6E72046FFF726FF084A074905
S315000007D0137B09781174013306481373002100F066
S315000007E0C3FF0D48D6E700BFD001FE1FF401FE1F70
S315000007F09401FE1F0802FE1F842700000000FE1F52
S31500000800F001FE1F5427000000280000D801FE1F3B
S31500000810D8270000B82700002427000010B4174A84
S315000008200123137013784FF0070C03210CFB0313FD
S31500000830984283B008DD13780133DBB21370137866
S315000008400CFB03138342F6DB0022CDE9002202A94A
S315000008500B4B0C4C9A8011E9030003F10C0C8CE84D
S3150000086003004FF4C061082019600122212198710C
S315000008701973227003B05DF8044B7047D201FE1F56
S31500000880A801FE1FD301FE1F30B583B01C4C8DF8A6
S31500000890070000231B481C4D6373E381236101227B
S315000008A090F800C00378C3EBCC03053B13448B429E
S315000008B014D09DF80730012B0DD190F800E090F888
S315000008C000C0AB18CCEBCE0C634404EB020C13F85F
S315000008D005EC8CF80CE00132082AE1D1084A0B48F5
S315000008E0002100F041FF0A4A237B107801334FF4C0
S315000008F07A71237303B0BDE8304001F093BA00BFAC
S31500000900A801FE1FD301FE1F0000FE1F0802FE1FE6
S31500000910DB01FE1F022800D07047024B02485968CF
S3150000092000F078BD882800000002FE1F43680C2BEB
S3150000093004D00D2B0FD00B2B06D07047084A5378E6
S3150000094083F0010353707047064B40F60A011722E5
S3150000095019809A707047044A0448002100F004BFC9
S31500000960F001FE1FD801FE1FBC01FE1F0802FE1F7C
S3150000097038B51B4D1B491C481C4C00F027FF1C4971
S31500000980284600F0ADFD284600F0EAFD194D1A494B
S31500000990204600F0A5FD204600F0E2FD174C184960
S315000009A0284600F09DFD284600F0DAFD1549204650
S315000009B000F096FD204600F0D3FD134B1868FFF7B4
S315000009C0BFFD124A1249D36A124843F00103D362AB
S315000009D000F058F91049114A00230B70137038BD06
S315000009E03002FE1F942800000802FE1F4002FE1F70
S315000009F0CC2800005002FE1FE02800006002FE1F07
S31500000A00F4280000082900001400FE1F008007409B
S31500000A101C2900007002FE1FD201FE1FD301FE1F1B
S31500000A20704700BFB0B582B0054600AF4FF47A718B
S31500000A30642001F0F7F9284601F038FEC3B203F14D
S31500000A40090202F4FC72ADEB020D40F60D2C0246D3
S31500000A500446294668469D1CA7F804C001F008FE16
S31500000A60391D0DEB040001F019FE2A4669460548BA
S31500000A7000F0C2F84FF47A71642001F0D3F9083718
S31500000A80BD46B0BD7002FE1F80B5FFF771FF174867
S31500000A90174CDFF87090DFF87080164D164FFFF791
S31500000AA0C1FF1648FFF7BEFF1548FFF7BBFF00263C
S31500000AB02378002BFCD099F80030012B0FD0227838
S31500000AC02B789A4204D023780133DBB22370EFE708
S31500000AD03846267089F80060FFF7A4FFE8E799F822
S31500000AE0000098F80010FFF7CFFEE8E704280000A2
S31500000AF0D301FE1FD201FE1F402800000C28000073
S31500000B0028280000F001FE1FD401FE1F8288B2F5DE
S31500000B10806F00D0704770B52B4E81692B4D2C4CE1
S31500000B200346324688B242F80C0B2880996A586A06
S31500000B3003C2627882B003F1240CB2B993F8242080
S31500000B401209032A16D1234A93F826309370937814
S31500000B50214ADBB213702378012B09D11F4B187879
S31500000B6002B0BDE87040FFF759BE6378012B09D08B
S31500000B7002B070BD2888614680B202B0BDE8704000
S31500000B80FFF7A0BD0023CDE9003302A9144A767B06
S31500000B90938011E9030002F10C0484E803000821A4
S31500000BA091711024194647F603734FF4C065967386
S31500000BB0D47393810B48156000F0D6FD0A4802B045
S31500000BC0BDE87040FFF72EBFDC01FE1FF201FE1FDD
S31500000BD0F001FE1F8C01FE1FDB01FE1FD401FE1F6C
S31500000BE0BC01FE1F0802FE1F6828000008B5FFF7BB
S31500000BF04BFF002008BD00BF10B4046AA37803F0C1
S31500000C007B03A370837803F00303D21A0B440261BB
S31500000C10A278C360837803F0030342F08002022BBC
S31500000C20A27005D00B78E37000205DF8044B704786
S31500000C300B8843F47E43E38100205DF8044B704744
S31500000C40F0B5846A85B005460F4694466E46B4B143
S31500000C5094E80F0086E80F00EB691B7884F804C05F
S31500000C602360EB6A2046C4E902736B6A9847AC6A54
S31500000C701CB196E80F0084E80F0005B0F0BD3446BD
S31500000C80EAE700BF2DE9F04703460A78002018700E
S31500000C9002F100724C695C6202F560528C69520185
S31500000CA0C3E907129A78C3E90A04012565F301022C
S31500000CB09A704A7822B99A78022060F301029A70F3
S31500000CC091F90B50B74A8E7A6809203005F01F0754
S31500000CD0012404FA07F742F82070BFF34F8FBFF3E1
S31500000CE06F8FB148B14F05F1C00C360150F82CE0BA
S31500000CF06FF3104E40F82CE002EB050CF6B28CF8C0
S31500000D00006347F8253091F905500E794FEA551CD6
S31500000D100CF1200C05F01F0E04FA0EFE42F82CE032
S31500000D20BFF34F8FBFF36F8F05F1C00C02EB0508C1
S31500000D3050F82CE03601F6B26FF3104E40F82CE076
S31500000D4088F8006347F8253091F907508E794FEA05
S31500000D50551C0CF1200C05F01F0E04FA0EFE42F88D
S31500000D602CE0BFF34F8FBFF36F8F05F1C00C02EB82
S31500000D70050850F82CE03601F6B26FF3104E40F835
S31500000D802CE088F8006347F8253091F909600D7A60
S31500000D904FEA561C0CF1200C06F01F0E04FA0EFE4C
S31500000DA042F82CE0BFF34F8FBFF36F8F06F1C00CF4
S31500000DB0324450F82CE02D01EDB26FF3104E40F89E
S31500000DC02CE082F8005347F82630EFF3108584F3C1
S31500000DD01088774A0E78D2F800014FF00044F440AC
S31500000DE020EA0400C2F80001D2F8002185F3108839
S31500000DF01A6ACD6900209070107150729072D0728C
S31500000E0050830C7840F2FF30E040C00744BF4020DA
S31500000E10D0740620107708784E788F7840F2FF3429
S31500000E20C440C878E10744BF4FF478419182C100BD
S31500000E30032E41EA071100F0B080002E14BFF22005
S31500000E40E220C9B211709071297B490001F00201BC
S31500000E5051736978A878C901400100F02000C9B231
S31500000E600143002010722E78B01E012840F28C80BB
S31500000E70C9B2D17169688878507010784C7864F37B
S31500000E8001001070C87890740978D07901F05C017F
S31500000E9000F0A3000143D1710020C3E90300C3E9B8
S31500000EA00500D3F81C80404C98F9057007F1C00C7A
S31500000EB0790954F82C90890001F160414FF0010E38
S31500000EC001F5614160F3104907F01F0744F82C90C3
S31500000ED00EFA07F7C1F880710F6098F90BC0354F0D
S31500000EE00CF1C0094FEA5C1154F829A0890001F100
S31500000EF0604101F5614160F3104A0CF01F0C44F8A3
S31500000F0029A00EFA0CFCC1F880C1C1F800C098F9FE
S31500000F10071001F1C0094FEA511C54F829A04FEA05
S31500000F208C0C0CF1604C0CF5614C60F3104A01F02E
S31500000F301F0144F829A00EFA01F1CCF88011CCF873
S31500000F40001098F909C00CF1C0084FEA5C110CF0CA
S31500000F501F0C0EFA0CFE54F828C0890060F3104CE2
S31500000F6001F1604144F828C001F5614106F003062D
S31500000F7046F07006C1F880E1C1F800E096706A8913
S31500000F801A815F60BDE8F087022E08BF41F01001AC
S31500000F90FF20C9B25070D1717EE741F04001F220C6
S31500000FA04FE700BF00E100E000600040E402FE1FE2
S31500000FB0006F04405549435330B4EFF30383103BAD
S31500000FC05BB203F1C0011C4A1C4C52F821006FF3BE
S31500000FD0104042F8210054F82300C3691B691BB175
S31500000FE003691BB130BC7047036963B9046AA3780F
S31500000FF003F07F03002143F00403A370802230BC7A
S31500001000C160FFF71DBE827802F003010229C168A4
S315000010100BD0046A91F800C084F803C002F0030202
S315000010209B1A0A44C0E90323DBE70C88056A44F4EB
S315000010307E44EC81F2E700BF00600040E402FE1F40
S3150000104010B582B0EFF30383103B5BB203F1C0012E
S315000010501C4A1D4C52F821006FF3104042F8210043
S3150000106054F82340A27802F00303022B236A0CBF34
S31500001070198A5979A3690CBFC1F30801C9B2019154
S3150000108033B90422204602B0BDE81040FFF7D8BDB0
S3150000109002F0030201A9606901F0EAFAD4E9052128
S315000010A0A37803F003031A44C91AC4E9052109B158
S315000010B002B010BD0122204602B0BDE81040FFF785
S315000010C0BFBD00BF00600040E402FE1F38B5EFF36D
S315000010D00384103C0A4B64B2022253F82400056ACA
S315000010E0AB7803F07B03AB700021FFF7A9FDC0349A
S315000010F0044B53F824206FF3104243F8242038BDE4
S31500001100E402FE1F0060004010B5EFF30384103CBC
S31500001110174B64B253F82400837803F00303022BC1
S31500001120036A0CBF198A597993F804C00CBFC1F33E
S315000011300801C9B21CF0100F0CF0380206D093F863
S315000011401CC01CF0010F08BF42F0400293F804C017
S315000011500CF0C70C83F804C0FFF772FDC034054BD2
S3150000116053F824206FF3104243F8242010BD00BF2B
S31500001170E402FE1F0060004000230360184670472B
S315000011800B0A1B01044853FA81F150F82130C3F3CE
S31500001190400300201370704700080440090A490103
S315000011A001F1804101F5802100204B6813807047D2
S315000011B0090A490101F1804123EA020001F5802173
S315000011C01A4042EA00428A6000207047C8B20123F2
S315000011D083404AB91A040B0A5B0103F1804303F505
S315000011E0802300209A6070479AB2F4E7090A490101
S315000011F001F1804101F5802110B40C6802EA030078
S31500001200204362EA030202405DF8044B0A600020B4
S31500001210704700BF090A490101F1804101F58021AB
S3150000122000204B68C3F30F431380704710B40B0ABA
S315000012305B0103F1804303F58023C8B25C6801219A
S3150000124081408BB201EA1441C91AB1FA81F1490908
S3150000125000205DF8044B1170704700BF090A490170
S3150000126001F1804123EA020001F580211A4042EA99
S315000012700042CA6000207047014B00201A70704778
S31500001280000D04400B0A5B0103F18043012A03F5BC
S3150000129080230AD0D868C9B24FF480328A4002430C
S315000012A0120C1204DA6000207047C8B2D968824076
S315000012B00A4392B2DA600020704700BF38B504884E
S315000012C0002C4DD043680021043303EBC40040F2E8
S315000012D002450C4640F2034C40F2044E0FE06245D4
S315000012E030D153F8042C02F0B852B2F1807F14BF0B
S315000012F041F0020144F002040833834211D01A88F7
S31500001300AA42ECD153F8042C02F0B852B2F1807F15
S3150000131003F1080314BF41F0010144F001048342C4
S31500001320EDD1C943CDB2012000F00AFE0D4B93F872
S31500001330BB2414432C4083F8BB440120BDE838404D
S3150000134000F0CEBD7245D7D153F8042C02F0B85246
S31500001350B2F1807F0CBF44F0040441F00401CBE7F6
S31500001360FF25E0E700E00140F8B50446FFF7A6FFD9
S31500001370EFF31082012383F31088234E33681BB9E1
S315000013802249CB704023CB7033680133336082F33C
S31500001390108825882DB362681D4C013DADB202F15F
S315000013A0080101EBC50500E008311068928810F4C9
S315000013B0803F4FEA12235FFA82FC0CEB031E09D032
S315000013C054F82E7020F480326FF3104744F82E70D4
S315000013D044F82E201B0163448D4244F823000A463C
S315000013E0E2D1EFF31082012383F31088336813B13F
S315000013F03368013B336033681BB904498020CB70E6
S31500001400C87082F31088F8BDE002FE1F000D04408C
S315000014100008044008B50346034A1A600846FFF769
S31500001420A3FF002008BD00BF54524F5008B5084620
S31500001430FFF79AFF002008BD70B584B002AB012605
S3150000144068460C461546ADF80C100292ADF80060E1
S315000014500193FFF733FFEFF3108286F310881D49DF
S315000014600B681BB91C48C3704023C3700B6801335B
S315000014700B6082F31088EA034FEA1423E4B219D40E
S315000014801B01164A234442F82350EFF3108201232E
S3150000149083F310880B6813B10B68013B0B600B6874
S315000014A01BB90D498020CB70C87082F310880020CC
S315000014B004B070BD04EB0310084A52F820606FF3C5
S315000014C0104642F8206025F4803642F820601B0161
S315000014D0D7E700BFE002FE1F000D044000080440ED
S315000014E0F0B591F902C080F804C04FEA8C03D1E947
S315000014F0026403F1804303F5C0430022D3F800538E
S31500001500C3F80023C0E90264124C91F800E080F8A9
S3150000151005E004F80E200F79CA784E7942EA0712E0
S3150000152042EAC612D2B2BCF1000F04F80E20C3F88C
S3150000153000530BDB4B7808490CF160421B0102F5A6
S315000015406142DBB282F8003341F82C00034B0360A2
S315000015500020F0BD00600040E402FE1F5543490034
S3150000156010B490F904200D4B02F1C000012153F88C
S3150000157020406FF3104443F8204053099B0003F1C9
S31500001580604303F5614302F01F0201FA02F2C3F859
S31500001590802100205DF8044B1A607047006000400F
S315000015A010B582B0EFF30384103C164B164964B2B3
S315000015B053F8242050790B5C03F00303032B0FD060
S315000015C0C03451F824306FF3104341F82430936847
S315000015D023B1D268CDE900206846984702B010BD15
S315000015E0936823B1D268CDE9002068469847064B38
S315000015F0C03453F824206FF3104243F8242002B07D
S3150000160010BD00BFE402FE1F00600040F0B5076A8F
S315000016108DB006466FB3BE468C46BEE80F0001ACE1
S315000016200FC4BEE80F000FC49EE8070084E8070059
S31500001630BCE80F003D460FC5BCE80F000FC59CE88F
S3150000164007008EE80700F36938469847336A73B196
S315000016500DF1040E9C46BEE80F00ACE80F00BEE894
S315000016600F00ACE80F009EE807008CE807000DB0FD
S31500001670F0BD0F46E7E700BF437B934210B44468D2
S3150000168052D0B4F840386FF38A23A4F84038B4F83F
S3150000169040384FF0020C6CF30923A4F84038B4F834
S315000016A0423803F4E063B3F5007FF8D1022384F8EF
S315000016B0582842730373994215D00529B4F8403867
S315000016C014D06FF38A23A4F84038B4F8403861F395
S315000016D009230A02A4F84038B4F8423803F4E06358
S315000016E09342F9D101735DF8044B70476FF38A2377
S315000016F0A4F84038B4F84038022262F30923A4F86B
S315000017004038B4F8423803F4E063B3F5007FF8D10B
S31500001710B4F8403843F48063A4F84038B4F842384B
S315000017205B05FBD50173DEE7037BC4E79DF800C0CC
S3150000173048B102280ED0002322F060421A4342EA42
S315000017408C720A607047074B03EA824242EA8C7247
S315000017500A607047002BF6D0012B14BF00234FF010
S315000017600043E9E70000FC1FF0B54468651883B044
S3150000177095F82038DB0925D11746026801F12003C8
S31500001780126904EB03111E017B79107B00933B79F0
S315000017903A68FFF7CBFFB31DBA7923448C8862F30E
S315000017A003048C8007F10C0099182AB110F8012B5C
S315000017B003F8012B8B42F9D18023002085F82038CD
S315000017C003B0F0BD4EF6632003B0F0BD2DE9F04F37
S315000017D00C680D6904F580245034240385B08846CE
S315000017E007464460EFF3108C012181F31088934A79
S315000017F0D8F80030D2F80061C3F1020301FA03F30E
S3150000180026EA0303C2F80031D2F800318CF31088BF
S31500001810D8F80830C361D8F80C30C0F8008000262C
S31500001820C0E908632B7803763246FFF725FF2B7D48
S315000018302A7BD8F80410DB0043EA420343F4E07342
S31500001840A4F840388B684A68D1F80CC0013B013ACD
S315000018501B0243EA02730A680CF1FF3143EA0133C3
S31500001860511E027E1343764A02EA01421343C4F82C
S31500001870443832460221FFF7FFFE04F5007380224A
S3150000188084F85028314618464FF4007200F0FEFEE8
S315000018902B69014609E09E4212D3A0190136202E7B
S315000018A080F8202801F1100118D0A86800EBC60CBA
S315000018B04FEAC60E9CF80620002AECD00022ECE780
S315000018C09CF804309CF805C050F80E20287BCDF813
S315000018D000C0FFF72BFF2B694022DEE79B0800F0D4
S315000018E0A9806A680397A2F1040C00220CEB83031B
S315000018F096466FF060494FF00F0B5CF8041F4945A0
S3150000190002F580760ED295F80CA09000BAF1000F81
S3150000191002D14C4F07EA814144F826100BFA00F138
S315000019204EEA010E9C4502F10102E6D1039F6FEAE1
S315000019300E030022C4F8283411463846FFF79CFEF1
S31500001940B4F8403843F02003A4F84038B4F84038DF
S31500001950C3F340109B06F9D498F9153098F8141083
S31500001960DFF8E8C0DFF8E8E0374E0CEB03020901C8
S31500001970C9B282F8001303F1C0054EF823705A0964
S3150000198056F82590920060F3104902F1604246F83D
S31500001990259002F56142012503F01F0305FA03F3C2
S315000019A0C2F88031136098F91630DFF8A8900CEB76
S315000019B0030203F1C00A82F800134EF823705A0995
S315000019C056F82AB0920002F1604202F5614260F3D5
S315000019D0104B03F01F0346F82AB005FA03F3C2F8CA
S315000019E08031136098F91720944453098CF800133A
S315000019F04EF8227002F1C0019B0002F01F0205FAA8
S31500001A0002F203F1604356F8215003F5614360F397
S31500001A10104546F82150C3F880211A603E2384F809
S31500001A204C384FF0FF33C4F82C34C7F8089005B093
S31500001A30BDE8F08F4FF0FF337BE700BF006F044037
S31500001A400000FF030000FC1F0060004000E100E012
S31500001A50E402FE1F4E41435230B58DB0EFF30383CF
S31500001A60103B5BB22E4AC03352F823106FF310417D
S31500001A7042F82310EFF30383103B5BB2294A52F876
S31500001A80235000212C2201A800F000FE6C6894F877
S31500001A904D380020DBB284F84D08ADF80830B4F8B4
S31500001AA04218C1F30012C90638D543F02003ADF839
S31500001AB00830022394F8532884F8533894F852389F
S31500001AC003F01F03D2B2E11884F8532891F82028B6
S31500001AD060F3820281F820282A681268019201A91F
S31500001AE06A6A049328460692FFF790FDB4F84238D6
S31500001AF0DB0611D52B681A69127D6AB193F9153088
S31500001B00002B09DB5A09084803F01F030121403264
S31500001B1001FA03F340F822300DB030BD1346DBE77F
S31500001B2000600040E402FE1F00E100E02DE9F04104
S31500001B308CB0EFF30383103B5BB2404AC03352F8DC
S31500001B4023106FF3104142F82310EFF30384103C87
S31500001B503B4B66B2002253F82600D0E900E595F823
S31500001B60533885F8532895F8527807F01F07DBB2EB
S31500001B7007F1200285F85338130104F0FF0455F8E5
S31500001B8003C0CCF380718DF82110E958DEF81030CF
S31500001B901B7B43EAD17303F001038DF82030002B41
S31500001BA048D1CCF38A4305EB021207939188C1F31F
S31500001BB0030301F00F0108298DF8223037D90821D7
S31500001BC08DF822100AAA002305EB071808EB030C70
S31500001BD001339CF806C202F801CB8B42F6D3DEF83D
S31500001BE0003004972F440193442387F820380023BC
S31500001BF0099307AB05934FF48063ADF8083001A94C
S31500001C00436A0693FFF702FDB5F84238DB070BD5AA
S31500001C10002E09DB76090B4A04F01F040123403627
S31500001C2003FA04F442F826400CB0BDE8F08100291E
S31500001C30C8D1D4E72CF06043B5E700BF0060004090
S31500001C40E402FE1F00E100E070B58CB0EFF3038301
S31500001C50103B5BB2214AC03352F823106FF3104198
S31500001C6042F82310EFF30383103B1D4A5BB20126B3
S31500001C7052F823506C6894F8532884F8536894F803
S31500001C805238D2B203F01F0384F853280493E218A3
S31500001C904FF40063ADF808302B681B6801936B6A3C
S31500001CA00693002382F8203801A982F820382846B6
S31500001CB00593FFF7ABFCB4F842389B070CD52B68AD
S31500001CC093F91730002B07DB5A09064903F01F0367
S31500001CD040329E4041F822600CB070BD006000406A
S31500001CE0E402FE1F00E100E0064B074993F82600D8
S31500001CF01A6A51F820300549C2F30262D3400B60DC
S31500001D00704700BF00E001405401FE1F6C04FE1F37
S31500001D1030B4374B374C3849384800224AF203551D
S31500001D20A3F8FE53A4F80021354C4C60354D364CD3
S31500001D3008604FF40040C1E9020493F82640C1E967
S31500001D40040551F824001C6A304DC4F30264E040D7
S31500001D500924286083F8132483F8A24093F88004AA
S31500001D6018B183F8812483F88024214A06200023B1
S31500001D7082F8A50082F8323092F83C301807FBD57D
S31500001D80002342F20170108582F82A30184B93F82E
S31500001D903C209206FBD5174A022082F81C0105203A
S31500001DA083F826001A48186293F826001C6A51F830
S31500001DB02000C4F3026C20FA0CF0286001214024B4
S31500001DC04FF4254083F8301083F8521083F85310EF
S31500001DD083F82440A3F8FE03A2F80411B2F80431F4
S31500001DE09BB2002BFAD1012330BCA2F80031704718
S31500001DF000E0014000C001405401FE1F002D3101EA
S31500001E0000127A00001C4E0E00366E016C04FE1F96
S31500001E1021120121704700BFA0F101000028FBD16B
S31500001E20704700BF30B5144D144A00FB01F14FF462
S31500001E307A732868B2FBF0F2A1FB03C44FF0FF30BF
S31500001E404FF0000E60457EEB040407D3BCFBF2F0B6
S31500001E50800878B1BDE83040FFF7DEBF9200B1FBE5
S31500001E60F2F1A1FB031388427EEB0303F2D308468B
S31500001E700028EFD130BD00BF6C04FE1F00CA9A3B9C
S31500001E800B4B70B5B3F840510A4E0024ADB225FA9B
S31500001E9004F3DB07E0B203D556F8243003B19847C4
S31500001EA00134102CF3D1024BA3F8305170BD00BFA2
S31500001EB000600040A002FE1F10B4074A074C002332
S31500001EC003F1C001013332F8020F44F82100602B00
S31500001ED0F6D15DF8044B7047BA2900000060004057
S31500001EE0EFF31081012383F31088124B33F810208F
S31500001EF092B22AB133F81020013A92B223F8102098
S31500001F0033F810309BB293B90B4A10B4B2F8FE33D3
S31500001F100A4C9BB234F8100043F4254323EA00032D
S31500001F20A2F8FE3381F310885DF8044B704781F305
S31500001F30108870476404FE1F00E00140B42A0000C8
S31500001F4030B4EFF31081012383F310880E4A32F880
S31500001F5010309BB26BB90D4C0D4DB4F8FE3335F80D
S31500001F6010C09BB243EA0C0343F425439BB2A4F88A
S31500001F70FE3332F8103001339BB222F8103081F371
S31500001F80108830BC704700BF6404FE1F00E00140AB
S31500001F90B42A000000BE704708B500F003F8FEF74B
S31500001FA025FEFEE7224B234A4FF4700170B5002050
S31500001FB0C3F888109A60FEF7ADFCFFF7A9FE012072
S31500001FC0FEF7A8FC1C4B1D491D4D1E4E1E481F4A00
S31500001FD000244FF4254C9C80A3F800C09E60DD6071
S31500001FE04FF48055A1F8205101219980121A2146FB
S31500001FF000F04CFB1648174A1749184D121A00F004
S3150000200037FB174B5B1BA34206DD9E1055F8043BBE
S3150000201001349847A642F9DCFFF766FE0220FEF778
S3150000202079FCFFF749FFBDE870400020FFF7F2BEDC
S3150000203000ED00E000000000000D004000600040E0
S315000020407008FE1F7004FE1F7001FE1F7004FE1F45
S315000020500000FE1F5401FE1FC02A00004C01FE1F97
S315000020605001FE1F70B54FF0FF0C4CF4E06C1CEAFB
S3150000207011541DBF1CEA135594EA0C0F95EA0C0F78
S3150000208000F0DEF82C4481EA030621EA4C5123EAEB
S315000020904C5350EA013518BF52EA033541F480111A
S315000020A043F4801338D0A0FB02CE4FF00005E1FBCD
S315000020B002E506F00042E0FB03E54FF00006E1FB17
S315000020C003569CF0000F18BF4EF0010EA4F1FF045A
S315000020D0B6F5007F64F5407404D25FEA4E0E6D419A
S315000020E046EB060642EAC62141EA55514FEAC520AB
S315000020F040EA5E504FEACE2EB4F1FD0C88BFBCF527
S31500002100E06F1ED8BEF1004F08BF5FEA500E50F1D7
S31500002110000041EB045170BD06F0004646EA01019D
S3150000212040EA020081EA0301B4EB5C04C2BFD4EBCF
S315000021300C0541EA045170BD41F480114FF0000EC8
S31500002140013C00F3AB8014F1360FDEBF002001F036
S31500002150004170BDC4F10004203C35DA0C341BDCB0
S3150000216004F11404C4F1200500FA05F320FA04F082
S3150000217001FA05F240EA020001F0004221F00041B6
S3150000218010EBD37021FA04F642EB06015EEA430E29
S3150000219008BF20EAD37070BDC4F10C04C4F1200559
S315000021A000FA04F320FA05F001FA04F240EA02000C
S315000021B001F0004110EBD37041F100015EEA430EDD
S315000021C008BF20EAD37070BDC4F1200500FA05F2FD
S315000021D04EEA020E20FA04F301FA05F243EA02037C
S315000021E021FA04F001F0004121FA04F220EA02008B
S315000021F000EBD3705EEA430E08BF20EAD37070BDD1
S3150000220094F0000F0FD101F00046400041EB0101B0
S3150000221011F4801F08BF013CF7D041EA060195F092
S31500002220000F18BF704703F00046520043EB03034C
S3150000223013F4801F08BF013DF7D043EA0603704739
S3150000224094EA0C0F0CEA135518BF95EA0C0F0CD044
S3150000225050EA410618BF52EA4306D1D181EA03018A
S3150000226001F000414FF0000070BD50EA410606BF84
S315000022701046194652EA430619D094EA0C0F02D1C9
S3150000228050EA013613D195EA0C0F05D152EA03360E
S315000022901CBF104619460AD181EA030101F000412C
S315000022A041F0FE4141F470014FF0000070BD41F075
S315000022B0FE4141F4780170BD81F0004102E000BFAB
S315000022C083F0004330B54FEA41044FEA430594EAF0
S315000022D0050F08BF90EA020F1FBF54EA000C55EA2B
S315000022E0020C7FEA645C7FEA655C00F0E2804FEAFC
S315000022F05454D4EB5555B8BF6D420CDD2C4480EADE
S31500002300020281EA030382EA000083EA010180EA0D
S31500002310020281EA0303362D88BF30BD11F0004F5B
S315000023204FEA01314FF4801C4CEA113102D0404291
S3150000233061EB410113F0004F4FEA03334CEA1333CC
S3150000234002D0524263EB430394EA050F00F0A780E4
S31500002350A4F10104D5F1200E0DDB02FA0EFC22FADF
S3150000236005F2801841F1000103FA0EF2801843FAD3
S3150000237005F359410EE0A5F120050EF1200E012AC4
S3150000238003FA0EFC28BF4CF0020C43FA05F3C01802
S3150000239051EBE37101F0004507D54FF0000EDCF17B
S315000023A0000C7EEB00006EEB0101B1F5801F1BD324
S315000023B0B1F5001F0CD349085FEA30004FEA3C0C28
S315000023C004F101044FEA445212F5800F80F09A801E
S315000023D0BCF1004F08BF5FEA500C50F1000041EB22
S315000023E0045141EA050130BD5FEA4C0C404141EB26
S315000023F00101013C28BFB1F5801FE9D291F0000F21
S3150000240004BF01460020B1FA81F308BF2033A3F1CF
S315000024100B03B3F120020CDA0C3208DD02F1140CC6
S31500002420C2F10C0201FA0CF021FA02F10CE002F101
S315000024301402D8BFC2F1200C01FA02F120FA0CFCFA
S31500002440DCBF41EA0C019040E41AA2BF01EB045143
S31500002450294330BD6FEA04041F3C1CDA0C340EDC41
S3150000246004F11404C4F1200220FA04F001FA02F384
S3150000247040EA030021FA04F345EA030130BDC4F142
S315000024800C04C4F1200220FA02F001FA04F340EA37
S315000024900300294630BD21FA04F0294630BD94F0E8
S315000024A0000F83F4801306BF81F480110134013DCF
S315000024B04EE77FEA645C18BF7FEA655C29D094EA40
S315000024C0050F08BF90EA020F05D054EA000C04BFBE
S315000024D01946104630BD91EA030F1EBF00210020A9
S315000024E030BD5FEA545C05D14000494128BF41F048
S315000024F0004130BD14F580043CBF01F5801130BDAC
S3150000250001F0004545F0FE4141F470014FF0000036
S3150000251030BD7FEA645C1ABF194610467FEA655CE7
S315000025201CBF0B46024650EA013406BF52EA033589
S3150000253091EA030F41F4002130BD00BF90F0000F77
S3150000254004BF0021704730B54FF4806404F13204B3
S315000025504FF000054FF0000150E700BF90F0000F6C
S3150000256004BF0021704730B54FF4806404F1320493
S3150000257010F0004548BF40424FF000013EE700BF63
S3150000258042004FEAE2014FEA31014FEA02701FBFF3
S3150000259012F07F4393F07F4F81F06051704732F025
S315000025A07F4208BF704793F07F4F04BF41F400217C
S315000025B0704730B54FF4607401F0004521F00041DA
S315000025C01CE700BF50EA010208BF704730B54FF064
S315000025D000050AE050EA010208BF704730B511F065
S315000025E0004502D5404261EB41014FF4806404F19D
S315000025F032045FEA915C3FF4D8AE4FF003025FEA23
S31500002600DC0C18BF03325FEADC0C18BF033202EBA6
S31500002610DC02C2F1200300FA03FC20FA02F001FA00
S3150000262003FE40EA0E0021FA02F11444BDE600BFA3
S315000026304A0011D212F5001211D20DD56FF478733B
S31500002640B3EB62520ED44FEAC12343F0004343EA90
S31500002650505323FA02F070474FF00000704750EADB
S31500002660013002D14FF0FF3070474FF00000704745
S315000026700A44914200F1FF3300D1704710B511F8BA
S31500002680014B03F8014F9142F9D110BD02440346B4
S31500002690934200D1704703F8011BF9E7034611F88E
S315000026A0012B03F8012B002AF9D17047034613F8D2
S315000026B0012B002AFBD1181A013870474275696C44
S315000026C07420776974682052656E65736173204162
S315000026D06476616E63656420466C657869626C65D4
S315000026E020536F667477617265205061636B616712
S315000026F0652076657273696F6E20332E352E300035
S31500002700332E352E3000000000000503F8B500BF5B
S31500002710F8BC08BC9E467047F8B500BFF8BC08BCBC
S315000027209E4670472020506F73203A2052656164A0
S315000027302044617461204279204964656E7469663B
S31500002740696572203A20536572766F2064656772F8
S31500002750656500002020506F73203A205265616441
S315000027602044617461204279204964656E7469660B
S31500002770696572203A2056494E204E756D62657223
S31500002780000000002020506F73203A2057726974B1
S31500002790652044617461204279204964656E7469DC
S315000027A066696572203A20536572766F20436F6EB4
S315000027B074726F6C000000002020506F73203A2066
S315000027C0526561642044544320696E666F726D6180
S315000027D074696F6E000000002020506F73203A204D
S315000027E0436C65617220446961676E6F73746963D7
S315000027F020496E666F726D6174696F6E00FFFFFF30
S31500002800000000FF202048656C6C6F002020456E9C
S3150000281074657220446961676E6F73746963204DD5
S315000028206F646521000000002020546869732069E8
S3150000283073205241364D3320426F617264000000AE
S315000028402020506F73203A20436F6E736563757452
S31500002850697665204672616D6573206172652044F4
S315000028606F6E65212100FFFF202021212121214EAD
S3150000287065676174697665204672616D65212121FF
S315000028802121212100FFFFFF0002FE1F4C2900002D
S315000028907C2A0000010000001800FE1F0D0B00003E
S315000028A000000000AC2800000C010203010000003B
S315000028B02801FE1F2800FE1F000000002000000067
S315000028C00000000000000000000000000B0C0000EB
S315000028D0030000002D0900000000000000000000B9
S315000028E00C0C0600030000002D090000000000008B
S315000028F0000000000D0C0700030000002D09000079
S3150000290000000000000000000E0C0800030000009C
S315000029102D09000000000000000000000002000079
S315000029200C090C0A0C0B0C0C000000000000000047
S31500002930210A0000000000003C2900000001000000
S315000029404801FE1F0F00FFFF000000000D00000001
S31500002950542900000040000006000000004000006E
S3150000296008000000004000000900000000400000D0
S315000029700A0000000000010008010000000001003C
S3150000298009010000000001000A010000000001002A
S3150000299000030000000001040A0400000000010416
S315000029A00B040000000001030F04000000000110EA
S315000029B00B050000000001100C0500000C008F0044
S315000029C092009300900091000D000E000F0074011C
S315000029D0750176017701000000000000000000008C
S315000029E000000000000000000000000000000000E1
S315000029F000000000000000000000000000000000D1
S31500002A0000000000000000000000000000000000C0
S31500002A1000000000000000000000000000000000B0
S31500002A2000000000000000000000000000000000A0
S31500002A300000000000000000000000000000000090
S31500002A400000000000000000000000000000000080
S31500002A500000000000000000000000000000000070
S31500002A600000000000000000000000000000000060
S31500002A700000000000000000000000001514000027
S31500002A80791100002D140000391400002D120000E9
S31500002A90851200007912000081110000CD1100009E
S31500002AA0ED110000151200005D1200009D110000DE
S31500002AB0B111000001000200080010000000000033
S31500002AC032543352465245563744573130383137EF
S31500002AD037000000009F2400030000000B000000E8
S31500002AE004000000040000000000000000010100D6
S31500002AF001000000000000000200000000000000CD
S31500002B0003000000000000000400000000000100B7
S31500002B1005000000000000000600000000000000A4
S31500002B200700000000000000080000000000000090
S31500002B3009000000000000000A000000000000007C
S31500002B400B000000000000000C0000000000000068
S31500002B500D000000000000000E0000000000000054
S31500002B600F00000000000000100000000000000040
S31500002B70110000000000000012000000000000002C
S31500002B801300000000000000140000000000000018
S31500002B901500000000000000160000000000000004
S31500002BA017000000000000001800000000000000F0
S31500002BB019000000000000001A00000000000000DC
S31500002BC01B000000000000001C00000000000000C8
S31500002BD01D000000000000001E00000000000000B4
S31500002BE01F000000000000000000000000000000C0
S31500002BF0FFFFFF1FFFFFFF1FFFFFFF1FFFFFFF1F5F
S31500002C00FFFFFF1FFFFFFF1F4000400025050000DC
S30900002C1001050000B4
S3150100A150FFFFFFFFFFFFFFFFFFFFFFFFFFFFFFFF08
S70500001F9942
