S01A000046696E616C5F70726F6A6563745F746573742E73726563AB
S31500000000E8DF0320993200008131000095320000BC
S3150000001095320000953200009532000095320000BE
S315000000200000000000000000000000009532000003
S315000000309532000000000000953200009532000065
S31500000040891A0000011A0000151B0000511B000050
S31500000050E91F0000052A0000052A0000E91F00002C
S31500000060E91F000041260000152700003128000086
S315000000701527000031280000E91F000000000000DD
S31500000080000000000000000000000000000000006A
S31500000090000000000000000000000000000000005A
S315000000A0000000000000000000000000000000004A
S315000000B0000000000000000000000000000000003A
S31500000400FFFFFFFFFFFDFFFFFCFFFFFFFFFFFFFFFB
S31500000410FCFFFFFFFFFFFFFFFCFFFF00FFFFFF00EA
S31500000420FCFF0F20FFFF0F20FCFF7F40FFFF7F40F8
S31500000430FCFF0D40FFFF0D40FFFFFFFFFFFFFFFF2B
S31500000440FFFFFFFFFFFFFFFFFFFFFFFFFFFFFFFFB6
S31500000450FFFFFFFFFFFFFFFFFFFFFFFFFFFFFFFFA6
S31500000460FFFFFFFFFFFFFFFFFFFFFFFFFFFFFFFF96
S31500000470FFFFFFFFFFFFFFFFFFFFFFFFFFFFFFFF86
S31500000480FFFFFFFFFFFFFFFFFFFFFFFFFFFFFFFF76
S31500000490FFFFFFFFFFFFFFFFFFFFFFFFFFFFFFFF66
S315000004A0FFFFFFFFFFFFFFFFFFFFFFFFFFFFFFFF56
S315000004B0FFFFFFFFFFFFFFFFFFFFFFFFFFFFFFFF46
S315000004C0FFFFFFFFFFFFFFFFFFFFFFFFFFFFFFFF36
S315000004D0FFFFFFFFFFFFFFFFFFFFFFFFFFFFFFFF26
S315000004E0FFFFFFFFFFFFFFFFFFFFFFFFFFFFFFFF16
S315000004F0FFFFFFFFFFFFFFFFFFFFFFFFFFFFFFFF06
S3150000050010B5054C237833B9044B13B10448AFF347
S3150000051000800123237010BD38D80320000000009E
S31500000520C03F000008B5034B1BB103490348AFF3B6
S31500000530008008BD000000003CD80320C03F00003A
S31500000540C0F3C20300F00700072B05D8DFE803F06D
S315000005500D04041B220428057047184B1B78002B3A
S31500000560FAD001F00F0100F077BD01281BD0022858
S3150000057018D1134B13491A784988134882F001029F
S315000005801A7001F047BB0D4B1B78002BE4D01146C7
S3150000059000F0A0BC094B1B78002BDDD000F0ACBBF3
S315000005A000F07EBA7047094B06491A780988064852
S315000005B082F001021A7001F02DBB00BF54D803204F
S315000005C00500FE1F0000FE1FE0D803200400FE1FEA
S315000005D02548C378303B072B08D8DFE803F0081717
S315000005E0072319072004214B1B7833BB7047037977
S315000005F0312B2ED0322B1FD11D4B1E491A7849881C
S315000006001D4882F001021A7001F004BB00F068BABE
S31500000610164B1B78002BE9D0007900F0E5BB00797A
S3150000062000F04EBA114B1B78002BDFD0437A027ACA
S31500000630C179007900F098BC704710B582B0447A51
S31500000640037AC27981790079009400F065FD02B0E1
S3150000065010BD0A4B07491A780988074882F001023B
S315000006601A7001F0D7BA00BF98D8032054D80320D7
S315000006700500FE1F0000FE1FE0D803200400FE1F39
S3150000068038B5104C1049114D204601F0E7FB104BD0
S3150000069029881A78204601F0BDFA0E4B69881A7827
S315000006A0204601F0B7FA012240F60A21204601F061
S315000006B0B1FA20460122BDE838404FF4306101F01E
S315000006C0A9BA00BFE0D803208C3D00000000FE1F41
S315000006D00400FE1F0500FE1F10F0380F10B5C0F312
S315000006E0C20C00F0070306D0BCF1010F02D12BB3F8
S315000006F0072B16D010BD062B2CD0072BFAD1174B83
S315000007001B88002BF6D0164C164801F00F0142EA62
S31500000710012323806246BDE8104040F60A2101F01D
S3150000072079BA114C0F4884F800C000224FF43061AA
S3150000073001F070FA0D4B22781A7010BD0A4C094868
S31500000740237062464FF4306101F064FA074B227859
S315000007501A7010BD014B01221A8010BD56D8032015
S3150000076058D80320E0D8032054D803205AD80320B1
S31500000770302810B512D031280FD1302922D0372990
S315000007800BD1154C1548012300224FF4306123701C
S3150000079001F040FA124B22781A7010BD362916D095
S315000007A03729FAD10F4B1B88002BF6D00E4B0B487E
S315000007B040F69D641C800022BDE8104040F60A21E8
S315000007C001F028BA044C054800230122DDE7054B59
S315000007D001221A8010BD00BF54D80320E0D80320A0
S315000007E05AD8032056D8032058D8032010B5054CF4
S315000007F00549204602F066FA20460449BDE8104045
S3150000080002F06AB9E8D80320083C00002C3C00003E
S3150000081010B582B00DF1060200211B481B4C02F0F8
S3150000082053F9BDF80630DFED1A6A9FED1A7A07EE26
S31500000830903AF8EEE77A184B67EEA67A67EE877A73
S31500000840FCEEE77A17EE902A90B2188002F0DCFEF2
S315000008500BA3D3E9002302F041FF03F051F980B264
S315000008600E490F4B2080C0F51C521032A3FB00C36B
S315000008700A800C4A5B09138002B010BDAFF30080FA
S31500000880E78C28ED0D3E0840E8D803206AD80320FF
S315000008903333533A00007A446CD8032068D80320D7
S315000008A01F85EB5166D8032000B583B00DF1060213
S315000008B00121144802F008F9BDF80630DFED126A8E
S315000008C09FED127A124A07EE903AF8EEE77A67EE53
S315000008D0A67A67EE877AFCEEE77A17EE903A9BB235
S315000008E01380B3F5FA7F0B4A2CBFA3F5FA73C3F551
S315000008F0FA73A2FB0323084A43F3CF03138003B022
S315000009005DF804FB0CD903203333533A00007A44D4
S3150000091070D80320CDCCCCCC6ED8032010B51648A9
S31500000920154C82B002F0BCF801238DF8043001A901
S31500000930204602F0C1F89DF80430012BF7D00DF1E6
S31500000940060202210C480D4C02F0BEF8BDF8063036
S315000009500B490C4AB3F5C87F06D301202380002338
S315000009600870138002B010BD002023807F2308701A
S31500000970138002B010BD00BFE8D803205ED8032064
S315000009805BD803205CD80320F0B50222284D032350
S31500000990904283B02A7069706B7106D09842044603
S315000009A03AD001281DD003B0F0BD2248214C02F0F8
S315000009B077F801238DF8043001AE3146204602F067
S315000009C07BF89DF80430012BF7D0FFF76DFF1A4B2B
S315000009D01B8849F2AA1203F07F036A802B7103B0C9
S315000009E0F0BD164801AE074602F05AF88DF80440ED
S315000009F03146384602F060F89DF80430012BF7D0F6
S31500000A00FFF706FF0E4B1B8849F2A90263F07F032E
S31500000A106A802B7103B0F0BDFFF780FF094B1B887E
S31500000A2049F2AB1263F07F036A802B7103B0F0BD0D
S31500000A3060D803200CD903206ED80320E8D8032001
S31500000A4066D803205CD8032010B5054C054920461E
S31500000A5001F000FB2046BDE8104001F05FBB00BF7F
S31500000A6058D90320B03C0000F8B500F53B350A4FD5
S31500000A700A4E044605F57875637814F8021B30466D
S31500000A8041EA0321398001F043FB0121142002F0E1
S31500000A9049FBA542F0D1F8BD72D8032058D90320EE
S31500000AA0012805D0022802D10348FFF7DDBF7047B1
S31500000AB00248FFF7D9BF00BFE8EF00200800FE1F7D
S31500000AC0312805D0322802D10348FFF7CDBF704741
S31500000AD00248FFF7C9BF00BFE8EF00200800FE1F6D
S31500000AE0244A1379322B07D0332B1CD0312B11D04B
S31500000AF02148002303707047537A1F481A09037070
S31500000B00042A03F00F031D4A08BF0933D3700023DC
S31500000B1003707047537A194A174803F00F03D370CE
S31500000B20002303707047F0B5154D13482B780678EF
S31500000B30A3F1040E06325FFA8EFE31460024012729
S31500000B4012F801CBBCF1300F05D007FA03FC4CEAD2
S31500000B500101C9B20124013BDBB27345F0D1002C7F
S31500000B6008BF31462B70054B01F00F01D9700023E9
S31500000B700370F0BD98D8032074D80320D8D603207C
S31500000B80C8D60320F8B50F4E0F4D104F01240BE0C9
S31500000B90318801F03FF829880122384601F03AF8F9
S31500000BA00134E4B202360235631E032B4FF0000215
S31500000BB03846EDD92988012201F02CF8082CEFD10E
S31500000BC0F8BD00BFE43B0000EC3B0000E0D803208A
S31500000BD0F8B504460E460A20012102F0A3FAFFF7F3
S31500000BE0D1FF0D4B0D4833F814100D4D0B4F01225C
S31500000BF001F010F8072440F20E6102E035F8021BFE
S31500000C00013C46FA04F202F00102384601F002F80D
S31500000C10002CF3D1F8BD00BFE43B0000E0D8032070
S31500000C20EE3B000070B5074E451E002415F8013F47
S31500000C3020460134F15CE4B2FFF7CAFF042CF5D17B
S31500000C4070BD00BFD43B00002DE9F041264B274C78
S31500000C50D3F8082126496FF34512C3F80821E36A41
S31500000C606FF31243E362E36A6FF3DA53E3620D68EC
S31500000C70002605F1FF38C4F86480A664636B092773
S31500000C8067F304036363636B43F48073636328460B
S31500000C9002F0AAFC12A3D3E9002302F01FFD02F022
S31500000CA02FFF144BE064DA6A66F31242DA62DA6AFC
S31500000CB066F3DA52DA62C3F864809E645A6B67F3AD
S31500000CC004025A635A6B6D0842F480725A63DD64FB
S31500000CD0DA6A42F00102DA62BDE8F081AFF3008021
S31500000CE0B81E85EB51B89E3F006F04400080074058
S31500000CF0D0D603200083074038B5354AD36A013879
S31500000D0043F00103D36204282DD8DFE800F02D3725
S31500000D10414B03002F4B187810B10A38C0B2187037
S31500000D2007EE900AF8EE677A17EE900A02F07EFC5C
S31500000D3021A3D3E9002302F0D1FC21A3D3E90023A8
S31500000D4002F016FB244A254B044610680D46C3E9FB
S31500000D50004502F049FC2B46224602F0BFFC02F099
S31500000D60CFFE1B4BD86438BD1B4A1A4B10680022B5
S31500000D701A7013A5D5E90045184BE8E7164A154B36
S31500000D801068174D5A221A704FF03334134BDEE7B2
S31500000D90114A104B1068B4221A700BA5D5E900450C
S31500000DA00E4BD4E70B4B1878B428B9D00A30C0B232
S31500000DB01870B5E7AFF30080FCA9F1D24D62403F51
S31500000DC0B81E85EB51B89E3FB81E85EB51B8BE3FA5
S31500000DD00080074077D80320D0D6032080D8032090
S31500000DE03333B33FFFFFFFFF38B5354AD36A313897
S31500000DF043F00103D36204282DD8DFE800F02D3735
S31500000E00414B03002F4B187810B10A38C0B2187046
S31500000E1007EE900AF8EE677A17EE900A02F006FCE3
S31500000E2021A3D3E9002302F059FC21A3D3E900232F
S31500000E3002F09EFA244A254B044610680D46C3E983
S31500000E40004502F0D1FB2B46224602F047FC02F099
S31500000E5057FE1B4BD86438BD1B4A1A4B106800223C
S31500000E601A7013A5D5E90045184BE8E7164A154B45
S31500000E701068174D5A221A704FF03334134BDEE7C1
S31500000E80114A104B1068B4221A700BA5D5E900451B
S31500000E900E4BD4E70B4B1878B428B9D00A30C0B241
S31500000EA01870B5E7AFF30080FCA9F1D24D62403F60
S31500000EB0B81E85EB51B89E3FB81E85EB51B8BE3FB4
S31500000EC00080074077D80320D0D6032080D803209F
S31500000ED03333B33F0138042804D8DFE800F00C149C
S31500000EE017250400704718490022184B098818482E
S31500000EF01A7000F08FBE17490122174B0988144853
S31500000F001A7000F087BE13490022F6E70F4B1B78D4
S31500000F106BB9124B124A1868124B00FB01F1A2FB87
S31500000F2001214909D964704707490122DDE70B4BC6
S31500000F300B481B680B4AC1F1640101FB03F3A0FBDC
S31500000F4003135B09D3647047CAD6032075D8032000
S31500000F50E0D80320CCD6032076D80320D0D60320B1
S31500000F601F85EB5100830740313810B4042824D87C
S31500000F70DFE800F030340338260002F00F0201F0FB
S31500000F800F0102EB82021F4C1F4803F00F0301EB17
S31500000F90810103EB420301EB810103EB810322781C
S31500000FA0DBB203700ABB194A19491068194A00FBDB
S31500000FB003F3A1FB03135B09D3645DF8044B70478D
S31500000FC0154900220F4B09881A7014485DF8044B26
S31500000FD000F020BE1249134B0122F4E71049114BD1
S31500000FE00022F0E70C490122ECE7084A084912689A
S31500000FF0C3F1640302FB03F3A1FB0313054A5B0978
S31500001000D364DAE775D8032078D80320D0D6032036
S315000010101F85EB5100830740CAD60320E0D8032082
S31500001020CCD6032076D8032010B5074C07490848CC
S3150000103001F05CFC2046074901F058FC2046BDE85B
S31500001040104001F045BC00BFC4D903200C3D000090
S31500001050A8D90320343D0000012838B502D0022863
S3150000106022D038BD224D234B42EA01241C606B7A04
S3150000107043F041036B72AB7A43F00303AB72204635
S3150000108002F0B2FA18A3D3E9002302F051FC02F0F1
S3150000109037FD194B194A186083B2148018482B8003
S315000010A0BDE8384001F014BC164C174B42EA01204B
S315000010B01860637A43F041036372A37A43F0030333
S315000010C0A37202F091FA08A3D3E9002302F030FCE0
S315000010D002F016FD0D4A83B2106023800C48BDE86D
S315000010E0384001F0F5BB00BF08AC1C5A643BCF3F4B
S315000010F00041084090D803208CD80320DCD603207A
S31500001100C4D903200040084088D8032094D803207F
S31500001110A8D90320FFFFFFFF38B531289DF810C07E
S3150000112002D0322836D038BD02F00F0202EB82021E
S3150000113002EB8202344D01F00F014FF47A709200F7
S3150000114000FB012203F00F030A2414FB03226B7A2F
S315000011502E490CF00F0C02EB0C0443F041030C601B
S315000011606B72AB7A43F00303AB72204602F03CFA93
S3150000117023A3D3E9002302F0DBFB02F0C1FC244BDE
S31500001180244A186083B2148023482B80BDE8384077
S3150000119001F09EBB02F00F0202EB820202EB82021A
S315000011A001F00F014FF47A7092001C4C00FB0122F3
S315000011B003F00F030A200CF00F0C10FB032303EBC4
S315000011C00C00637A164A43F0410310606372A37AF7
S315000011D043F00303A37202F007FA09A3D3E900233D
S315000011E002F0A6FB02F08CFC0E4A83B2106023804C
S315000011F00D48BDE8384001F06BBB00BFAFF300807F
S3150000120008AC1C5A643BCF3F0041084090D80320ED
S315000012108CD80320DCD60320C4D903200040084024
S3150000122088D8032094D80320A8D90320014902486E
S3150000123000F04CBA5C3D0000E0D9032001490248A9
S3150000124001F0B8B8783C000030D9032038B51D4904
S3150000125088788309012B14D01B4C2278312A04D0BC
S31500001260032B08D0332A16D038BD184A1578012D1D
S315000012701ED0032BF8D10A79C978BDE83840FFF7AC
S315000012802BBA124B1B78012B15D00F4C2278312A22
S31500001290EAD0332AE8D10E4B1979D878FFF768FAE5
S315000012A04FF47A71012001F03DFF0023237038BD11
S315000012B0FFF78EF9F4E70A79C978BDE83840FFF7F9
S315000012C03FB900BFBCD80320A4D8032055D80320BB
S315000012D098D8032038B5124D1249134C284600F011
S315000012E023FE284600F060FE104D1149204600F00E
S315000012F01BFE204600F058FE0E4C0F49284600F013
S3150000130013FE284600F050FE0C49204600F00CFE65
S31500001310204600F049FE0A4B5D225A7038BD00BFD8
S3150000132068D90320BC3C000078D9032088D9032063
S31500001330D03C000098D90320E43C0000F83C0000B3
S31500001340D0D8032008B5FFF771FFFFF799F9FFF72B
S315000013507BFCFFF773FFFFF777FBFFF747FAFFF713
S3150000136063FEFFF70FFCFFF7B5FF054D054C204662
S31500001370FFF758FC28785D21FFF706FBF7E700BF6B
S31500001380D4D60320D8D60320F8B50379042B4DD044
S31500001390364E374D3378062B2DD02B780B2B29D193
S315000013A03449354C3548DFF8DCC0354B2778002208
S315000013B00A60026082808A803270A2788CF80020EF
S315000013C05D224A7094E8070003C323F8022B022F1C
S315000013D04FEA12421A7001D1FFF738FF4FF47A71C3
S315000013E0012001F09FFE0023C4E90033C4F8073052
S315000013F000232B70F8BD214F1E4B1F4C97E80300AE
S31500001400186099803B78022B24D02378022B21D0B8
S315000014104FF47A71012001F085FE002363603B6082
S31500001420BB8033702360C4F80730E1E7124CA37821
S3150000143003F0FD03312B10D00C4E017A32780C4D9F
S315000014400E48531C81542A78DBB2A1540132337002
S315000014502A70A0E7FFF7FAFEDAE7054D034E2B7870
S315000014608168E1545A1C2A70337894E7C2D8032065
S31500001470A3D80320D0D8032098D80320BCD80320B3
S31500001480C4D80320A4D8032043680B3B10B5032B14
S3150000149027D8DFE803F037270C022B4B00221A80EF
S315000014A0BDE810404FF47A71012001F03BBE274C95
S315000014B023780133DBB2042B237034D0022B34D1D2
S315000014C0234801F0F3FA224801F00EFD2149224893
S315000014D001F0F8FB2149204801F0FEFA1A4B227868
S315000014E09A7010BD1E4A1F4C1F4B4120C2E9034390
S315000014F000211060082090715171BDE810401B4812
S3150000150000F026BF1A491B4A0A6040F2FF338B805F
S315000015101948062200F094F8BDE810404FF47A719D
S31500001520012001F0FFBD012323700B4801F0BEFA34
S31500001530094801F0D9FC1149054801F0C3FB1049DF
S31500001540034801F0C9FAC9E7D8D60320D4D6032048
S31500001550E8D80320403C00000CD90320643C00007E
S31500001560A8D803204D4C5F46494E414C30D9032044
S31500001570D8D80320025D91CFE0D90320083C0000B3
S315000015802C3C000002490348062200F059B800BF6F
S3150000159060D80320E0D9032019491A4B0A78188825
S315000015A040F6B833B3FBF0F3DBB29A42164B1B8816
S315000015B00CD040F69D6083421BD001320A70134A5C
S315000015C05378092B0DD0013353707047002BF0D19F
S315000015D00F4A104813800D4A03700B705378092B7D
S315000015E0F1D11378092B08D0013300211370517003
S315000015F07047084B01221A70E1E7002313807047F9
S31500001600DED80320DCD6032058D80320D8D6032002
S3150000161056D8032055D80320704700BF022800D0B3
S315000016207047024B0248596800F018BCFC3B0000AA
S31500001630E0D8032008B5FFF785FE002008BD00BFEF
S3150000164010B4046AA37803F07B03A370837803F0D5
S315000016500303D21A0B440261A278C360837803F0B5
S31500001660030342F08002022BA27005D00B78E370D0
S3150000167000205DF8044B70470B8843F47E43E381FA
S3150000168000205DF8044B7047F0B5846A85B00546C6
S315000016900F4694466E46B4B194E80F0086E80F00F4
S315000016A0EB691B7884F804C02360EB6A2046C4E922
S315000016B002736B6A9847AC6A1CB196E80F0084E81F
S315000016C00F0005B0F0BD3446EAE700BF2DE9F0474C
S315000016D003460A780020187002F100724C695C62B9
S315000016E002F560528C695201C3E907129A78C3E980
S315000016F00A04012565F301029A704A7822B99A789C
S31500001700022060F301029A7091F90B50B74A8E7A63
S315000017106809203005F01F07012404FA07F742F88C
S315000017202070BFF34F8FBFF36F8FB148B14F05F1F4
S31500001730C00C360150F82CE06FF3104E40F82CE048
S3150000174002EB050CF6B28CF8006347F8253091F9E8
S3150000175005500E794FEA551C0CF1200C05F01F0EB2
S3150000176004FA0EFE42F82CE0BFF34F8FBFF36F8FE3
S3150000177005F1C00C02EB050850F82CE03601F6B274
S315000017806FF3104E40F82CE088F8006347F82530D8
S3150000179091F907508E794FEA551C0CF1200C05F093
S315000017A01F0E04FA0EFE42F82CE0BFF34F8FBFF374
S315000017B06F8F05F1C00C02EB050850F82CE03601DE
S315000017C0F6B26FF3104E40F82CE088F8006347F845
S315000017D0253091F909600D7A4FEA561C0CF1200C60
S315000017E006F01F0E04FA0EFE42F82CE0BFF34F8FF0
S315000017F0BFF36F8F06F1C00C324450F82CE02D0178
S31500001800EDB26FF3104E40F82CE082F8005347F823
S315000018102630EFF3108584F31088774A0E78D2F8D5
S3150000182000014FF00044F44020EA0400C2F8000131
S31500001830D2F8002185F310881A6ACD6900209070CD
S31500001840107150729072D07250830C7840F2FF3053
S31500001850E040C00744BF4020D074062010770878C7
S315000018604E788F7840F2FF34C440C878E10744BF11
S315000018704FF478419182C100032E41EA071100F02E
S31500001880B080002E14BFF220E220C9B21170907110
S31500001890297B490001F0020151736978A878C901D2
S315000018A0400100F02000C9B20143002010722E78DA
S315000018B0B01E012840F28C80C9B2D171696888785F
S315000018C0507010784C7864F301001070C8789074EA
S315000018D00978D07901F05C0100F0A3000143D171D1
S315000018E00020C3E90300C3E90500D3F81C80404C7F
S315000018F098F9057007F1C00C790954F82C90890005
S3150000190001F160414FF0010E01F5614160F31049AC
S3150000191007F01F0744F82C900EFA07F7C1F88071FC
S315000019200F6098F90BC0354F0CF1C0094FEA5C11F6
S3150000193054F829A0890001F1604101F5614160F385
S31500001940104A0CF01F0C44F829A00EFA0CFCC1F842
S3150000195080C1C1F800C098F9071001F1C0094FEA2B
S31500001960511C54F829A04FEA8C0C0CF1604C0CF574
S31500001970614C60F3104A01F01F0144F829A00EFAE9
S3150000198001F1CCF88011CCF8001098F909C00CF1DF
S31500001990C0084FEA5C110CF01F0C0EFA0CFE54F84E
S315000019A028C0890060F3104C01F1604144F828C05A
S315000019B001F5614106F0030646F07006C1F880E1C4
S315000019C0C1F800E096706A891A815F60BDE8F08709
S315000019D0022E08BF41F01001FF20C9B25070D1712C
S315000019E07EE741F04001F2204FE700BF00E100E052
S315000019F0006000405CDA0320006F04405549435301
S31500001A0030B4EFF30383103B5BB203F1C0011C4A11
S31500001A101C4C52F821006FF3104042F8210054F894
S31500001A202300C3691B691BB103691BB130BC704736
S31500001A30036963B9046AA37803F07F03002143F0C6
S31500001A400403A370802230BCC160FFF71DBE8278FC
S31500001A5002F003010229C1680BD0046A91F800C0A4
S31500001A6084F803C002F003029B1A0A44C0E9032368
S31500001A70DBE70C88056A44F47E44EC81F2E700BF9C
S31500001A80006000405CDA032010B582B0EFF30383F8
S31500001A90103B5BB203F1C0011C4A1D4C52F82100F9
S31500001AA06FF3104042F8210054F82340A27802F068
S31500001AB00303022B236A0CBF198A5979A3690CBF49
S31500001AC0C1F30801C9B2019133B90422204602B01C
S31500001AD0BDE81040FFF7D8BD02F0030201A9606916
S31500001AE002F02EF8D4E90521A37803F003031A4483
S31500001AF0C91AC4E9052109B102B010BD0122204668
S31500001B0002B0BDE81040FFF7BFBD00BF0060004057
S31500001B105CDA032038B5EFF30384103C0A4B64B259
S31500001B20022253F82400056AAB7803F07B03AB70FE
S31500001B300021FFF7A9FDC034044B53F824206FF3AE
S31500001B40104243F8242038BD5CDA032000600040D0
S31500001B5010B5EFF30384103C174B64B253F824001E
S31500001B60837803F00303022B036A0CBF198A5979A1
S31500001B7093F804C00CBFC1F30801C9B21CF0100FE2
S31500001B800CF0380206D093F81CC01CF0010F08BFF9
S31500001B9042F0400293F804C00CF0C70C83F804C06E
S31500001BA0FFF772FDC034054B53F824206FF3104243
S31500001BB043F8242010BD00BF5CDA0320006000401B
S31500001BC000230360184670470B0A1B01044853FAAA
S31500001BD081F150F82130C3F34003002013707047A1
S31500001BE000080440090A490101F1804101F58021FC
S31500001BF000204B6813807047090A490101F18041B2
S31500001C0023EA020001F580211A4042EA00428A6076
S31500001C1000207047C8B2012383404AB91A040B0A50
S31500001C205B0103F1804303F5802300209A6070472F
S31500001C309AB2F4E7090A490101F1804101F58021D0
S31500001C4010B40C6802EA0300204362EA0302024071
S31500001C505DF8044B0A600020704700BF090A49017D
S31500001C6001F1804101F5802100204B68C3F30F4349
S31500001C701380704710B40B0A5B0103F1804303F530
S31500001C808023C8B25C68012181408BB201EA14410D
S31500001C90C91AB1FA81F1490900205DF8044B1170A7
S31500001CA0704700BF090A490101F1804123EA020099
S31500001CB001F580211A4042EA0042CA6000207047BE
S31500001CC0014B00201A707047000D04400B0A5B019F
S31500001CD003F18043012A03F580230AD0D868C9B2EC
S31500001CE04FF480328A400243120C1204DA6000205C
S31500001CF07047C8B2D96882400A4392B2DA600020BF
S31500001D00704700BF38B50488002C4DD043680021C9
S31500001D10043303EBC40040F202450C4640F2034C88
S31500001D2040F2044E0FE0624530D153F8042C02F025
S31500001D30B852B2F1807F14BF41F0020144F00204B0
S31500001D400833834211D01A88AA42ECD153F8042CE6
S31500001D5002F0B852B2F1807F03F1080314BF41F0DC
S31500001D60010144F001048342EDD1C943CDB2012003
S31500001D7001F066FA0D4B93F8BB2414432C4083F80C
S31500001D80BB440120BDE8384001F02ABA7245D7D1DC
S31500001D9053F8042C02F0B852B2F1807F0CBF44F025
S31500001DA0040441F00401CBE7FF25E0E700E0014031
S31500001DB0F8B50446FFF7A6FFEFF31082012383F37D
S31500001DC01088234E33681BB92249CB704023CB7051
S31500001DD033680133336082F3108825882DB3626837
S31500001DE01D4C013DADB202F1080101EBC50500E055
S31500001DF008311068928810F4803F4FEA12235FFA88
S31500001E0082FC0CEB031E09D054F82E7020F48032AD
S31500001E106FF3104744F82E7044F82E201B016344DC
S31500001E208D4244F823000A46E2D1EFF310820123E3
S31500001E3083F31088336813B13368013B336033682A
S31500001E401BB904498020CB70C87082F31088F8BD96
S31500001E5058DA0320000D04400008044008B5034684
S31500001E60034A1A600846FFF7A3FF002008BD00BF1B
S31500001E7054524F5008B50846FFF79AFF002008BD98
S31500001E8070B584B002AB012668460C461546ADF81F
S31500001E900C100292ADF800600193FFF733FFEFF3E9
S31500001EA0108286F310881D490B681BB91C48C37045
S31500001EB04023C3700B6801330B6082F31088EA037A
S31500001EC04FEA1423E4B219D41B01164A234442F8FC
S31500001ED02350EFF31082012383F310880B6813B1AC
S31500001EE00B68013B0B600B681BB90D498020CB705A
S31500001EF0C87082F31088002004B070BD04EB031094
S31500001F00084A52F820606FF3104642F8206025F424
S31500001F10803642F820601B01D7E700BF58DA03205D
S31500001F20000D044000080440F0B591F902C080F8A5
S31500001F3004C04FEA8C03D1E9026403F1804303F540
S31500001F40C0430022D3F80053C3F80023C0E902645B
S31500001F50124C91F800E080F805E004F80E200F79A5
S31500001F60CA784E7942EA071242EAC612D2B2BCF1E8
S31500001F70000F04F80E20C3F800530BDB4B7808491A
S31500001F800CF160421B0102F56142DBB282F80033BC
S31500001F9041F82C00034B03600020F0BD00600040B8
S31500001FA05CDA03205543490010B490F904200D4B28
S31500001FB002F1C000012153F820406FF3104443F8AA
S31500001FC0204053099B0003F1604303F5614302F08F
S31500001FD01F0201FA02F2C3F8802100205DF8044BCB
S31500001FE01A6070470060004010B582B0EFF30384BA
S31500001FF0103C164B164964B253F8242050790B5CFA
S3150000200003F00303032B0FD0C03451F824306FF3D1
S31500002010104341F82430936823B1D268CDE90020FB
S315000020206846984702B010BD936823B1D268CDE9DF
S31500002030002068469847064BC03453F824206FF3B7
S31500002040104243F8242002B010BD00BF5CDA032022
S31500002050006000402B4B10B4C3600B7803F0010303
S315000020604370EFF3108C012484F31088264BD3F8C9
S31500002070082122F48012C3F80821D3F808318CF322
S315000020801088EFF3108C84F310884278002A33D13D
S31500002090C468237962F3861323718CF310884A6827
S315000020A0C468D378DB01DBB26371A379D3B94B780B
S315000020B0C3B1EFF3108C012383F31088124BD3F8CE
S315000020C0084124F40044C3F80841D3F808318CF3DE
S315000020D01088C36803F580544FF0020C84F8C0C022
S315000020E080249C71537803720A780270074B436010
S315000020F05DF8044B00207047C26813796FF3C7136D
S315000021001371CAE700E00540006F044000434144F4
S31500002110C3684278002023F81210704738B5037A56
S315000021200446002B3AD0C368427833F81250002197
S3150000213023F81210ADB2EFF3108C012383F310884D
S31500002140E36840781A7900283DD061F3C7121A7106
S315000021501A7F42F080021A771A7A42F080021A72C7
S315000021601A7942F080021A718CF31088012104203A
S3150000217000F0D8FFEFF31081012383F31088627813
S315000021808ABBE068037F62F38613037781F31088C6
S31500002190E3686278002023F8125038BDEFF310830D
S315000021A0012282F310884278C1683AB10A7942F076
S315000021B080020A7183F31088002038BD0A7942F044
S315000021C040020A71F6E760F386121A711A7F42F02E
S315000021D040021A771A7A42F040021A721A7942F0CD
S315000021E040021A71C0E7E268137F6FF3C7131377D3
S315000021F0CCE700BFF0B5076A8DB006466FB3BE46A2
S315000022008C46BEE80F0001AC0FC4BEE80F000FC439
S315000022109EE8070084E80700BCE80F003D460FC5AE
S31500002220BCE80F000FC59CE807008EE80700F369BD
S3150000223038469847336A73B10DF1040E9C46BEE8E2
S315000022400F00ACE80F00BEE80F00ACE80F009EE8F8
S3150000225007008CE807000DB0F0BD0F46E7E700BFAA
S31500002260437B934210B4446852D0B4F840386FF3BD
S315000022708A23A4F84038B4F840384FF0020C6CF3C7
S315000022800923A4F84038B4F8423803F4E063B3F500
S31500002290007FF8D1022384F85828427303739942C9
S315000022A015D00529B4F8403814D06FF38A23A4F862
S315000022B04038B4F8403861F309230A02A4F84038DC
S315000022C0B4F8423803F4E0639342F9D101735DF840
S315000022D0044B70476FF38A23A4F84038B4F84038AB
S315000022E0022262F30923A4F84038B4F8423803F412
S315000022F0E063B3F5007FF8D1B4F8403843F4806367
S31500002300A4F84038B4F842385B05FBD50173DEE724
S31500002310037BC4E79DF800C048B102280ED0002315
S3150000232022F060421A4342EA8C720A607047074BF9
S3150000233003EA824242EA8C720A607047002BF6D0AA
S31500002340012B14BF00234FF00043E9E70000FC1FF8
S31500002350F0B54468651883B095F82038DB0925D1B7
S315000023601746026801F12003126904EB03111E01EE
S315000023707B79107B00933B793A68FFF7CBFFB31D5F
S31500002380BA7923448C8862F303048C8007F10C002D
S3150000239099182AB110F8012B03F8012B8B42F9D1B9
S315000023A08023002085F8203803B0F0BD4EF6632068
S315000023B003B0F0BD2DE9F04F0C680D6904F58024DB
S315000023C05034240385B0884607464460EFF3108CEA
S315000023D0012181F31088934AD8F80030D2F80061C1
S315000023E0C3F1020301FA03F326EA0303C2F800313C
S315000023F0D2F800318CF31088D8F80830C361D8F8C9
S315000024000C30C0F800800026C0E908632B780376FC
S315000024103246FFF725FF2B7D2A7BD8F80410DB0018
S3150000242043EA420343F4E073A4F840388B684A68F1
S31500002430D1F80CC0013B013A1B0243EA02730A6859
S315000024400CF1FF3143EA0133511E027E1343764AF3
S3150000245002EA01421343C4F8443832460221FFF728
S31500002460FFFE04F50073802284F850283146184692
S315000024704FF4007201F072FB2B69014609E09E429F
S3150000248012D3A0190136202E80F8202801F1100160
S3150000249018D0A86800EBC60C4FEAC60E9CF80620BA
S315000024A0002AECD00022ECE79CF804309CF805C02A
S315000024B050F80E20287BCDF800C0FFF72BFF2B69C4
S315000024C04022DEE79B0800F0A9806A680397A2F124
S315000024D0040C00220CEB830396466FF060494FF024
S315000024E00F0B5CF8041F494502F580760ED295F86D
S315000024F00CA09000BAF1000F02D14C4F07EA8141BF
S3150000250044F826100BFA00F14EEA010E9C4502F142
S315000025100102E6D1039F6FEA0E030022C4F82834B5
S3150000252011463846FFF79CFEB4F8403843F02003C6
S31500002530A4F84038B4F84038C3F340109B06F9D4E9
S3150000254098F9153098F81410DFF8E8C0DFF8E8E0DD
S31500002550374E0CEB03020901C9B282F8001303F1EE
S31500002560C0054EF823705A0956F82590920060F37C
S31500002570104902F1604246F8259002F561420125B4
S3150000258003F01F0305FA03F3C2F88031136098F9CC
S315000025901630DFF8A8900CEB030203F1C00A82F8AC
S315000025A000134EF823705A0956F82AB0920002F129
S315000025B0604202F5614260F3104B03F01F0346F8D8
S315000025C02AB005FA03F3C2F88031136098F9172090
S315000025D0944453098CF800134EF8227002F1C0019E
S315000025E09B0002F01F0205FA02F203F1604356F85F
S315000025F0215003F5614360F3104546F82150C3F8B6
S3150000260080211A603E2384F84C384FF0FF33C4F81B
S315000026102C34C7F8089005B0BDE8F08F4FF0FF33B3
S315000026207BE700BF006F04400000FF030000FC1FB3
S315000026300060004000E100E05CDA03204E414352B6
S3150000264030B58DB0EFF30383103B5BB22E4AC03337
S3150000265052F823106FF3104142F82310EFF303836F
S31500002660103B5BB2294A52F8235000212C2201A8C4
S3150000267001F074FA6C6894F84D380020DBB284F8E7
S315000026804D08ADF80830B4F84218C1F30012C90677
S3150000269038D543F02003ADF80830022394F85328C8
S315000026A084F8533894F8523803F01F03D2B2E11875
S315000026B084F8532891F8202860F3820281F82028B4
S315000026C02A681268019201A96A6A0493284606924A
S315000026D0FFF790FDB4F84238DB0611D52B681A696E
S315000026E0127D6AB193F91530002B09DB5A090848A7
S315000026F003F01F030121403201FA03F340F82230B0
S315000027000DB030BD1346DBE7006000405CDA032005
S3150000271000E100E02DE9F0418CB0EFF30383103BBC
S315000027205BB2404AC03352F823106FF3104142F8AF
S315000027302310EFF30384103C3B4B66B2002253F8A0
S315000027402600D0E900E595F8533885F8532895F822
S31500002750527807F01F07DBB207F1200285F85338DD
S31500002760130104F0FF0455F803C0CCF380718DF813
S315000027702110E958DEF810301B7B43EAD17303F0D1
S3150000278001038DF82030002B48D1CCF38A4305EBAA
S31500002790021207939188C1F3030301F00F01082980
S315000027A08DF8223037D908218DF822100AAA002385
S315000027B005EB071808EB030C01339CF806C202F878
S315000027C001CB8B42F6D3DEF8003004972F440193F9
S315000027D0442387F820380023099307AB05934FF469
S315000027E08063ADF8083001A9436A0693FFF702FD3E
S315000027F0B5F84238DB070BD5002E09DB76090B4A04
S3150000280004F01F040123403603FA04F442F826407C
S315000028100CB0BDE8F0810029C8D1D4E72CF06043A4
S31500002820B5E700BF006000405CDA032000E100E08D
S3150000283070B58CB0EFF30383103B5BB2214AC03313
S3150000284052F823106FF3104142F82310EFF303837D
S31500002850103B1D4A5BB2012652F823506C6894F86F
S31500002860532884F8536894F85238D2B203F01F0301
S3150000287084F853280493E2184FF40063ADF8083047
S315000028802B681B6801936B6A0693002382F8203835
S3150000289001A982F8203828460593FFF7ABFCB4F867
S315000028A042389B070CD52B6893F91730002B07DBB2
S315000028B05A09064903F01F0340329E4041F8226040
S315000028C00CB070BD006000405CDA032000E100E05F
S315000028D08268117A01F00101137AC3F34003994229
S315000028E0FAD1F12313720020704700BFF0B40B7CBD
S315000028F003F1401303F500631B02C0E90113EFF374
S315000029001085012383F310880C7C394AC4F1030433
S31500002910A340D2F8084124EA0303C2F80831D2F8EA
S31500002920083185F31088826800231372137AC3F383
S31500002930400C9B07FAD4CC6982F80AC0E378267863
S315000029400D7A247903F00703002E42D1002D47D1DA
S3150000295014734C684768002696735372631E95720B
S315000029609BB2C4603D7C1380224B43F8254091F90D
S315000029701230B34222DB4A7C03F1604404F5614421
S315000029801201D2B284F800231B4A1C4C42F82300E1
S3150000299003F1C0055A0954F82570920002F160420D
S315000029A066F3104744F8257002F5614203F01F03F1
S315000029B0012404FA03F3C2F880311360D1E905411A
S315000029C000230F4A0461C0E905310260F0BC1846D5
S315000029D07047502E06BF43F0500365463343B7E7B2
S315000029E085F0020543EA0513DBB23546B0E700BFC2
S315000029F0006F044010DA03205CDA03200060004018
S31500002A0054474100F0B585B0EFF30383103B5BB24A
S31500002A1003F1C0011F4A204C52F821006FF3104009
S31500002A2042F8210054F82350D5E901020178137ABF
S31500002A300129DBB20CD1F42103F0F0031172E9682D
S31500002A401372047C154840F82410013989B21180AC
S31500002A502F69B7B16C6901AECCB194E8070086E87E
S31500002A6007009B0644BF00232371AB692360204601
S31500002A70B8476B691BB196E8070083E80700AA68A8
S31500002A80137ADBB203F00F03137205B0F0BD3446C0
S31500002A90E7E700BF006000405CDA032010DA03209D
S31500002AA0034600201A689B8A138070470268002339
S31500002AB018461380704700BF03681B88C3F3C033F2
S31500002AC000200B70704700BF03681031002033F8F8
S31500002AD011301380704700BF43682DE9F041D1E9FA
S31500002AE001260C685D6903681FFA84F8A3F8048060
S31500002AF01FFA82F8A3F8148022F0405C1FFA86F8C9
S31500002B0024F0405E26F040572243A3F808804FEA9F
S31500002B101C4C3F0C4FEA1E4812F0405FA3F806809B
S31500002B20A3F816C05F815BD18A7CCE7CCF68120287
S31500002B3002F4E0623243A3F86620002F00F0B18071
S31500002B40B7F808C01CF4006F20D0D7E90062B7F8C8
S31500002B500A80A3F890C0A3F89C80B7F80C80A3F86D
S31500002B609E801FFA86F8A3F89480C6F30B48360FAA
S31500002B70A3F8968083F8926096B2A3F89860C2F3A1
S31500002B800B46120FA3F89A6083F893201CF4007F7B
S31500002B901AD10A8AA3F890C0A3F88020EA786AB10D
S31500002BA01A88818A92B222F01F02BEFA8EFE1F3266
S31500002BB0A2EB0E0292B211431A8081823A4BC0E90F
S31500002BC003340020BDE8F081BA7CFE7C324383F8F2
S31500002BD0A620FA89A3F8A8203A8AA3F8AA20D8E75B
S31500002BE0324FD7F82080324F3F68C8F3026C07FA9D
S31500002BF00CFCC8F302182F4F2CFA08FCA7FB0C7C20
S31500002C004FEA9C1C2C4F41F2360808FB0CFCA7FB34
S31500002C100C7C4FEA9C4C0CF1010CBCF1070F38BF41
S31500002C204FF0070C12F0805727D0EFF310860123E0
S31500002C3083F31088214BD3F8084124F48004C3F8A9
S31500002C400841D3F8083186F310881D4F0C688E684A
S31500002C5003684FF0900814F0805F87F800805FFAF1
S31500002C608CF783F8DE7014BF4FF480774FF48067DB
S31500002C7016F0805F18BF47F0010792000ED5A2003C
S31500002C8048BF47F400775FFA8CFC58BF47F40067EB
S31500002C90B20083F8DFC048BF47F00207BFB25F82C9
S31500002CA042E7BC4675E700BF4344415200E001409D
S31500002CB0E4DB0320D34D621083DE1B43006F044028
S31500002CC000D005400B882DE9F043D1E903525B02A1
S31500002CD003F180434C69026203F5B82300220360C6
S31500002CE085614160C2614A798E78E578130243EACC
S31500002CF04633002D00F0E18043F43073022A08BF0A
S31500002D00744A9BB208BF32F825E0838218BF4FF0A1
S31500002D10000E0A79CD7894F801C02678D20342EAEB
S31500002D20450242EA4C1CEFF31088012585F3108812
S31500002D30694F0A88D7F80891C2F1100205FA02F223
S31500002D4029EA0202C7F80821D7F8082188F3108873
S31500002D5047F6FF5702683B401FFA8CFC1380A2F827
S31500002D6010E049F69913A2F80EC016730026A2F8D1
S31500002D70B061A2F8A03191F90630B34221DB0A7A9C
S31500002D8003F1604707F561471201D2B287F80023C5
S31500002D90524A534F42F8230003F1C00C5A099200DD
S31500002DA003F01F0305FA03F302F1604257F82C50B3
S31500002DB002F5614266F3104547F82C50C2F880319F
S31500002DC0136091F90730002B22DB4A7A03F1604148
S31500002DD001F561411201D2B281F800233F4A404910
S31500002DE042F8230003F1C0055A0951F82560920004
S31500002DF002F160426FF3104641F8256002F5614228
S31500002E0003F01F03012101FA03F3C2F880311360B6
S31500002E1094F90630002B22DB227A03F1604101F59A
S31500002E2061411201D2B281F800232C4A2C4942F8A2
S31500002E30230003F1C0055A0951F82560920002F1FA
S31500002E4060426FF3104641F8256002F5614203F0D7
S31500002E501F03012101FA03F3C2F88031136094F9CC
S31500002E600730002B22DB627A1C4C03F1604101F52E
S31500002E7061411201D2B281F8002344F8230003F124
S31500002E80C001174A52F821406FF3104442F821401E
S31500002E905A09920002F1604202F5614203F01F03F3
S31500002EA0012101FA03F3C2F88031136000230D4AB1
S31500002EB0036182601846BDE8F0833AB943F40043E3
S31500002EC043F040039BB28382964622E743F04003D9
S31500002ED014E700BFAC3F0000006F04405CDA03203B
S31500002EE0006000404344415270B40021C0E9021121
S31500002EF0436893F906205C698A4211DB5309374E11
S31500002F00203302F01F0C012505FA0CF546F8235074
S31500002F10BFF34F8FBFF36F8F314B43F822104368D7
S31500002F2093F90730002B11DB5A092C4D03F01F0CC7
S31500002F302032012101FA0CF145F82210BFF34F8F20
S31500002F40BFF36F8F264A002142F8231094F906300A
S31500002F50002B11DB5A09214D03F01F0C20320121F1
S31500002F6001FA0CF145F82210BFF34F8FBFF36F8FB4
S31500002F701B4A002142F8231094F90730002B10DB7E
S31500002F8003F01F045A090121A1402032134C44F8D2
S31500002F902210BFF34F8FBFF36F8F114A002142F803
S31500002FA02310036800221A821A80A3F86620EFF322
S31500002FB01084012383F3108840680A490088C0F111
S31500002FC010008340D1F808010343C1F80831D1F855
S31500002FD0083184F31088104670BC704700E100E0A9
S31500002FE05CDA0320006F0440064B074993F826007D
S31500002FF01A6A51F820300549C2F30262D3400B60C9
S31500003000704700BF00E001401CD80320E4DB03202A
S3150000301030B4374B374C3849384800224AF203550A
S31500003020A3F8FE53A4F80021354C4C60354D364CC0
S3150000303008604FF40040C1E9020493F82640C1E954
S31500003040040551F824001C6A304DC4F30264E040C4
S315000030500924286083F8132483F8A24093F8800497
S3150000306018B183F8812483F88024214A062000239E
S3150000307082F8A50082F8323092F83C301807FBD56A
S31500003080002342F20170108582F82A30184B93F81B
S315000030903C209206FBD5174A022082F81C01052027
S315000030A083F826001A48186293F826001C6A51F81D
S315000030B02000C4F3026C20FA0CF0286001214024A1
S315000030C04FF4254083F8301083F8521083F85310DC
S315000030D083F82440A3F8FE03A2F80411B2F80431E1
S315000030E09BB2002BFAD1012330BCA2F80031704705
S315000030F000E0014000C001401CD80320002D310132
S3150000310000127A00001C4E0E00366E01E4DB03202E
S3150000311021120121704700BFA0F101000028FBD158
S31500003120704700BF30B5144D144A00FB01F14FF44F
S315000031307A732868B2FBF0F2A1FB03C44FF0FF30AC
S315000031404FF0000E60457EEB040407D3BCFBF2F0A3
S31500003150800878B1BDE83040FFF7DEBF9200B1FBD2
S31500003160F2F1A1FB031388427EEB0303F2D3084678
S315000031700028EFD130BD00BFE4DB032000CA9A3B34
S315000031800B4B70B5B3F840510A4E0024ADB225FA88
S3150000319004F3DB07E0B203D556F8243003B19847B1
S315000031A00134102CF3D1024BA3F8305170BD00BF8F
S315000031B00060004018DA032010B4074A074C0023C9
S315000031C003F1C001013332F8020F44F82100602BED
S315000031D0F6D15DF8044B7047B23E00000060004037
S315000031E0EFF31081012383F31088124B33F810207C
S315000031F092B22AB133F81020013A92B223F8102085
S3150000320033F810309BB293B90B4A10B4B2F8FE33C0
S315000032100A4C9BB234F8100043F4254323EA00031A
S31500003220A2F8FE3381F310885DF8044B704781F3F2
S3150000323010887047DCDB032000E00140B83F000047
S3150000324030B4EFF31081012383F310880E4A32F86D
S3150000325010309BB26BB90D4C0D4DB4F8FE3335F8FA
S3150000326010C09BB243EA0C0343F425439BB2A4F877
S31500003270FE3332F8103001339BB222F8103081F35E
S31500003280108830BC704700BFDCDB032000E0014043
S31500003290B83F000000BE704708B500F003F8FEF71F
S315000032A0C9F9FEE7224B234A4FF4700170B500209E
S315000032B0C3F888109A60FEF7B1F9FFF7A9FE01205E
S315000032C0FEF7ACF91C4B1D491D4D1E4E1E481F4AEC
S315000032D000244FF4254C9C80A3F800C09E60DD605E
S315000032E04FF48055A1F8205101219980121A2146E8
S315000032F000F034FC1648174A1749184D121A00F008
S315000033001FFC174B5B1BA34206DD9E1055F8043BC2
S3150000331001349847A642F9DCFFF766FE0220FEF765
S315000033207DF9FFF749FFBDE870400020FFF7F2BEC8
S3150000333000ED00E000000000000D004000600040CD
S31500003340E8DF0320E8DB032038D80320E8DB03208E
S315000033500000FE1F1CD80320C43F000014D8032021
S3150000336018D8032081F0004102E000BF83F000433B
S3150000337030B54FEA41044FEA430594EA050F08BF0A
S3150000338090EA020F1FBF54EA000C55EA020C7FEACE
S31500003390645C7FEA655C00F0E2804FEA5454D4EB4B
S315000033A05555B8BF6D420CDD2C4480EA020281EA15
S315000033B0030382EA000083EA010180EA020281EA4D
S315000033C00303362D88BF30BD11F0004F4FEA01319F
S315000033D04FF4801C4CEA113102D0404261EB4101AE
S315000033E013F0004F4FEA03334CEA133302D0524234
S315000033F063EB430394EA050F00F0A780A4F10104F0
S31500003400D5F1200E0DDB02FA0EFC22FA05F2801829
S3150000341041F1000103FA0EF2801843FA05F359410F
S315000034200EE0A5F120050EF1200E012A03FA0EFC8E
S3150000343028BF4CF0020C43FA05F3C01851EBE371B8
S3150000344001F0004507D54FF0000EDCF1000C7EEBD5
S3150000345000006EEB0101B1F5801F1BD3B1F5001F13
S315000034600CD349085FEA30004FEA3C0C04F1010432
S315000034704FEA445212F5800F80F09A80BCF1004F5B
S3150000348008BF5FEA500C50F1000041EB045141EADD
S31500003490050130BD5FEA4C0C404141EB0101013CA6
S315000034A028BFB1F5801FE9D291F0000F04BF014695
S315000034B00020B1FA81F308BF2033A3F10B03B3F167
S315000034C020020CDA0C3208DD02F1140CC2F10C02F7
S315000034D001FA0CF021FA02F10CE002F11402D8BF55
S315000034E0C2F1200C01FA02F120FA0CFCDCBF41EA21
S315000034F00C019040E41AA2BF01EB0451294330BDF0
S315000035006FEA04041F3C1CDA0C340EDC04F11404CC
S31500003510C4F1200220FA04F001FA02F340EA0300A3
S3150000352021FA04F345EA030130BDC4F10C04C4F1E9
S31500003530200220FA02F001FA04F340EA03002946C9
S3150000354030BD21FA04F0294630BD94F0000F83F413
S31500003550801306BF81F480110134013D4EE77FEAF6
S31500003560645C18BF7FEA655C29D094EA050F08BF42
S3150000357090EA020F05D054EA000C04BF1946104623
S3150000358030BD91EA030F1EBF0021002030BD5FEA67
S31500003590545C05D14000494128BF41F0004130BD8F
S315000035A014F580043CBF01F5801130BD01F00045E3
S315000035B045F0FE4141F470014FF0000030BD7FEA56
S315000035C0645C1ABF194610467FEA655C1CBF0B4651
S315000035D0024650EA013406BF52EA033591EA030F68
S315000035E041F4002130BD00BF90F0000F04BF002160
S315000035F0704730B54FF4806404F132044FF0000593
S315000036004FF0000150E700BF90F0000F04BF00210B
S31500003610704730B54FF4806404F1320410F0004571
S3150000362048BF40424FF000013EE700BF42004FEA6C
S31500003630E2014FEA31014FEA02701FBF12F07F43E9
S3150000364093F07F4F81F06051704732F07F4208BFA0
S31500003650704793F07F4F04BF41F40021704730B5A7
S315000036604FF4607401F0004521F000411CE700BFF3
S3150000367050EA010208BF704730B54FF000050AE076
S3150000368050EA010208BF704730B511F0004502D577
S31500003690404261EB41014FF4806404F132045FEA79
S315000036A0915C3FF4D8AE4FF003025FEADC0C18BF22
S315000036B003325FEADC0C18BF033202EBDC02C2F114
S315000036C0200300FA03FC20FA02F001FA03FE40EAA6
S315000036D00E0021FA02F11444BDE600BF70B54FF0AA
S315000036E0FF0C4CF4E06C1CEA11541DBF1CEA135588
S315000036F094EA0C0F95EA0C0F00F0DEF82C4481EAF0
S31500003700030621EA4C5123EA4C5350EA013518BF0F
S3150000371052EA033541F4801143F4801338D0A0FBFC
S3150000372002CE4FF00005E1FB02E506F00042E0FBA9
S3150000373003E54FF00006E1FB03569CF0000F18BFAF
S315000037404EF0010EA4F1FF04B6F5007F64F5407457
S3150000375004D25FEA4E0E6D4146EB060642EAC621EA
S3150000376041EA55514FEAC52040EA5E504FEACE2E57
S31500003770B4F1FD0C88BFBCF5E06F1ED8BEF1004F5A
S3150000378008BF5FEA500E50F1000041EB045170BDD6
S3150000379006F0004646EA010140EA020081EA03011A
S315000037A0B4EB5C04C2BFD4EB0C0541EA045170BD16
S315000037B041F480114FF0000E013C00F3AB8014F190
S315000037C0360FDEBF002001F0004170BDC4F10004D9
S315000037D0203C35DA0C341BDC04F11404C4F120055A
S315000037E000FA05F320FA04F001FA05F240EA0200B5
S315000037F001F0004221F0004110EBD37021FA04F6EB
S3150000380042EB06015EEA430E08BF20EAD37070BDA4
S31500003810C4F10C04C4F1200500FA04F320FA05F003
S3150000382001FA04F240EA020001F0004110EBD37005
S3150000383041F100015EEA430E08BF20EAD37070BD75
S31500003840C4F1200500FA05F24EEA020E20FA04F34E
S3150000385001FA05F243EA020321FA04F001F00041FD
S3150000386021FA04F220EA020000EBD3705EEA430E6E
S3150000387008BF20EAD37070BD94F0000F0FD101F09D
S315000038800046400041EB010111F4801F08BF013CD6
S31500003890F7D041EA060195F0000F18BF704703F014
S315000038A00046520043EB030313F4801F08BF013D9B
S315000038B0F7D043EA0603704794EA0C0F0CEA135557
S315000038C018BF95EA0C0F0CD050EA410618BF52EA11
S315000038D04306D1D181EA030101F000414FF0000017
S315000038E070BD50EA410606BF1046194652EA430625
S315000038F019D094EA0C0F02D150EA013613D195EA99
S315000039000C0F05D152EA03361CBF104619460AD1E0
S3150000391081EA030101F0004141F0FE4141F47001EA
S315000039204FF0000070BD41F0FE4141F4780170BDDA
S3150000393070B54FF0FF0C4CF4E06C1CEA11541DBF3F
S315000039401CEA135594EA0C0F95EA0C0F00F0A7F841
S31500003950A4EB050481EA030E52EA03354FEA01316E
S3150000396000F088804FEA03334FF0805545EA131381
S3150000397043EA12634FEA022245EA111545EA106549
S315000039804FEA00260EF000419D4208BF964244F1E0
S31500003990FD0404F5407402D25B084FEA3202B61AFF
S315000039A065EB03055B084FEA32024FF480104FF4D3
S315000039B0002CB6EB020E75EB030E22BFB61A754647
S315000039C040EA0C005B084FEA3202B6EB020E75EBDA
S315000039D0030E22BFB61A754640EA5C005B084FEA42
S315000039E03202B6EB020E75EB030E22BFB61A75460F
S315000039F040EA9C005B084FEA3202B6EB020E75EB1A
S31500003A00030E22BFB61A754640EADC0055EA060EDA
S31500003A1018D04FEA051545EA16754FEA06164FEA1D
S31500003A20C30343EA52734FEAC2025FEA1C1CC0D1C9
S31500003A3011F4801F0BD141EA00014FF000004FF056
S31500003A40004CB6E711F4801F04BF01430020B4F117
S31500003A50FD0C88BFBCF5E06F3FF6AFAEB5EB030CCF
S31500003A6004BFB6EB020C5FEA500C50F1000041EBCC
S31500003A70045170BD0EF0004E4EEA113114EB5C0499
S31500003A80C2BFD4EB0C0541EA045170BD41F480116C
S31500003A904FF0000E013C90E645EA060E8DE60CEA74
S31500003AA0135594EA0C0F08BF95EA0C0F3FF43BAF91
S31500003AB094EA0C0F0AD150EA01347FF434AF95EA48
S31500003AC00C0F7FF425AF104619462CE795EA0C0F2C
S31500003AD006D152EA03353FF4FDAE1046194622E7F9
S31500003AE050EA410618BF52EA43067FF4C5AE50EAD3
S31500003AF041047FF40DAF52EA43057FF4EBAE12E7C3
S31500003B004A0011D212F5001211D20DD56FF4787356
S31500003B10B3EB62520ED44FEAC12343F0004343EAAB
S31500003B20505323FA02F070474FF00000704750EAF6
S31500003B30013002D14FF0FF3070474FF00000704760
S31500003B400A44914200F1FF3300D1704710B511F8D5
S31500003B50014B03F8014F9142F9D110BD02440346CF
S31500003B60934200D1704703F8011BF9E74275696C6F
S31500003B707420776974682052656E6573617320419D
S31500003B806476616E63656420466C657869626C650F
S31500003B9020536F667477617265205061636B61674D
S31500003BA0652076657273696F6E20332E352E300070
S31500003BB0332E352E3000000000000503F8B500BF97
S31500003BC0F8BC08BC9E467047F8B500BFF8BC08BCF8
S31500003BD09E46704781CF9286CCA4A08D808488E0D3
S31500003BE0B1C2B0B805030603070308030E060406B0
S31500003BF00506060607060B060C060D06E0D803208A
S31500003C008C3D0000743F0000000000000000DFDF74
S31500003C10FFFF00000000000000000000203C000044
S31500003C20000102000000DFDFFFFFFFFF05000000CC
S31500003C300000000000000000000000000000001866
S31500003C40000000000000DFDFFFFF000000000000B2
S31500003C5000000000583C0000000102000000DFDF09
S31500003C60FFFFFFFF02000000000000000000000050
S31500003C70000000000000001801000000E0D603204C
S31500003C801916000000000000903C00000C090A0B09
S31500003C9001000000F0D70320F0D60320000000004A
S31500003CA020000000000000000000000000000000EE
S31500003CB000000000B83C0000000000000B0C0400EF
S31500003CC0030000008914000000000000000000004E
S31500003CD00C0C0E0003000000891400000000000018
S31500003CE0000000000D0C070003000000891400000E
S31500003CF000000000000000000E0C08000300000099
S31500003D008914000000000000000000000000000010
S31500003D10CC0C00000000000066060000000C050048
S31500003D2085150000000000002C3D00004000000149
S31500003D30000000FF000000000080000000000000FE
S31500003D4000400000010C060099150000000000006C
S31500003D50543D000040000001000000FF000200008A
S31500003D600C000C010C020C03000000000000000017
S31500003D7089130000000000007C3D000000010000E7
S31500003D8010D803200F00FFFF0000000024000000F1
S31500003D90943D0000004000000600000000400000C6
S31500003DA0080000000040000009000000004000007C
S31500003DB00A000000008000000E0000000000010064
S31500003DC008010000000001000901000000000100D8
S31500003DD00A010000000001000003000004000000CA
S31500003DE005030000040000000603000004000000B4
S31500003DF007030000040000000803000004000000A0
S31500003E00090300000000010303040000000001058F
S31500003E100804000000000105090400000000010478
S31500003E200A040000000001040B0400000000010366
S31500003E300F040000000001100B0500000000011037
S31500003E400C05000005000000040600000500000047
S31500003E50050600000500000006060000050000003B
S31500003E6007060000050000000B0600000500000024
S31500003E700C060000050000000D060000050000000D
S31500003E800E06000004000000000900000400000007
S31500003E900109000005000000080A000005000000F6
S31500003EA0090A0000050000000A0A000005000000DB
S31500003EB0000B000074017501760177010C004000CB
S31500003EC043000E000F008F009200930090009100B7
S31500003ED00D000000000000000000000000000000CF
S31500003EE000000000000000000000000000000000CC
S31500003EF000000000000000000000000000000000BC
S31500003F0000000000000000000000000000000000AB
S31500003F10000000000000000000000000000000009B
S31500003F20000000000000000000000000000000008B
S31500003F30000000000000000000000000000000007B
S31500003F40000000000000000000000000000000006B
S31500003F50000000000000000000000000000000005B
S31500003F60000000000000000000000000000000004B
S31500003F70000000005D1E0000C11B0000751E000051
S31500003F80811E0000751C0000CD1C0000C11C000035
S31500003F90C91B0000151C0000351C00005D1C00003C
S31500003FA0A51C0000E51B0000F91B00000A09000023
S31500003FB00A0900003F0B0000010002000800100083
S30900003FC000000000F7
S31500003FC4080A090A010100000008000800080008A0
S31500003FD40008000800080008000800080008000897
S31500003FE40008000800080008000800080008000887
S31500003FF40008000800080008FF0700080008000879
S315000040040008FF07FF07000800080008000800086A
S315000040140008FF07FF07FF07FF07FF070008000860
S315000040240008000800080008000800080008000846
S3150000403400080008FF07FF07FF070008000800083C
S315000040440008000800080008FF0700080008FF072A
S315000040540008000800080008000800080008FF0718
S315000040640008000800080008000800080008000806
S31500004074000800080008FF07FF070008FF07FF07FE
S31500004084FF0700080008000800080008FF07FF07EC
S31500004094FF0700080008FF070008000800080008DA
S315000040A400080008000800080008000800080008C6
S315000040B4000800080008FF07FF0700080008FF07BC
S315000040C4FF07FF07FF07FF07FF07000800080008B0
S315000040D4FF07FF07000800080008FF07FF07FF07A0
S315000040E4FF0700080008000800080008FF07FF078C
S315000040F4FF07FF07FF07000800080008000800087C
S315000041040008FF07FF070008FF07FF07FF0700086F
S315000041140008FF07FF07FF0700080008000800085B
S31500004124FF07FF07FF07000800080008FF07FF074F
S31500004134FF07FF07FF07FF0700080008000800083D
S315000041440008000800080008000800080008000825
S315000041540008000800080008000800080008000815
S315000041640008000800080008000800080008FF0707
S31500004174000800080008000800080008FF07FF07F9
S31500004184000800080008FF07000800080008FF07E9
S31500004194000800080008FF07FF07FF07FF07FF07DF
S315000041A4000800080008FF07FF07000800080008C9
S315000041B40008FF07FF0700080008000800080008B9
S315000041C4FF07FF0700080008000800080008FF07AB
S315000041D4FF07FF0700080008000800080008FF079B
S315000041E4FF07000800080008000800080008000887
S315000041F40008000800080008FF07FF07FF07FF077D
S315000042040008FF07FF07FF07000800080008FF076C
S31500004214FF07000800080008000800080008000856
S31500004224FF07FF07000800080008FF07FF07FF074E
S315000042340008000800080008000800080008000834
S315000042440008000800080008000800080008000824
S31500004254FF07000800080008FF0700080008000818
S31500004264000800080008FF07FF0700080008000808
S31500004274000800080008FF07FF07000800080008F8
S31500004284000800080008FF07FF07000800080008E8
S315000042940008000800080008FF07000800080008D6
S315000042A40008FF07FF07FF070008000800080008CA
S315000042B40008FF07FF070008FF07FF0700080008BC
S315000042C40008FF07FF070008000800080008FF07AA
S315000042D4FF07FF07FF070008FF070008000800089C
S315000042E4FF07FF07FF07000800080008000800088A
S315000042F4FF07FF07000800080008FF07000800087A
S31500004304FF07FF07FF070008000800080008FF076B
S31500004314FF07FF0700080008000800080008000857
S315000043240008000800080008000800080008FF0745
S31500004334FF07000800080008000800080008000835
S315000043440008000800080008000800080008000823
S315000043540008000800080008000800080008000813
S3150000436400080008FF07FF07000800080008FF0709
S31500004374FF0700080008FF07000800080008FF07F9
S31500004384FF07000800080008000800080008FF07E7
S315000043940008000800080008FF07000800080008D5
S315000043A4000800080008FF070008000800080008C5
S315000043B4FF07FF07000800080008000800080008B7
S315000043C4FF07FF07FF070008FF07000800080008AB
S315000043D4FF07FF0700080008000800080008000897
S315000043E4FF0700080008FF07FF0700080008000889
S315000043F4000800080008FF07FF07FF070008000879
S31500004404000800080008FF07FF07FF07FF0700086A
S315000044140008000800080008FF07FF070008000856
S315000044240008FF070008FF07FF07FF07FF0700084C
S3150000443400080008FF07FF070008FF070008FF073A
S31500004444FF070008FF070108FE07F507F407F5074D
S31500004454F90700080208FF07F907F407F307F4074A
S31500004464FA07000802080008FA07F407F107F50737
S31500004474FC070008FC07F507F207F307F407F6073D
S31500004484FA0701080308FE07F707F307F407F70717
S31500004494FD0700080008FD07F807F407F307F70708
S315000044A4FD0700080008FE07FA07F407F107F507F9
S315000044B4FD070008FB07F607F407F407F307F307FD
S315000044C4F907010804080108FB07F407F007F307D6
S315000044D4FB07FF07FB07F507F307F507F607F507DD
S315000044E4F807FE0701080008FB07F707F407F507B6
S315000044F4F907FE070108FF07FA07F507F407F607A9
S31500004504FA07FF070008FE07F907F507F307F6079A
S31500004514FC0700080108FD07F807F407F307F60788
S31500004524FC0700080108FF07FB07F507F107F30777
S31500004534FB07FF07FD07F707F407F507F807FD076D
S315000045440008FF07FA07F707F607F507F207F30768
S31500004554F907FF070108FF07FB07F507F207F60748
S31500004564FE07FF07F907F207F207F407F507F60750
S31500004574FB0700080108FF07FA07F407F007F4072A
S31500004584FC070008FC07F707F507F407F107F2072D
S31500004594F907FF07FD07F807F607F507F307F2071C
S315000045A4F807FF07FD07F607F307F507F507F4070E
S315000045B4F80700080308FE07F807F407F407F607E8
S315000045C4FB0701080308FE07F607F207F207F707D9
S315000045D4FD0702080208FE07F807F307F307F607C4
S315000045E4FC0700080108FE07FA07F407F307F607B5
S315000045F4FC07FF07FF07FE07FB07F607F207F607A8
S31500004604FD07FF07F907F507F407F507F307F407AE
S31500004614F907000803080108FC07F407F007F30785
S31500004624FB07FF07FC07F707F507F407F207F3078D
S31500004634F807000803080108FB07F407F107F40765
S31500004644FC07FF07FB07F507F307F507F507F5076B
S31500004654F907FF070208FF07FA07F407F107F5074A
S31500004664FC07FF07FB07F407F207F507F607F6074B
S31500004674F907FF070208FF07F907F407F407F70726
S31500004684FC0700080108FE07F907F407F307F70714
S31500004694FE070008FB07F307F107F407F607F6071A
S315000046A4F90700080408FF07F707F507F907FF07E6
S315000046B40108FF0700080108FE07F507EF07F307DF
S315000046C4FC07FF07FB07F607F607F507F207F307EC
S315000046D4FB070008FD07F507F207F307F507F507DB
S315000046E4FA0701080308FF07F707F307F407F807B3
S315000046F4FB07FE07FF07FD07F907F607F407F707A9
S31500004704FB07FF07FF07FD07FA07F607F407F60797
S31500004714FA07FE0700080008FC07F407EF07F3078B
S31500004724FC070008FC07F707F507F407F107F1078C
S31500004734F707000805080308FD07F507EF07F10763
S31500004744F907FE07FC07F607F407F607F607F4076A
S31500004754F707FD070108FE07F907F607F607F70747
S31500004764FB07FF070008FD07F807F407F407F70738
S31500004774FC0701080108FE07F807F307F207F60726
S31500004784FC0701080208FF07F907F307F107F40716
S31500004794FB07010802080008FA07F407F207F50701
S315000047A4FB07FF070008FF07FB07F507F007F407F9
S315000047B4FC070008FB07F407F307F507F407F407FB
S315000047C4F807FF0703080108FC07F507F007F107D8
S315000047D4F807FE07FE07F807F507F607F907FC07CB
S315000047E4FF07FF07FB07F707F407F507F407F507C5
S315000047F4F907FF070108FE07F807F507F507F707A6
S31500004804FB07FF070008FD07F807F507F407F60797
S31500004814FB0700080208FF07F807F307F207F60785
S31500004824FB0701080208FF07F807F207F107F60776
S31500004834FC0701080108FE07F907F407F307F70761
S31500004844FC07FF070008FE07FB07F607F307F50753
S31500004854FB07FD07FA07F507F407F607F507F3075D
S31500004864F607FF0705080208F907F407F707FE0726
S315000048740208020801080008FA07F307F107F60719
S31500004884FD0700080008FE07FB07F507F207F60711
S31500004894FE07FE07F807F407F507F707F507F50718
S315000048A4F807FD0701080108FD07F607F007F207F8
S315000048B4FB07FF07FC07F707F507F507F307F407F8
S315000048C4F90700080208FF07FA07F507F407F707D0
S315000048D4FC07FF07FF07FD07FA07F607F307F707C5
S315000048E4FD07FE07F807F307F407F607F507F607CB
S315000048F4FA0700080208FF07FA07F407F107F507A5
S31500004904FE070108FC07F407F207F307F407F507A7
S31500004914FA07000802080008FC07F507F107F40780
S31500004924FB07FE07FB07F707F707F607F207F1078A
S31500004934F9070008FF07F807F507F507F207F10777
S31500004944F607000805080208FB07F407F107F30752
S31500004954FB070008FC07F507F207F507F607F50756
S31500004964F90700080308FF07F807F507F407F60731
S31500004974FA0700080208FE07F807F407F407F70722
S31500004984FC0700080008FD07F807F407F407F70713
S31500004994FC07FF070008FD07F907F507F407F70703
S315000049A4FC0700080008FE07FA07F407F107F507F5
S315000049B4FD070108FC07F607F307F207F107F307FB
S315000049C4FA07020804080008FA07F307F007F407D1
S315000049D4FC07FF07FB07F407F307F607F707F607D5
S315000049E4F807FD07FF07FD07FA07F707F607F707B6
S315000049F4FA07FE07FF07FE07FA07F607F307F507A8
S31500004A04FB07FF0702080108FC07F407EF07F20794
S31500004A14FB070008FC07F707F607F507F207F10797
S31500004A24F607FE0702080208FE07F707F107F30771
S31500004A34F907FD07FA07F507F507F607F607F60778
S31500004A44FA0700080108FD07F707F307F307F70756
S31500004A54FE0701080008FE07F907F307F007F50744
S31500004A64FE070108FB07F607F607F507F107F20745
S31500004A74F907FF07FD07F807F507F507F307F30737
S31500004A84F907FF07FC07F507F207F507F707F70726
S31500004A94FA0700080208FD07F707F407F607F907FF
S31500004AA4FD0700080008FC07F807F407F407F607F3
S31500004AB4FB07FF0701080008FC07F507F107F307E2
S31500004AC4FA07FF07FD07F807F507F507F807FC07D8
S31500004AD400080008FB07F707F607F507F207F307D0
S31500004AE4F90700080208FF07FA07F407F107F507B4
S31500004AF4FD07FF07F907F307F307F507F507F507BA
S31500004B04FA07FF0701080008FB07F407F007F40794
S31500004B14FC070008FB07F507F407F407F207F40798
S31500004B24FC070008FC07F507F307F407F407F50785
S31500004B34F907FF070108FE07FA07F507F307F60763
S31500004B44FB07FC07F707F307F507F707F507F5076C
S31500004B54F907FD07FA07F407F207F507F507F4075F
S31500004B64F907000802080008F907F207EE07F30739
S31500004B74FD070208FE07F607F307F207F007F20738
S31500004B84FB070108FE07F607F207F407F407F50723
S31500004B94F907FE070008FE07FB07F607F307F60703
S31500004BA4FC07FF07FA07F407F307F507F507F60707
S31500004BB4FA0700080208FF07FA07F307F007F507E4
S31500004BC4FE070108FC07F607F507F407F107F307E4
S31500004BD4FB070008FD07F607F407F507F407F407D3
S31500004BE4FA07FF07FC07F507F407F607F607F407C5
S31500004BF4F707FE070108FF07F907F507F307F607A6
S31500004C04FB07FF070008FF07FB07F407F007F40795
S31500004C14FD070008FB07F607F507F407F107F20797
S31500004C24FA070008FD07F607F407F507F307F40784
S31500004C34FA070008FE07F607F307F407F407F50773
S31500004C44F90700080208FE07F907F407F207F50753
S31500004C54FD070008FB07F407F207F407F507F60754
S31500004C64FA07000802080008FA07F407F107F30731
S31500004C74FC070108FD07F507F307F507F407F40732
S31500004C84F807000804080008F907F407F307F5070E
S31500004C94FB07000802080008FB07F507F207F507FB
S31500004CA4FC070008FB07F507F307F507F507F50703
S31500004CB4F807FE070108FF07FA07F507F307F507E4
S31500004CC4FA07FF070108FF07FB07F507F207F507D1
S31500004CD4FA07FE07FF07FE07FB07F607F207F607C4
S31500004CE4FD07FE07F907F407F507F607F307F407C8
S31500004CF4FB07FE07FA07F407F307F507F507F507B9
S31500004D04F807FF070108FE07F807F507F307F40796
S31500004D14F907FF070108FF07F907F407F207F40785
S31500004D24FA07FF070108FF07FA07F407F007F30776
S31500004D34FA07FF0701080008FC07F407EF07F30763
S31500004D44FE070108FA07F307F307F407F207F40767
S31500004D54FB070008FC07F407F107F307F407F50758
S31500004D64F907FF070208FF07F907F407F307F50732
S31500004D74FA07000802080008FB07F407F107F4071E
S31500004D84FC0700080008FF07FA07F407F107F6070F
S31500004D94FE070008F907F507F507F507F307F50712
S31500004DA4FC070008FB07F507F407F507F307F50703
S31500004DB4FB07FE07FA07F507F407F407F307F507F9
S31500004DC4FB07FF07FB07F507F307F407F307F407E9
S31500004DD4FB070008FC07F507F307F407F407F507D4
S31500004DE4FA0700080208FF07FA07F507F107F407B0
S31500004DF4FB07FF07FB07F607F407F507F407F507B4
S31500004E04FC070008FC07F507F307F407F407F507A2
S31500004E14FB070008FC07F407F107F407F607F60793
S31500004E24FA0700080308FF07F807F407F207F5076F
S31500004E34FD070108FC07F507F307F507F607F5076D
S31500004E44F90700080308FF07F907F407F307F5074E
S31500004E54FA07FF070108FF07FA07F507F207F50740
S31500004E64FC07FF07FA07F407F307F507F507F50745
S31500004E74F90700080208FE07F807F407F207F40723
S31500004E84FA07010803080008FA07F507F307F50708
S31500004E94FB0701080208FF07F907F407F207F507FD
S31500004EA4FA0700080208FF07F807F307F507FE07E5
S31500004EB40308FF07F807F507F607F407F107F407F1
S31500004EC4FC070008FB07F607F507F607F407F507DE
S31500004ED4FB070008FD07F607F307F507F607F607CD
S31500004EE4F907FF0703080008FA07F407F107F407B0
S31500004EF4FB070008FD07F807F507F507F407F407AD
S31500004F04F807000803080008F907F407F307F5078C
S31500004F14FA07FF0702080108FC07F607F307F50777
S31500004F24FA07000802080008FB07F407F107F3076D
S31500004F34FA07FF0700080008FB07F407F107F5075F
S31500004F44FE070008FB07F507F307F407F407F50760
S31500004F54FA07FF070108FF07FB07F607F207F5073D
S31500004F64FC07FF07FB07F507F407F607F607F6073E
S31500004F74F907FF070108FF07FA07F507F207F50720
S31500004F84FC07FF07FB07F407F307F607F607F50721
S31500004F94F707FE070208FF07F807F407F407F60702
S31500004FA4FA07FF0703080008FA07F407F307F507EB
S31500004FB4FB07000802080008FB07F507F307F507D7
S31500004FC4FB0701080208FF07F807F307F507FE07C2
S31500004FD40208FF07F707F507F507F307F007F407D5
S31500004FE4FC070008FB07F407F307F307F207F507C6
S31500004FF4FB07FF07FA07F307F207F407F407F407BA
S31500005004FB070008FC07F407F207F507F607F407A1
S31500005014F807000804080008F907F507F307F50779
S31500005024FA07010803080008FA07F607F307F40766
S31500005034F907FF070208FF07FA07F607F307F5075C
S31500005044F907FF0702080008FB07F607F307F50749
S31500005054FB07000802080008FB07F507F107F40739
S31500005064FB07000802080008FC07F407F007F4072A
S31500005074FD070008FB07F407F307F407F507F7072E
S31500005084FD070108FC07F407F107F507FB0701080C
S3150000509404080208FB07F507F307F407F407F60705
S315000050A4FB07000802080008FC07F507F207F707E4
S315000050B4FF070108FB07F507F407F307F207F507EF
S315000050C4FC070008FB07F507F507F707F507F607DA
S315000050D4FC070108FD07F507F307F607F607F407CB
S315000050E4F907010804080008FA07F507F207F507A7
S315000050F4FC070008FC07F507F407F607F607F607AA
S31500005104FB070008FD07F407F107F507F007DF07BB
S31500005114CD07C707C507BA07A8079A0795079107D2
S315000051248B0787078707860780077A0779077B0730
S3150000513478076F0761074E073807230713070B071E
S3150000514407070307FB06EC06DD06D706DB06E206C1
S31500005154E306E006E306EA06EE06E906E506EB06DE
S31500005164F90603070107F706F106F8060F072C07E9
S315000051744607590765076D0772077807830791077E
S315000051849B079C079A079B07A107A807B307C807AD
S31500005194E807090820082A082E0833083B084008AF
S315000051A43B082A081408FF07EF07DF07CC07BF07E9
S315000051B4BC07C107C607C907CF07DB07E807F2071D
S315000051C4FC070A08140814080D08090809080C083D
S315000051D414082308320835082E0828082B08340832
S315000051E43E084C085C086908740882089408A108FB
S315000051F4A308A1089C088C086F0855084A084E089D
S3150000520456085A085E0865086E08790882088508F3
S31500005214830885088D0892089108900895089D08CA
S31500005224A208A508AB08B108B508BD08D108E90865
S31500005234F90800090209FF08F608E908D908C808A8
S31500005244BA08B208AD08A40897088F0893089C0802
S315000052549E089C089F08A408A2089B089C08A60808
S31500005264B308B608AE089E088F0885088308850823
S3150000527483087C08730867085608440835082C0810
S315000052842708210817080B080208010806080D0854
S3150000529410080E080308F607EF07F80709081908A7
S315000052A423082E083B0843084408420845084F08CB
S315000052B45C086608650859084A084508460844080B
S315000052C43A082E0823081608080802080008F707F3
S315000052D4E607D707D207CE07C107B607B707C10740
S315000052E4C907CC07CF07D307D407D707E307F707C0
S315000052F40B0817081C08190811080B0810081F08C2
S315000053042E0839083D083A0831082C0830083608B2
S3150000531435082B081F0813080708FC07F507F107CB
S31500005324EA07E407E407E607E307DE07E007EC0716
S31500005334F507F407EC07E807E707E607E607E907D2
S31500005344EA07E607DC07D007C207AE079607820717
S3150000535476076E0761074C0733071E071307120704
S3150000536418071F0721071E071F072A0741075807A3
S315000053746A077A078D079B0799078F079607BB0766
S31500005384F4071E0823080908E407C607B307A3079A
S315000053949407850779077007680763076507720727
S315000053A487079C07AD07BD07D407F40713082D0824
S315000053B445085C086C0870086D086E087308770861
S315000053C47708770875086B085B084C0845083F089A
S315000053D4340828081E0814080608F707EC07E80727
S315000053E4E807E807E507DC07D207CE07D407DD0799
S315000053F4E307E807EB07EB07E807EA07F307FF0706
S31500005404080812081F082C08320835083D084D08FC
S315000054145B086208610860085F0862086908710829
S31500005424740871086B0865085E085908560854081C
S31500005434540855085508540850084A0846084308AD
S315000054443F0839083108260815080108EF07E00760
S31500005454D707D307D007CA07C107BC07C207D207B5
S31500005464E207EC07F007F407F907000806080B083B
S3150000547411081508160813081008130819081F0838
S31500005484210820081A080908EC07D207CE07E807FE
S3150000549414083F085C086F087F088E08960897086A
S315000054A49608980896088C087E0874086C086108A3
S315000054B455084D0848084408400841084A08570852
S315000054C469087C0889088F089508A508BB08CD08D3
S315000054D4D908E708F508FE08FD08FB08FB08FB08E1
S315000054E4FB08FC08FF08FC08F108E708E108DB08EC
S315000054F4D208C608B808A4088D087A086E08630896
S3150000550455084C084908420835082C083108400853
S315000055144A084C084C084D084B0844083E083F0806
S31500005524490858086408660860085A085B085D0854
S315000055345A084F08430837082C08220818080C088C
S315000055440008F507EB07DE07CF07C507C607D1072F
S31500005554DD07E807F107F307EE07E607E307E607C3
S31500005564EE07F207ED07DB07C407B007A4079C079D
S3150000557499079C079F079A078E078607890790074E
S3150000558495079B07A607AE07AE07AB07AF07B50798
S31500005594B207A20789076D0754074B075C07820702
S315000055A4AE07D207E907F70700080A081908290809
S315000055B434083708320823080C08F707EA07E10716
S315000055C4D207BE07AC079C078B077B0774077907CE
S315000055D47E077A076C075B0750074E075507640773
S315000055E478079107AC07C007CA07D407E107EB079A
S315000055F4EB07E307D507C207AA0794078A078907B3
S3150000560486077D07750771077007720777077C079A
S315000056147D077A07710764075307450739072C077F
S3150000562421071F0728072F072C07250726073907F1
S3150000563455076E077B0779076F07680766076507CF
S31500005644600759074C0732070E07F606F9060D07D9
S315000056541F072B0738074D0767078407A207BB07F1
S31500005664CD07DD07F30709080F08FD07DB07B207B7
S31500005674860759072F070B07EF06E106E606F90624
S315000056840B0713070E07FF06ED06E106DC06D60632
S31500005694C806B606A9069F069406880685068A06DF
S315000056A48D0687067E067E068A06A006B906D806F5
S315000056B4FB06190724071807FF06ED06F606190761
S315000056C449076E077B0778077B078F07AB07BD077C
S315000056D4C007BF07C107C207BA07AB079807870702
S315000056E47A0773076B07600758075F076E07760725
S315000056F47107710783079F07B407BB07BE07C60771
S31500005704D407E807FC0709080F0813081608140845
S315000057141108180829083A08410843084908530893
S315000057245D0867086F0870086808610864086F08F0
S315000057347B08860890089208870874086508650837
S3150000574476089208B208CC08E008F4080C09220985
S315000057542909230917090C090509040909090F0967
S3150000576412090F090609F708E208CD08B808A808BF
S31500005774A008A508B308B808B108A7089E088E08AB
S315000057846D0840081808FC07EC07E907F107FD0750
S3150000579404080908100814080F080B081A08440816
S315000057A47F08BC08EE080C090F09F508C00875083F
S315000057B42408E407C607C407D407F1071608350802
S315000057C441083F08410852086D088C08B008D908FA
S315000057D4FF081B092B09310934093B0949095209F8
S315000057E44C093709200910090209EE08D508BF0833
S315000057F4AD089D0887086A084A0831082008120877
S315000058040208F107DF07C907A907830761074A07E3
S315000058143A0728070F07F506ED060A0748078D0716
S31500005824C507F00715083508480857086A088308A5
S3150000583494089A089808910883086D085C08570824
